:020000040800F2
:10000000D0230020F9010008E95B0008994A0008A4
:10001000E55B00085505000865BE0008000000000B
:10002000000000000000000000000000ADB2000869
:10003000C906000800000000B16E000827B70008DC
:100040001302000879600008130200081302000878
:10005000130200081302000813020008130200082C
:10006000CB060008D1060008130200085D06000850
:100070006906000875060008810600088D0600085C
:1000800099060008A50600084303000813020008AB
:1000900013020008130200081302000813020008EC
:1000A00013020008130200081302000813020008DC
:1000B000130200081302000813020008694B00082D
:1000C0005D4B000813020008130200081302000829
:1000D0001302000841BE00084DBE000859BE0008CA
:1000E000130200081302000813020008130200089C
:1000F000130200081302000813020008130200088C
:10010000130200081302000813020008130200087B
:1001100025BA000831BA00081302000813020008CB
:100120001302000813020008B1060008BD0600080B
:1001300000F002F800F050F814A696E8000CB24463
:10014000B344DA4501D100F047F8BAE80F000FA632
:1001500096E83000A5EB040504EB0607AAEB0704BC
:10016000A7F101074FEA15154FEA3414A4F1010471
:10017000AC4201D300F030F813F0010F18BFFB1AA6
:1001800043F0010300F001F8DBE71847FCDB000057
:100190001CDC0000103A24BF78C878C1FAD8520796
:1001A00024BF30C830C144BF04680C6070470000F1
:1001B000704700000023002400250026103A28BFC5
:1001C00078C1FBD8520728BF30C148BF0B607047C9
:1001D0001FB51FBD10B510BD00F07AF81146FFF72E
:1001E000F7FF0CF06BFB00F098F803B4FFF7F2FF99
:1001F00003BC00F09FF80000094880470948004709
:10020000FEE7FEE7FEE7FEE7FEE7FEE7FEE7FEE7C6
:10021000FEE7FEE704480549054A064B7047000023
:10022000B3B7000831010008D0170020D023002008
:10023000D01B0020D01B00204FF000020429C0F08A
:10024000128010F0030C00F01B80CCF1040CBCF108
:10025000020F18BF00F8012BA8BF20F8022BA1EB5A
:100260000C0100F00DB85FEAC17C24BF00F8012B3F
:1002700000F8012B48BF00F8012B70474FF0000237
:1002800000B5134694469646203922BFA0E80C508C
:10029000A0E80C50B1F12001BFF4F7AF090728BF67
:1002A000A0E80C5048BF0CC05DF804EB890028BFE3
:1002B00040F8042B08BF704748BF20F8022B11F00C
:1002C000804F18BF00F8012B704770477047704788
:1002D000754600F02BF8AE4605006946534620F0FF
:1002E0000700854618B020B5FFF794FFBDE8204011
:1002F0004FF000064FF000074FF000084FF0000BE2
:10030000AC46ACE8C009ACE8C009ACE8C009ACE850
:10031000C00921F007018D46704710B50446AFF3C0
:1003200000802046BDE81040FFF75FBF00487047DF
:100330001000002001491820ABBEFEE72600020095
:10034000704780B541F22000C2F2000000F014FCBA
:1003500041F25000C2F20000BDE8804000F00CBC49
:10036000B0B5044600688168C90717D0816821F0DC
:100370000101816001F0E1FB21688968C9070DD0A6
:10038000054600BF01F0D9FB411B2068032902D3B9
:100390008168C90704D18068C007F3D10020B0BDCF
:1003A000A06A40F01000A062E06A40F00100E06244
:1003B0000120B0BD0146406A826A12F0500F03D09E
:1003C000006A026B084610470168826A42F40072B4
:1003D0008262896801F46021B1F5602F01D1017B4F
:1003E00009B100F04EBB816A21F480718162816A9B
:1003F000C90448BF00F045BB816A41F00101816238
:1004000000F03FBB406A816A41F040018162C16AED
:1004100041F00401C16200F0ABBB406A00F040BB98
:10042000B0B582B004460020019021688A68D207E6
:100430002BD1886840F00100886040F20000C2F2D1
:10044000000000684DF68361C4F21B31A0FB01017E
:10045000880C00BF0190019810B101980138F9E7AC
:1004600001F06BFB21688968C9070DD1054600BF03
:1004700001F063FB411B2068032902D38168C9078F
:1004800005D08068C007F3D0002002B0B0BDA06ADC
:1004900040F01000A062E06A40F00100E06200203D
:1004A00084F824000120F0E7D0F804C0DCF818201C
:1004B000A2F1120111F1150F3CBF1420704780B555
:1004C000531C00F12001CCF818304FF0FF0C01F85C
:1004D00002C0D0F804E0DEF818305A1CCEF818201C
:1004E00001F803C0D0F804E0DEF818305A1CCEF84A
:1004F000182001F803C04368C06C9A69DA61BDE84E
:1005000080400AF035BC10B55A680C46516801317C
:100510005160194606F02EFD40F68C210246C2F2CB
:10052000000120464FF48073BDE810400CF0D2B8B3
:1005300079B10139002200BF435C10F802C0835436
:100540004B1E9A4200F801C003D20132002919461D
:10055000F2D17047FEE70000F0B5006843F2000EEC
:100560008368B2F1040C43F00103C4F2020E83600D
:100570001FD0032300200C46654600BF14F8016B12
:10058000DFB2FF00013BBE40DFB2042F40EA0600AD
:1005900003D3CEF8000000200323013DEED1DCB2EE
:1005A000032C06D0DCB2032CA3F10103FAD3CEF85E
:1005B0000000DEF8000011F80C30B3EB106F13D11F
:1005C000114411F8032CC0F307439A420CD111F8DF
:1005D000022CC0F307239A4206D111F8011CC0B2C5
:1005E000081A18BF0120F0BD0120F0BD80B582B00F
:1005F000022909D001291ED1107801280FD1D2F883
:1006000009000090684606E01078022810D1D2F860
:100610000900019001A80421FFF78AFF0BE0187878
:10062000012808D1194602B0BDE8804000F07CB82E
:1006300018780228F6D0002002B080BDDDF800C096
:10064000BCF1000F08BF70471A44084410F8011BA2
:10065000BCF1010C02F8011BF8D1704741F288008F
:10066000C2F2000000F084BE41F2A820C2F20000F5
:1006700000F07EBE41F26420C2F2000000F078BEBD
:1006800041F29810C2F2000000F072BE41F2541024
:10069000C2F2000000F06CBE41F2DC10C2F20000B9
:1006A00000F066BE41F22020C2F2000000F060BE01
:1006B00041F2CC00C2F2000000F05ABE41F210102C
:1006C000C2F2000000F054BE7047042001F036B9B9
:1006D000082001F033B9000041F2337042F62402E1
:1006E000C2F200000021C4F201020170516040F624
:1006F0004D21116041F25001C2F2000109686FF012
:1007000001020A604A6842F040024A60017849B931
:1007100043F20001C4F200014AF6AA220A600378FB
:10072000002BFBD002F08CBA48688068421892799E
:1007300090421CBF0420704780B5B0F1010C0AD074
:1007400001F108030022604613F801EB013882EA48
:100750000E02F9D100E0002201EB0C00007A101A21
:1007600018BF012080BD0000F0B581B040F27200DA
:10077000C2F200000C460188628A4B1C9FB240F214
:100780007406C2F20006042F4FF000074FF0000578
:10079000038026F8112084BF0021018036F917005C
:1007A0000DF0E0F8014628460CF032FF0137052F26
:1007B0000546F3D10021C4F2A00128460CF0C0FF89
:1007C0000CF077FD0DF0B2F8A08201B0F0BD80B55D
:1007D00082B000218DF80610ADF8041001A90022A6
:1007E00002F024FE08B1FFF777FF9DF804009DF8A2
:1007F00005104FF461639DF806205843C1EB0111C9
:1008000000EB8100104402B080BD000070B582B0E2
:1008100004460020019094F82400012801D102250B
:1008200061E0012084F824002046FFF799FD20466E
:10083000FFF7F6FD0546002852D1A06A41F20211E9
:1008400088430230A06240F20000C2F20000066855
:10085000022002F013FAB6FBF0F04000019001987C
:1008600010B101980138F9E72068816841F008016A
:10087000816001F062F921688A6812070CD506468A
:1008800001F05BF9801B21680B2802D38868000700
:100890001ED488680007F3D4886840F0040088609C
:1008A00001F04BF92168896849070DD5064600BF5C
:1008B00001F043F9811B20680B2902D381684907A5
:1008C00006D480684007F3D401206FF0030103E0F1
:1008D000012510206FF01201A26A11400843A062A6
:1008E000002084F82400284602B070BD704790F8BC
:1008F0002420012A01D1022121E0B0B5026891F83B
:1009000008C05368BCF1010F23F0400308BF403317
:100910005360D2F804E04FF6E05CCFF63F7CD1E9BB
:1009200000350EEA0C0423432B435360CB6853621B
:1009300009699162002180F82410BDE8B0400846A2
:100940007047000010B581B00022009290F824207A
:10095000012A01D102216BE04B680122062B80F8AD
:10096000242012D8D0F800C003EB83035A1F1F23A2
:10097000DCF834E003FA02F40B682EEA040403FA0C
:1009800002F22243CCF8342022E0D0F800C00C2B35
:1009900003EB83020ED8233A1F23DCF830E003FA7E
:1009A00002F40B682EEA040403FA02F22243CCF8A4
:1009B00030200DE0413A1F23DCF82CE003FA02F46A
:1009C0000B682EEA040403FA02F22243CCF82C202E
:1009D000092B03EB43021DD9DCF80CE01E3A072477
:1009E000896894402EEA0404914023F001022143D7
:1009F000102ACCF80C1017D142F20841C4F20101C0
:100A0000A1F10802944516D0816A41F0200181626B
:100A100001210AE0DCF81030072489689440A343E0
:100A200091401943CCF810100021002280F82420B6
:100A3000084601B010BD0A681202F5D40A68102BEE
:100A400042F400020A60EFD140F20001C2F200015C
:100A500009684DF68362C4F21B32A1FB0212910CAD
:100A600001EB81014900009100990029DCD000BF11
:100A7000009901390091009900294FF00001F7D148
:100A8000D3E7006842F20041C4F20101884218BF76
:100A9000704740F21010C2F200000121017470474B
:100AA0007047B0B5002860D00446806A40F002006C
:100AB000A0622046FFF754FC0546002851D120686B
:100AC0006FF01F01016000224168CFF6C072A2F5ED
:100AD000010211404160816840F2F062CFF601727C
:100AE00011408160C16840F6FF7201F07F41C16032
:100AF000016901F0404101614169914341618169AE
:100B00006FF30B018161C1696FF30B01C161016A70
:100B10006FF30B010162416A6FF30B014162816A5D
:100B20006FF30B018162C16A01F07F41C162C16A4A
:100B300001F07F41C162016B01F040410163416BF3
:100B400001F040414163816B6FF315018163816B5B
:100B50006FF315018163204600F044F90020E06244
:100B6000A062002084F8240000E001252846B0BDE2
:100B700070470068C06C704770B50446006805682F
:100B80004668B10627D515F0020124D0A16AC9062E
:100B900003D4A16A41F40071A162816801F460216B
:100BA000B1F5602F10D1217B71B9416821F020018E
:100BB0004160A06A20F48070A062A06AC00403D4DF
:100BC000A06A40F00100A0622046FFF75AFF2068AB
:100BD0006FF012010160310632D515F004012FD0FB
:100BE000A16AC90603D4A16A41F40051A1628168D7
:100BF00001F4E041B1F5E04F0FD1416821F08001EF
:100C00004160A06A20F48050A062A06AC00510D4A0
:100C1000A06A40F00100A0620BE04168490508D4D9
:100C2000816801F46021B1F5602F02D1217B002998
:100C3000E3D02046FFF75AFE20686FF00C010160F8
:100C400070060ED515F0010008BF70BDA06A40F413
:100C50008030A062204600F094F820686FF0010117
:100C6000016070BD002841D010B50446806A30B9DB
:100C70000020E06284F82400204600F0E8F82046D6
:100C8000FFF76EFBA26AA16AD20631D480BB41F2A3
:100C9000021021EA00000230A06294E80150E169EC
:100CA00080F0804383F49E3381F440221A4308BFCE
:100CB0004FF400214CEA010CAEF10101B1FA81F1CF
:100CC00049097346BEF5807F18BF0B02227D217B48
:100CD000012A4CEA410C17D171B1A16A41F02001FF
:100CE000A162E16A41F00101E1620DE0012070477B
:100CF00041F01000A06242E0A1694EF60002CFF67A
:100D0000FF7202EB41310B4341684FF2FD7221F457
:100D10006941194341608168CFF6E172114041EAAF
:100D20000C01BEF5807F816002D0BEF1010F06D1BB
:100D300021690022CFF6F07202EB015200E000229E
:100D4000C16A21F470011143C162806840F6FE61FE
:100D5000CFF61F710840604507D10020E062A16A0C
:100D6000012262F30101A16210BDA06A40F01000EF
:100D700020F00200A062E06A40F00100E062012081
:100D800010BD006842F60001C4F20101884218BF9C
:100D9000704710B541F25004C2F200042046FFF73C
:100DA000E8FE40F6A611884204D241F23270C2F247
:100DB00000000DE041F25000C2F20000FFF7D9FE42
:100DC00040F64D2188420AD341F23370C2F200004E
:100DD000012101702068416821F040014160BDE8B7
:100DE0001040704710B50446006842F60001C4F296
:100DF000010188421AD042F20041C4F20101884246
:100E000018BF10BD41F21800C4F20200016821F4BD
:100E10000071016041F20000C4F20100022100F003
:100E200089FC206ABDE8104000F054BA41F2180273
:100E3000C4F202021068012120F4806341F2000034
:100E4000C4F201001360BDE8104000F073BC70B53F
:100E500086B00446006842F60001C4F201018842EF
:100E60004FF00001CDE90411CDE9021147D042F263
:100E70000041C4F2010188426AD141F21800C4F273
:100E80000200016841F400710160016801F4007121
:100E900001910199016841F010010160006802A907
:100EA00000F01000019001980220029003200390AE
:100EB00041F20000C4F2010000F04CFD41F288054F
:100EC0000820C2F20005C4F202000021C5E90001B9
:100ED00005F1080080224FF400734FF4006C4FF0CE
:100EE000200E4FF4805680E80E502846EE6100F048
:100EF0006AFB08B1FFF7F0FB25626C6220E041F26B
:100F00001800C4F20200016841F4806101600168C8
:100F100001F4806101910199016841F010010160C3
:100F2000006802A900F010000190019801200290D1
:100F30000320039041F20000C4F2010000F00AFD1A
:100F400012200E21002201F040FE122001F02DFEA1
:100F500006B070BD10B5044690F82400012804BF07
:100F6000022010BD012084F824002046FFF758FA23
:100F700020B1002084F82400012010BD42F2044C6E
:100F80002068A16AC4F2010C40F2013291430CF5D1
:100F90007F7201F580719042A16205D0A16A21F4AF
:100FA0008011A16241680AE0DCF8001011F4702F92
:100FB000F4D0A16A41F48011A162DCF80010490567
:100FC00004D5A16A012363F30D31A162A16A002354
:100FD000C9044FF0000144BFE16A21F00601E1625B
:100FE0006FF0020184F824300160816801F460210F
:100FF000B1F5602F06D1904208D1DCF8001011F451
:10100000702F03D0816841F4801102E0816841F4BF
:10101000A0018160002010BD70B51546044600682F
:1010200042F60002C4F2010290420E4605D042F29E
:101030000041C4F20101884207D142F20440C4F2E7
:101040000100006810F4702F0FD194F824000128DB
:1010500004BF022070BD012084F824002046FFF761
:10106000DFF920B1002084F82400012070BD42F295
:1010700004402168A26AC4F2010040F601739A4359
:1010800000F57F7302F580729942A26205D0A06AD2
:1010900020F48010A062486808E0026812F4702F03
:1010A000F5D0A26A42F48012A2620068400504D51D
:1010B000A06A012262F30D30A062A26A0020D2046D
:1010C0004FF0000244BFE26A22F00602E26284F8B6
:1010D0002400206A40F2B532C0F6000240F21B4301
:1010E00040F2054C00F1280EC0F60003C0F6000CDB
:1010F0008EE80C106FF002020A608A682B4642F4F8
:1011000080728A604C31324600F0ABFA2068816808
:1011100001F460228168B2F5602F0CBF41F4A00198
:1011200041F480118160002070BD60B110B50446AB
:10113000407920B900202071204600F006F80120F7
:101140006071002010BD01207047006843F200016B
:10115000C4F20201884218BF704781B041F2140006
:10116000C4F20200016841F040010160006800F033
:1011700040000090009801B07047014690F82100AF
:10118000022813D10868D1E90FC3026822F00E02C9
:101190000260026822F001020260012000FA03F2FC
:1011A000CCF8042081F82100002002E004208863AC
:1011B0000120002281F82020704790F82110022998
:1011C00025D1026840F2040C1368C4F2020C23F02B
:1011D0000E03136013680CF17C018A4223F00101B5
:1011E000116018D940F20841C4F202018A4245D088
:1011F00040F21C41C4F202018A4241D040F2304127
:10120000C4F202018A423DD14FF4807342E00421CE
:10121000816301215CE04321C4F202018A420EDDB8
:101220006B21C4F202018A421BDC4421C4F2020198
:101230008A4235D05821C4F202018A422DE00821A9
:10124000C4F202018A422ED01C21C4F202018A4259
:101250002ED03021C4F202018A421ED14FF4807296
:1012600027E06C21C4F202018A421ED08021C4F220
:1012700002018A4211D14FF080721AE0012309E085
:10128000102307E00CF588614FF480338A4208BFD1
:101290004FF48053CCF800340DE04FF4803208E076
:1012A0004FF4805205E0012203E04FF4801200E089
:1012B0001022CCF80020012180F82110426B00217F
:1012C00080F8201022B180B590470021BDE8804011
:1012D0000846704700284FF0010144D0F0B540F2B5
:1012E00004430268C4F202034FF6F83403F1040E1B
:1012F000CBF6FD74D2F800C0724538BF04F58064A7
:101300004CF6CD451444CCF6CC45A4FB05452CF059
:10131000010440F2000C6FF00307C4F2020C07EA6C
:10132000950514604FF000040CF5806601FA05F194
:10133000146054609460D4603CBF0026C4F202067E
:10134000C0E90F65724538BF0CF104031960002134
:10135000C0E90A44C0E90C44846380F8214080F865
:101360002040BDE8F0400846704790F821007047E3
:1013700010B5D0E90FE3D0F800C0DEF80020DCF8AB
:101380000010DA4054072BD511F0040428D0DCF803
:101390000010890605D4DCF8001021F00401CCF817
:1013A00000100422C4F2020202F17C018C4548D9EB
:1013B00040F20841C4F202018C4500F0A18040F2E5
:1013C0001C41C4F202018C4500F09C8040F2304187
:1013D000C4F202018C4540F097804FF480619BE09D
:1013E000940743D511F0020440D0DCF800108906C0
:1013F00008D4DCF8001021F00A01CCF8001001211B
:1014000080F821100422C4F2020202F17C018C4512
:1014100043D940F20841C4F202018C4500F0A1809A
:1014200040F21C41C4F202018C4500F09C8040F265
:101430003041C4F202018C4540F097804FF40071B6
:101440009BE04321C4F202018C453ADD6B21C4F2DA
:1014500002018C4547DC4421C4F202018C4500F0B6
:101460008F805821C4F202018C4558E0120740F1E8
:10147000A98011F0080100F0A580DCF8001021F02F
:101480000E01CCF80010012101FA03F2CEF804207D
:10149000816380F82110016B8FE04321C4F20201C7
:1014A0008C453FDD6B21C4F202018C454CDC4421AC
:1014B000C4F202018C4575D05821C4F202018C455A
:1014C00066E00821C4F202018C455CD01C21C4F204
:1014D00002018C455FD03021C4F202018C451ED13F
:1014E0004FF4806158E06C21C4F202018C454CD06D
:1014F0008021C4F202018C4511D14FF080614BE094
:10150000042109E0402107E002F588634FF48021BF
:101510009C4508BF4FF48041C2F800143DE04FF4F1
:10152000802139E00821C4F202018C453DD01C2104
:10153000C4F202018C453DD03021C4F202018C4539
:1015400026D14FF4007136E06C21C4F202018C45C3
:101550002DD08021C4F202018C4519D14FF00071C9
:1015600029E0022109E0202107E002F588634FF419
:1015700000319C4508BF4FF40051C2F800141BE035
:101580004FF4804108E0042106E04FF4800103E0BD
:101590004FF400310FE040211160C16A91B1BDE804
:1015A000104008474FF4005105E0022103E04FF4DA
:1015B000001100E020211160816A0022002980F8DA
:1015C0002020ECD110BD014600284FF0010008BFDB
:1015D00070472DE9F04340F20043C4F20203D1F812
:1015E00000E04FF6F83203F1080CCBF6FD72E64549
:1015F00038BF02F5806202EB0E0C4CF6CD42CCF601
:10160000CC42ACFB022C6FF00306D1E90129D1F8E2
:101610000C8038BFA3F5806306EA9C06C1E90F364B
:10162000022381F82130DEF8003043F6F076B34330
:101630001A43D1E9046542EA090242EA0802D1E903
:10164000067432432A433A432243CEF80020002254
:101650008A6381F8210081F820200020BDE8F04352
:10166000704790F820C0BCF1010F04BF0220704702
:10167000F0B54FF0010E80F820E090F821C0BCF1E9
:10168000010F26D14FF0020C80F821C04FF0000C62
:10169000C0F838C0D0E900C4C56AC66BDCF8007079
:1016A000102C27F00107CCF80070006C0EFA00F047
:1016B00070600846CCF8043004BF10460A46CCF8E7
:1016C0000800CCF80C20DCF800003DB140F00E0022
:1016D0000CE0002180F820100220F0BD20F0040072
:1016E000CCF80000DCF8000040F00A00CCF8000064
:1016F000DCF8000040F00100CCF800000020F0BD54
:10170000F0B581B0044600F018FA054600F015FA6D
:10171000401BA0420CD243F20006C4F200064AF677
:10172000AA2700BF376000F008FA401BA042F9D397
:1017300001B0F0BD002900F082802DE9F04F81B0AA
:10174000A0F18042A2F58432830543EA922241F659
:10175000004340F20047C4F201034FF0060AC4F20E
:101760000107984208BF4FF0050A052A38BF924684
:1017700000226FF01F04A7F57E794FF00F0BCDF814
:10178000009000BF0123934013EA01074ED022F0DE
:10179000030304F1200559F8033005F00C080BFA97
:1017A00008FC03EA0C030AFA08F6B3426FEA070ED4
:1017B00029D140F20049C4F20109D9F8006040F291
:1017C0000C4306EA0E06C9F80060D9F80460C4F2BA
:1017D000010306EA0E06C9F804601E6806EA0E0652
:1017E0001E60D9F80880534608EA0E06C9F808605A
:1017F000DDF800904FEA920A59F82A6026EA0C06B2
:1018000049F82A609A46B7F5807F074624BF2546E7
:1018100004373E680BFA05F326EA03030426AE40BC
:1018200033433B60C36803EA0E03C360013231FAFD
:1018300002F304F10404A5D101B0BDE8F04F7047F4
:10184000B0B5042831D0082818BFB0BD41F200005F
:10185000C4F201000821082400F065F9012865D1CF
:1018600040F67824C2F20004E068B0F904000128D0
:101870005BDB00F062F940F28005C2F200052968E6
:10188000401A642851D341F27870C2F20000006817
:10189000007803283BD1D4E903108268012A38DBA1
:1018A000B1F90430D21A826033E041F20000C4F290
:1018B00001000421042400F036F9012836D140F655
:1018C0007820C2F20000C168B1F90220012A1CDBB5
:1018D000016992B24B69013393424B6115D341F2D6
:1018E0007872C2F2000212681278032A04D18A6860
:1018F000012AA4BF013A8A6040688A69836901327B
:101900008A615A1C82610020486104240EE0D4E9F7
:1019100003106368B1F9041082699C690A4482610A
:101920006018986100F009F92860082440F214401A
:10193000C4F20100016821430160B0BD40F21441CE
:10194000C4F201010A68024214BF08607047FFF741
:1019500077BF00002DE9F04F82B00E68002E00F036
:10196000DF80A0F18042A2F58432870547EA922207
:1019700041F6004740F2004EC4F201070625C4F2CA
:10198000010EB84208BF052500244FF001080F23BF
:101990004FF0000A4FF0000B052A38BF154600959E
:1019A00008FA0AFC16EA0C0900F0B1804E684FF6FE
:1019B000FF72C1F21002964208DC032E34D8DFE831
:1019C00006F028023E42D1F80CB043E04FF6FF7219
:1019D000C1F2210296420DDC0022C1F211029642B0
:1019E00017D00022C1F21202964212D00022C1F298
:1019F00021020CE00022C1F22202964209D000220C
:101A0000C1F23102964204D00022C1F23202964263
:101A100020D18A6882B1012A14BFC0F814C0C0F86E
:101A200010C04FF0080B15E0112E0FD0122E11D15F
:101A3000CA6802F10C0B0DE04FF0040B0AE0CA6813
:101A400002F1080B06E04FF0000B03E0CA6802F158
:101A5000040B00BF22460646B9F5807F24BF203A1A
:101A60000436376803FA02F5AF430BFA02F23A4341
:101A70003260CA79D2064AD541F21807C4F2020789
:101A80003A684FF6084342F001023A603A68CFF6EE
:101A9000FF7302F001020192019A2AF003027244DC
:101AA0000F25D75804F00C06B540AF43009D05FA4A
:101AB00006F63743D7504E6840F20C45F202DEF886
:101AC000082054BF22EA090242EA0902C4F20105D1
:101AD000CEF808202A68B70254BF22EA090242EA77
:101AE00009022A60DEF80420B70354BF22EA090283
:101AF00042EA0902CEF804200F23DEF80020F703A3
:101B000054BF22EA090242EA0902CEF800200E6818
:101B10000AF1010A36FA0AF204F104047FF440AF34
:101B200002B0BDE8F08F8068084018BF0120704700
:101B3000002A08BF09040161704741F2A470C2F293
:101B400000000068704778B310B5044690F8410073
:101B500028B9002084F84000204602F003FC24202D
:101B600084F841002068C16821F40051C16020461A
:101B70000AF091F82068016921F4904101614169FE
:101B800021F022014161416941F008014161C168D0
:101B900041F40051C16000202021606484F84110AC
:101BA00084F84210606310BD012070477047704791
:101BB000F0B581B00446006800254769426894F892
:101BC0003E1002F48076FA0508D53EB16FF48072BB
:101BD00042610268012542F400420260BA0504D560
:101BE0001EB102356FF4007242617A0516D5AEB1AE
:101BF000628D94F83D30D4F830C0202908BF002A07
:101C000022D06FF48062402905F10405426101D0C1
:101C1000102903D1016841F400710160380506D52F
:101C20002EB1206808356FF40061416100E04DB1CC
:101C3000206C40EA05012046216401B0BDE8F04077
:101C400003F006B801B0F0BD03F0F701212909D077
:101C5000282B08BFBCF1210F04D06FF480614161D3
:101C60000435DBE794F83D10E26AB2F1080318BFCF
:101C70000123203A18BF0122134208BF282920D08F
:101C8000212938D10021CFF6FF71E16221212163A2
:101C9000202184F83D10002184F83E10426822F48F
:101CA000E06242606FF480624261026822F4806206
:101CB00002604269120648BF0161204600F0C3FE7F
:101CC000ACE70021CFF6FF71E162416821F4E061E9
:101CD00041606FF480614161016821F480610160BD
:101CE00000202021206384F83D1084F83E00204627
:101CF00000F073FC92E76FF4806141618EE7F0B50C
:101D000081B0076804467868E26A94F83E3094F837
:101D10003DE0402B01D0102B1BD1BD697E69F1073E
:101D200043D1B2F12A4F00F0DB82B2F52A0F00F066
:101D3000D782310700F4007240F10081002A00F0E0
:101D4000FD80606B616C0028C9B2396140F0E780AA
:101D5000E7E0216C00F4007300290CBFBD69002589
:101D60007E69B1073AD5CBB3206C00B1BD6994F858
:101D70003D0000F02800282872D17868012120F465
:101D80008060786005F0040081EA900128064FF039
:101D9000180058BF0C20225A0023204684F83C30FB
:101DA00001B0BDE8F040FFF702BF810540D44FF01D
:101DB000010C79686A0741D4090500F1918206F0A7
:101DC0004401402940F0148110F4806000F010813B
:101DD000204601B0BDE8F04003F05EB8F10649D5F9
:101DE000002B47D094F83D50786820F4E06078608C
:101DF0000020009078690090386840F00100386059
:101E00000098386820F4806038607868000540F1F8
:101E1000328105F0F7002646222840F00B8156F863
:101E2000380F0168496826F80E1C36F80E1C09E1C7
:101E3000E06AB0F52A0F4FD1012052E0090500F108
:101E40004F8206F08401802940F0E18010F4806028
:101E500000F0DD80204601B0BDE8F04003F0D9B8C5
:101E60000020009079690091B9690091009984F887
:101E70003C0035E20EF0F701212940F0808006F0A9
:101E80008401802940F0408110F4806000F03C81A2
:101E900094F83D00618D002900F02282616A11F8FA
:101EA000012B3A616162618D01396185618D002983
:101EB00040F01682292840F013827868282120F407
:101EC0008060786021202063204684F83D1001B0B6
:101ED000BDE8F04000F0B7BDE06AB0F12A4F01D193
:101EE0000820E06294F83E00402809D1206D616C22
:101EF000002801F0FE0018BF40F001003861EFE15A
:101F00002069B0F5804F65D194F83D00616C2128BF
:101F100001F0FE0118BF01313961606B08B1806AC0
:101F200038B9A06B002800F0DB81806A002800F03F
:101F3000D781786840F400607860D1E14FF0010CFF
:101F4000B1078CEA522C7FF534AF002A3FF431AF51
:101F500094F83E30E06A226B94F83D10222906D1B5
:101F6000216D002940F00C81402B40F009810020B8
:101F7000009078690090B86900900098B0E106F090
:101F80004401402940F0CF8010F4806000F0CB8005
:101F900094F83D00618D002900F0A2813969626AE0
:101FA0001170616A01316162618D01396185618DF4
:101FB000002940F095812A2840F0928120684168EC
:101FC00021F480614160222028212063204684F88A
:101FD0003D10D0E0206D002800F0B980206D012870
:101FE00040F07E81606C062101EAD010F13085E777
:101FF00006F00400012181EA900050EA0C0040F054
:102000006F81204601B0BDE8F04002F0D6BE06F078
:102010000400012181EA900050EA0C0040F0608148
:10202000BEF1210F40F0C080204601B0BDE8F04075
:1020300002F0AFBF56F8340F0168496826F80A1C51
:1020400036F80A1C19B1216C41F004012164796849
:1020500021F400617960FFF788F901280BD030681E
:1020600044F67531C0F600014163FFF7A6F810B1E0
:102070003068416B8847608DF8B120684169490735
:1020800009D50069616A0870616A2068013161627E
:10209000618D013961854169490608D50069616A28
:1020A0000870606A01306062608D01386085608D03
:1020B00018B1206C40F004002064206C28B1204648
:1020C00001B0BDE8F04002F0C3BD2A2D07D10020C9
:1020D0002063282084F83D00204600F0B3FC94F8EB
:1020E0003D00282839D10020CFF6FF70E0620021A2
:1020F0002020216384F83D00204684F83E1001B082
:10210000BDE8F04000F069BA700740F1E980002BAB
:1021100000F0E680608D002800F0E280606A10F830
:10212000011B39610EE0700740F1DA80002B00F0EE
:10213000D780608D002800F0D3803869616A08700C
:10214000606A01306062608D01386085C8E0606C53
:10215000062101EAD010F030D0E6206B222818BF0B
:10216000222D40F0BD8000212020216384F83D0015
:10217000204684F83E1001B0BDE8F04000F062BC9B
:10218000216DD1B92169B1F5404F16D100200090E1
:1021900078690090B86900900098386840F48070C1
:1021A0003860206D01309AE0402B40F09980204645
:1021B00001B0BDE8F04002F083BF618D51B1618D87
:1021C000012913D1202818BF08283ED1386820F4EF
:1021D000806038600020009078690090B8690090B5
:1021E0000098386840F40070386077E0618D02290B
:1021F00014D1102851D8012114228140C0F20102CB
:1022000011424AD0396841F480613960002100915F
:1022100079690091B969009100994DE0396841F4FC
:1022200080613960796809052FD5421E1F2A59D867
:102230000121914048F28102C8F20002114251D0BE
:10224000786840F4805078601FE010F5803F0AD134
:10225000386820F48060386078680005BAD538683E
:1022600020F4806010E0122A01D10128AED110289C
:10227000F5D8012101FA00F01421C0F20101084251
:10228000EDD0386840F480603860002000907869B4
:102290000090B8690090009820E0396841F400612E
:1022A00039600021009179690091B9690091009924
:1022B000396821F480613960796809050ED5421EBC
:1022C0001F2A13D80121914048F28102C8F200026E
:1022D00011420BD0786840F480507860002020656F
:1022E00001B0F0BD10F5803FAAD0CEE710F5803FD9
:1022F000F0D0F3E7704780B3F0B581B0044690F8B2
:102300003D0028B9002084F83C00204600F05CFB2A
:10231000242084F83D002068016821F0010101605B
:10232000016841F400410160016821F4004101604D
:1023300000F056FE636848F2A16CC0F2010C40F652
:102340000011C0F23D0163453CBF48F28041C0F23C
:102350001E01884203D2012079E0012070474DF62A
:102360008361C4F21B31A0FB01122168970CD1F8E4
:1023700004E04FF496762EF03F0545EA92454D6015
:10238000774348F638160D6AC0F24106A7FB067679
:1023900025F03F07634538BF960C721C3A430A622A
:1023A000CA6948F2A0664CF6FF77C0F20106B34254
:1023B00022EA07020AD801385B00B0FBF3F00130D3
:1023C0006FF31F30042898BF042019E0A768013874
:1023D00057B119277B43B0FBF3F001306FF31F3087
:1023E00068B100F5804007E003EB4303B0FBF3F076
:1023F00001306FF31F3010B100F5004000E0012004
:102400001043C8610868D4E9072320F0C0001043D6
:1024100018430860886848F2FF3204F10C079043C3
:102420008CCF18431043A6698860C86820F0FF006D
:1024300038433043C860086840F00100086000205D
:102440002021206484F83D10206384F83E0001B010
:10245000F0BD00002DE9F04F83B01E4615468946B9
:102460000446FFF76AFB94F83D1020290ED10221A3
:102470000746C0F21001204601221923009702F0FE
:1024800089FF18B994F83C00012804D10225284698
:1024900003B0BDE8F08F4FF0010A206884F83CA03B
:1024A0000168C90703D1016841F0010101600168B9
:1024B0004FF0000B21F400610160242084F83D00FE
:1024C0000020CFF6FF70C4F840B0E06209F0FE09CA
:1024D000012D88BFAA464FF0A008012520680022E0
:1024E0000168334641F48071016020464FF00111CC
:1024F000009702F04FFF216800284BD1C1F81090DF
:10250000FFF71BFB21684B694A6994F83D70A02FC7
:1025100007461AD013F0020008BF12F4806014D1ED
:10252000FFF70BFB16B1C01BB04201D984F83D8008
:1025300021684A69486994F83D30A02B05D012F013
:10254000020208BF10F48060EAD0202084F83D0029
:1025500048690A68800742F400720A6022D46FF466
:102560008060486102212046C0F210010122192337
:10257000009702F00FFF00287FF489AF0BF1010BE9
:10258000D345ABD1202084F83D000020012584F8FC
:102590003C007CE708680325C00544BF4FF4007089
:1025A000206474E700260296486901220290886937
:1025B0000221029002982046C0F2100119230097D0
:1025C000012502F0E7FE00287FF461AF202084F8A7
:1025D0003D0084F83C60002559E77047704770471C
:1025E000704770472DE9F04784B0044600201F462D
:1025F00016460D460390FFF7A0FA94F83D102029E7
:102600000FD102218146C0F2100120460122192378
:10261000CDF8009002F0BEFE18B994F83C000128F5
:1026200003D1022004B0BDE8F0870121226884F8BC
:102630003C101368DDE90D080C99DB0703D1136822
:1026400043F001031360136823F400631360222234
:1026500084F83D20402284F83E20002222646162FA
:102660006085608D294620850020CFF6FF70E062EE
:10267000204632463B46CDE9008902F077FD08B19D
:102680000120CFE7208D022810D0012824D0002877
:1026900038D100200290206841690291816902913D
:1026A0000299016841F40071016037E02068016817
:1026B00041F400610160EFF3108072B600200290D7
:1026C000206841690291816902910299016821F4AF
:1026D0008061016062B621E02068016821F48061B8
:1026E0000160EFF3108072B600200290206841690B
:1026F0000291816902910299016841F400710160BF
:1027000062B60BE02068016841F48061016000213D
:10271000029141690291806902900298208D0028FF
:1027200000F0A980042740F2000A4BF28956C0F25B
:102730000107C2F2000AC1F2F846232580B203283D
:102740000CD8022825D0012844D1204641464A46CB
:1027500002F0BAFE002800F07E8091E72046414654
:102760004A4602F0B1FE00287FF48AAF2068616A11
:1027700000690870606A2268411C208D616201381E
:102780002085638D013B638553695B0770D51069B4
:1027900064E02046394600224346CDF8009002F01E
:1027A000F9FD00287FF46CAFEFF3108072B620685B
:1027B000616A026842F40072026000690870606A2F
:1027C000218D01306062481E2085608D0138608552
:1027D00062B640E02046394600224346CDF80090DC
:1027E00002F0D8FD00287FF44BAF2068016821F487
:1027F00080610160EFF3108072B62068616A006941
:102800000870606A218D0130013960622185618D17
:1028100001396185DAF80010C908A1FB0612110A16
:1028200069430391039901390391039951B32168D5
:102830004A695207F6D50A6842F400720A600969CB
:102840000170606A218D01306062481E2085608DB4
:102850000138608562B62068616A00690870606A44
:10286000218D01306062481E2085618D01396185AE
:1028700001047FF463AF202084F83D00002084F839
:102880003E000CE000202021206384F83D1084F8F5
:102890003E00206C40F02000206462B60120002140
:1028A00084F83C10BEE600002DE9F04383B0994661
:1028B00016460F460446FFF740F994F83D102029CC
:1028C0000ED102210546C0F2100120460122192333
:1028D000009502F05FFD18B994F83C00012803D17F
:1028E000022003B0BDE8F0830121226884F83C1087
:1028F0001368DDE90B080A99DB0703D1136843F07D
:1029000001031360136823F400631360212284F829
:102910003D20402284F83E200022226461626085CE
:10292000608D394620850020CFF6FF70E06220469A
:1029300032464B46CDE9008502F099FC08B10120F2
:10294000CFE7208D18B300BF204641462A4602F04B
:10295000F5FD10BB616A2268084610F8013B13615F
:10296000238D6062581E2085678D013F67855769FA
:102970007F070AD5070408D048781061881C606278
:10298000981E2085618D013961850004DCD12046C7
:1029900041462A4602F0C8FC40B1206C0428CED142
:1029A0002068016841F400710160C8E7206801688F
:1029B00041F400710160202084F83D00002084F87B
:1029C0003E0084F83C008CE710B586B045F200412B
:1029D0000068C4F2000100228842049230D141F222
:1029E0001804C4F20204206840F008002060206847
:1029F00000F0080001900198C0200290122003907E
:102A00000320059001F5384002A9FEF7A3FF606896
:102A10000B2140F4001060606068002200F4001098
:102A2000019001981F2000F0D0F81F2000F0BDF8A1
:102A300020200C21002200F0C8F8202000F0B5F87A
:102A400006B010BD7047704728B3B0B504460068A3
:102A5000D4E901124CF6CC43036045F255530360B0
:102A600041608260FFF769F82168CA6892070DD05B
:102A7000054600BFFFF761F8401B2168282802D3F4
:102A8000C868800709D1C8688007F3D14AF6AA2030
:102A900008600020B0BD012070470320B0BD40F2A7
:102AA000040041F2A471C2F20000C2F200010078F9
:102AB0000A6810440860704780B542F20000C4F212
:102AC0000200016841F010010160032000F0A8F845
:102AD0000F2000F004F800F02AF8002080BDB0B507
:102AE00040F20402C2F2000240F200011278C2F287
:102AF00000014FF47A730968B3FBF2F20446B1FBAC
:102B0000F2F1084600F040FF0F2C4FF001050CD801
:102B100058B94FF0FF3021460022002500F055F84B
:102B200040F20800C2F2000004602846B0BD10B5B3
:102B300082B041F21800C4F202000168002241F0A4
:102B4000010101600168022401F001010191019974
:102B5000416841F0805141604068022100F080509E
:102B600000900098012000F030F8012000F01DF8DE
:102B70000420C4F20100016864F31A61016002B02C
:102B800010BD002810D400F01F01012202FA01F14B
:102B90001C2202EAD0004EF28012CEF200028150D6
:102BA000BFF34F8FBFF36F8F704700280CD400F036
:102BB0001F01012202FA01F11C2202EAD0004EF2AA
:102BC0000012CEF200028150704710B54EF60C5C38
:102BD000CEF2000CDCF80030C3F3022E8EF00704B6
:102BE000042C28BF0424BEF103034FF0FF3E0EFA6D
:102BF00004F438BF0023A14399400EFA03F39A432B
:102C0000114300F00F0200F160430901043A03F59B
:102C100064436244002848BF02F10C03197010BDE0
:102C20004EF60C51CEF200010A684FF6FF031A402F
:102C300060F30A2242F0806040F0FD700860704747
:102C400009F090FD2020C4F20E20012101607047A0
:102C500041F23370C2F2000001210170704710B5DB
:102C600040F21444C4F201042068C00358BF10BDF0
:102C7000FFF7EEFF4FF48030206010BD421E01468A
:102C8000072A4FF0000007D8DFE802F01C3748049D
:102C90004848480400F0CAB910293FD141F2000168
:102CA000C4F202014A680868C00138D5C2F3834003
:102CB0002DA3185CD2033DD440F60012C0F23D02B1
:102CC000504343E041F20000C4F20200016A40F2C6
:102CD00002320A40B2F5817F04BF4FF400407047D2
:102CE00001F44071B1F5407F1BD0B1F5007F16D1E2
:102CF000406A49F64041800719E080B500F083F949
:102D000041F20001C4F2020149680222C1F381319B
:102D100002EB4101B0FBF1F0BDE8804070470020BC
:102D20007047006846F636618003C0F2010101EA8F
:102D3000E07070474A6810A3C2F340429A5C41F6C3
:102D40000033C0F2B703B3FBF2F2504349684902C3
:102D500048BF70474AF6AB214000CAF6AA21A0FB43
:102D600001014808704700BF02030405060708096F
:102D70000A0B0C0D0E0F1010010200002DE9F0419E
:102D800082B00446007841F20406C007C4F202068D
:102D900048D0B0695FEAC00808D4B06940F08050FC
:102DA000B061B06900F080500190019847F20007CF
:102DB000C4F200073868C00510D4386840F4807049
:102DC0003860FEF7BAFE05463868C00506D4FEF73F
:102DD000B4FE401B6428F7D9032035E0F06910F4F5
:102DE000407012D0616801F4407188420DD0F069E2
:102DF00040F24042C4F24222012320F440711360A9
:102E00000023C0071360F16121D1F069616820F4EB
:102E100040700843B8F1000FF06103D4B06920F0AE
:102E20008050B0612068810705D53168A26821F41F
:102E3000404111433160C00605D53068616920F416
:102E4000800008433060002002B0BDE8F081FEF74A
:102E500074FE054641F28837F0698007D5D4FEF745
:102E60006CFE401BB8424FF00300F5D9ECE70000C0
:102E7000002800F081802DE9F04381B042F2000883
:102E8000C4F202080446D8F800000D4600F007001E
:102E900088420CD2D8F8000020F007002843C8F878
:102EA0000000D8F8000000F00700A8426FD12068A9
:102EB00041F204098107C4F2020917D5410705D57B
:102EC000D9F8001041F4E061C9F80010010705D5F8
:102ED000D9F8001041F46051C9F80010D9F8001079
:102EE000A26821F0F0011143C9F80010C00745D1D4
:102EF000D8F8000000F00700A8420CD9D8F800006C
:102F000020F007002843C8F80000D8F8000000F0BF
:102F10000700A8423BD12068410707D5D9F8001027
:102F2000E26821F4E0611143C9F80010000708D5F8
:102F3000D9F80000216920F4605040EAC100C9F8C6
:102F4000000000F073F8D9F800104DF66E52C1F38E
:102F50000311C0F60002515C40F2000220FA01F1B8
:102F600040F20800C2F200000068C2F200021160E4
:102F7000FFF7B5FD00200BE00120704760680228D4
:102F800009D0012827D159F8041C890307D401204E
:102F900001B0BDE8F08359F8041C8901F7D5D9F8D0
:102FA000001021F003010843C9F80000FEF7C5FD39
:102FB000064641F2883700BFD9F80000616800F08A
:102FC0000C00B0EB810F93D0FEF7B7FD801BB84229
:102FD000F2D90320DCE759F8041C8907D7D5DEE7CE
:102FE00040F2000041F20401C2F20000C4F202010A
:102FF000006809684DF67E52C1F30221C0F6000256
:10300000515CC840704740F2000041F20401C2F236
:103010000000C4F20201006809684DF67E52C1F357
:10302000C221C0F60002515CC840704741F2040161
:10303000C4F202010B6841F6003003F00C02042ACE
:10304000C0F2B70008BF7047082A0CD1C3F3834C05
:103050000CA212F80C20DB030AD440F60010C0F2D8
:103060003D005043704741F20020C0F27A007047A3
:10307000096808A3C1F34041595C5043B0FBF1F02B
:10308000704700BF02030405060708090A0B0C0D70
:103090000E0F10100102000058B32DE9F04182B06C
:1030A0000446007841F20006C007C4F2020629D0A7
:1030B000706800F00C0004281DD0706800F00C004F
:1030C000082802D17068C00315D46068002800F099
:1030D0004181B0F5A02F00F05581B0F5803F00F0A0
:1030E0005581306820F480303060306820F48020D2
:1030F0004FE1012070473068800303D560680028E5
:1031000000F0AD802078800719D5706810F00C0FA2
:1031100007D0706800F00C00082828D17068C00340
:1031200025D43068800703D52069012840F09780B6
:103130003068616920F0F80040EAC1003060207812
:1031400000074FD5A06940B30020C4F242200121FE
:10315000C0F88014FEF7F1FC054600BF706A8007D6
:103160002DD4FEF7EAFC401B0228F7D91FE12069A5
:10317000002840F20000C4F2422000F0A2800121A9
:103180000160FEF7DAFC054630688007D0D4FEF710
:10319000D4FC401B0228F7D909E10020C4F24220E8
:1031A0000021C0F88014FEF7C8FC0546706A80074D
:1031B00018D5FEF7C2FC401B0228F7D9F7E040F211
:1031C0000000C2F20000006844F6D351C1F262016F
:1031D000A0FB0101480A019000BF0198411E002890
:1031E0000191F9D12078400715D4E5698DB1706857
:1031F00000F00C00082843D1012D30D07068216AFE
:1032000000F480328A422AD1616A00F47010884248
:1032100025D10020CCE0F0695FEAC00808D4F0694D
:1032200040F08050F061F06900F08050009000980C
:1032300047F20007C4F200073868C00511D43868A7
:1032400040F480703860FEF778FC05463868C005A9
:1032500007D4FEF772FC401B6428F7D9A7E00120D1
:10326000A6E0E06800283DD0052854D0012856D0BB
:10327000306A20F001003062306A20F0040051E032
:103280000027C4F2422700203866FEF756FC022DC4
:1032900005460BD13068800140F18D80FEF74DFC72
:1032A000401B02284FF00300F4D981E03068800110
:1032B000AFD5FEF742FC401B02284FF00300F5D9C2
:1032C00076E000210160FEF738FC05463068800793
:1032D0007FF535AFFEF731FC401B02284FF00300AD
:1032E000F4D965E0306A20F001003062306A20F0E5
:1032F00004003062FEF721FC054641F2883700BF2A
:10330000306A80071DD5FEF718FC401BB8424FF00D
:103310000300F5D94CE0306A40F004003062306AB6
:1033200040F001003062FEF708FC054641F28837A4
:10333000306A800705D4FEF700FC401BB842F7D97D
:1033400035E0B8F1000F3FF550AFF06920F0805044
:10335000F0614AE7306820F480303060306820F453
:1033600080203060FEF7E9FB054600BF306880032F
:103370007FF5C8AEFEF7E1FB401B64284FF0030069
:10338000F4D915E0306840F480203060306840F4B3
:1033900080303060FEF7D1FB054600BF3068800307
:1033A0003FF5B0AEFEF7C9FB401B6428F6D90320F9
:1033B00002B0BDE8F081206AB0F5803F05D17168A8
:1033C000A26821F40031114371607168626A21F4CE
:1033D000741111430843706001203866FEF7ADFB9D
:1033E000044600BF306880013FF513AFFEF7A5FB30
:1033F000001B02284FF00300F4D9D9E798B1017CF3
:1034000001294FF002010FD0417446F62C41C4F25D
:1034100000010A6822F07F021A430A600121417408
:103420000021017400E00121084670472DE9F047B2
:10343000064600284FF0010000F0A7800C46002946
:1034400000F0A38030684168490700F1A6809246E9
:103450008169C26987698BB2B9B28B4202D1190402
:1034600092B202E0C3690A0499B211434BF2C53229
:10347000C9F2A212A1FB0223DA0A4FF4616302FB34
:10348000131348F689059FB26F437D0D65702D01BA
:10349000A5EB5757A3EB870345F28017C0F201074E
:1034A000B942A37030D344F20753CCF22E23A1FBD0
:1034B00003374AF6AB23C0F6AA23A2FB033505EB7C
:1034C0004503A2EBC3022270026A406A4FEA174822
:1034D00080B240EA0240471A98BF4FF0FF37421CC3
:1034E0004AF68062CFF6FE7208FB021908BF074653
:1034F0003046494607F088FD00284ED1781C46D05A
:1035000007EB0901304645E02270BAF1000F3BD0CD
:1035100021784FF0CD0CA1F10A07FEB206FB0CF6A4
:103520006278F50ACBB205EB8505A7EB45070125C7
:10353000092BA2F10A03A07805EBD62688BF47EA3B
:103540000611DFB207FB0CF7FE0A2170D1B206EBC1
:103550008606A3EB460305EBD727092988BF43EA74
:1035600007126270A0F10A02D3B203FB0CF3DF0A68
:10357000C1B207EB8707A2EB470205EBD32309296A
:1035800088BF42EA0310A0700020BDE8F0873046F3
:103590004FF0FF3107F024FD10B10120BDE8F087A6
:1035A0003046414607F04AFCAFE7B0B5E0B3044609
:1035B000407C20B900202074204600F040F8022012
:1035C0006074204600F0C0F850BB204607F0A0FC15
:1035D00030BB2168A0684B6846F62C42C4F200025A
:1035E00023F007034B6018B1536823F001035360C5
:1035F000136823F46073184310606068421C06D19E
:1036000001200125FFF73AFB58B121680138C0F3CA
:10361000034280B28A60C860204607F091FC30B156
:1036200001250420607400E001252846B0BD40F269
:1036300001100025A4F80D000120E573F2E70068F1
:1036400042F60001C4F20001884218BF704780B5FD
:1036500082B0FFF7F7FA41F21C00C4F202000168E1
:1036600041F0006101600068012100F000600190FC
:10367000019840F23C40C4F24220016002B0BDE833
:1036800080407047B0B5044600284FF0010018BFD5
:10369000002900D1B0BD207C01284FF00200F9D0F4
:1036A000012323746074087802B3020902EB8202DA
:1036B00000F00F0000EB4200C0B24FF461625043D3
:1036C0004A788978130903EB830302F00F0202EBB7
:1036D0004302D2B2C2EB021200EB82000A0902EBF3
:1036E000820201F00F0101EB420108E04FF4616238
:1036F00050434A788978C2EB021200EB8200C9B2CB
:1037000045182046294607F07FFC10B1012004210E
:1037100016E02068416821F005014160016A406AB5
:1037200080B240EA0140A84208D200F5803000F59E
:10373000A341204607F054FC0028E7D100200121D6
:10374000617400212174B0BDB0B1B0B50446006809
:10375000416821F008014160FEF7EFF9054600BF1E
:1037600020684068000709D4FEF7E7F9401BB0F570
:103770007A7FF5D90320B0BD012070470020B0BD8D
:1037800040F28E00C2F20000018801318AB2652A3F
:10379000018008D341F2D461C2F20001012281F814
:1037A00050200021018040F66C20C2F200004168E8
:1037B0000131B1F57A7F416003D9012141700021C7
:1037C000416070B540F29401C2F2000108880130F6
:1037D00082B2088040F66020B2F57A7FC2F2000023
:1037E00050D340F67822C2F20002536800251C69CB
:1037F0000D8041F27871C2F20001651C8C681D6178
:10380000257815B19D6801359D604D7B40F28C0C8B
:10381000C2F2000C55B30D6812692D78032D04D146
:1038200055682DB1013D556002E0156901351561FE
:103830005C69BCF8005001345C612DB9936940F2B9
:103840008404C2F2000423606B1CB2F91E509CB2C7
:10385000AC42ACF800300CDB40F28403C2F200034F
:1038600092691B689A4204BF01220A740021ACF8D5
:103870000010B0F90010012904DB01880139018032
:10388000018831B140F28801C2F20001097831B1FA
:1038900019E040F28801C2F2000100220A7000889B
:1038A00088B940F65E20C2F20000B0F90010652928
:1038B00003DB01880139018005E040F28800C2F293
:1038C00000000121017040F29000C2F20000018866
:1038D00001318AB2962A018007D341F23171C2F2D6
:1038E000000101220A700021018040F28A00C2F228
:1038F0000000018801318AB2B2F5FA7F018007D950
:1039000040F65C21C2F2000101220A700021018010
:1039100040F24810C2F20000416961B1013106294C
:10392000416108D3416821B1012282700022C0E9BF
:10393000012100214161416A41B101310329416204
:1039400004D3012180F828100021416241F2A074C3
:10395000C2F2000440F292052178C2F200052878F4
:1039600009B101302870C0B2032838BF70BD40F6DD
:103970000040C4F201004FF4807100220026FEF7DF
:10398000D7F826702E7070BD411E0020B0EB116F6D
:103990001CBF012070474EF21002CEF200025160AF
:1039A0004EF62351CEF20001F0230B7007219060F8
:1039B00011607047FFF7E4BE90F83C20012A4FF0F9
:1039C00002023FD010B580F83D200268D2F804E032
:1039D000D2F808C00C682EF07003234340F6FF3481
:1039E000C4F20004A24253600DDCB2F1804F1CD03F
:1039F00040F20043C4F200039A4216D040F600039E
:103A0000C4F200030FE040F60043C4F200039A4200
:103A10000BD043F20043C4F201039A4205D042F6B0
:103A20000043C4F201039A4204D149682CF0800398
:103A3000194391600121002280F83D1080F83C205C
:103A4000BDE810401046704710B50446022084F8C7
:103A50003D00206841F21112016A114208D1016A49
:103A600040F24442114203D1016821F0010101609A
:103A7000204600F045F80021002084F8461084F824
:103A80003E1084F83F1084F8401084F8411084F808
:103A9000421084F8431084F8441084F8451084F8E8
:103AA0003D1084F83C1010BD40B310B5044690F8AA
:103AB0003D0028B9002084F83C00204600F031F891
:103AC000022084F83D002068211D07F073FE0120CC
:103AD00084F8460084F83E0084F83F0084F84000F3
:103AE00084F8410084F8420084F8430084F84400DC
:103AF00084F8450084F83D00002010BD0120704787
:103B0000006840F60001C4F20001884218BF704707
:103B100041F21C00C4F20200016821F004010160BE
:103B20007047006840F60001C4F20001884218BFE7
:103B3000704781B041F21C00C4F20200016841F0FC
:103B400004010160006800F004000090009801B0DA
:103B5000704790F83C20012A4FF0020200F0C38029
:103B600080B580F83D20D0F800C04FF67772DCF8C1
:103B7000083023EA0202CCF808200B684F2B28DC1F
:103B80001F2B44DD202B45D0302B43D0402B40F061
:103B9000AC80D1F804E0C968DCF82030DCF82020E3
:103BA00022F00102CCF82020DCF8182022F0F002EC
:103BB00042EA011123F00A0242EA0E02CCF8181080
:103BC000CCF82020DCF8081041F0470121F030014A
:103BD0007EE06F2B26DDB3F5005F47D0B3F5805F45
:103BE00078D0702B40F08180D1E901E3C968DCF81E
:103BF000082043EA0E0322F47F4243EA01211143E5
:103C0000CCF80810DCF8081041F0770160E00BB147
:103C1000102B6AD1DCF8081021F07001194341F033
:103C2000070155E0502B34D0602B5ED1D1F804E071
:103C3000C968DCF82030DCF8202022F01002CCF833
:103C40002020DCF8182022F4704242EA013123F0EF
:103C5000A00242EA0E12CCF81810CCF82020DCF8B2
:103C6000081041F0670121F0100131E0D1E901E3D2
:103C7000C968DCF8082043EA0E0322F47F4243EAD5
:103C800001211143CCF80810DCF8081041F4804100
:103C90001EE0D1F804E0C968DCF82030DCF8202010
:103CA00022F00102CCF82020DCF8182022F0F002EB
:103CB00042EA011123F00A0242EA0E02CCF818107F
:103CC000CCF82020DCF8081041F0570121F0200149
:103CD000CCF808100022012180F83D10002180F866
:103CE0003C10BDE88040104670470122F3E7000019
:103CF00010B5044690F83C00012804BF022010BD16
:103D00004FEAB2020120032A84F83C0013D8DFE80E
:103D100002F002060A0E206807F0B2FD0AE02068F1
:103D200007F0E3FD06E0206807F018FE02E02068D7
:103D300007F04DFE0020002184F83C1010BD40B378
:103D400010B5044690F83D0028B9002084F83C00E6
:103D5000204600F020F8022084F83D002068211D54
:103D600007F028FD012084F8460084F83E0084F81E
:103D70003F0084F8400084F8410084F8420084F851
:103D8000430084F8440084F8450084F83D00002096
:103D900010BD01207047704741B108290ED0042999
:103DA00014BF00F1410200F13F0209E090F83E200B
:103DB000012A12D1022280F83E2012E000F14002D6
:103DC0001278012A09D10222082908D0042914BF37
:103DD00080F8412080F83F2003E00120704780F800
:103DE0004020006801F01F010122036A02FA01F17C
:103DF00023EA01020262026A114340F6FF32C4F272
:103E00000002904201620DDCB0F1804F24D040F2FC
:103E10000041C4F2000188421ED040F60001C4F205
:103E2000000117E040F60041C4F20001884213D0BF
:103E300043F20042C4F2010242F600419042C4F251
:103E4000010101D088420CD1436C904243F40043FD
:103E5000436401D0884204D1816801F0070106293A
:103E600003D0016841F001010160002070477047F4
:103E7000B8B110B50446242084F841002068C16818
:103E800021F40051C160204600F0C7F900206064B1
:103E900084F8410084F842002063606384F84000A5
:103EA00010BD01207047006844F20041C4F20001D7
:103EB000884214D043F60001C4F20101884218BFC1
:103EC000704740F2481CC2F2000CDCF810000CF104
:103ED0000101431C41F2A830C2F200000CE040F2A4
:103EE000905CC2F2000CDCF810000CF10101431CE4
:103EF00041F2F030C2F200000122CCF8103000F0A4
:103F00003EBC0000B0B582B0044600680168C368DA
:103F1000426901F02F05202D03F0200506D12DB1B7
:103F2000204602B0BDE8B04007F056BE5FEA017C13
:103F30001EBF02F0010E03F4907212EB0E026ED15E
:103F4000226BCD0643D5012A41D113F010023ED099
:103F50000021019101680191416801910199406935
:103F6000400600F1B980A08DE18DE28D002A00F0BD
:103F70001581884200F01281401A00BF216851E883
:103F8000031F226821F4907142E80313002BF5D13E
:103F9000216851E8051F226821F0010142E805135C
:103FA000002BF5D1202184F842100021216300BFAD
:103FB000216851E8031F226821F0100142E8031331
:103FC000002BF5D1022281B220466263CAE00A06C4
:103FD00040F1CD8013F0800200F0C98094F84110C8
:103FE000212940F0DB80A168B1F5805F03D1216910
:103FF000002900F0DB80216A4A1C226209784160B6
:10400000E18C01390A04E18440F0C880C16821F0E4
:104010008001C160C16841F04001C160BEE0CA07D3
:1040200018BF13F4807203D0626C42F00102626424
:104030004A0706D5BEF1000F03D0626C42F00202BF
:1040400062648A0706D5BEF1000F03D0626C42F0AD
:1040500004026264BCF1000F06D55EEA050203D0DB
:10406000626C42F008026264626C002A00F0968082
:10407000890604D51DB1204607F0AEFD20684069D1
:10408000616C00F0400001F00801401800F08180F0
:10409000204607F079FD20684069400640F18080A5
:1040A000206850E8050F216820F0400041E8050233
:1040B000002AF5D1E06B002872D04BF63D21C0F606
:1040C00000014163FDF779F8002867D0E06B416B90
:1040D00002B0BDE8B0400847E06B016849688AB2A9
:1040E000002A5BD0A38D9A4258D2E18580692028AE
:1040F00031D000BF206850E8030F216820F48070A1
:1041000041E80302002AF5D1206850E8050F216834
:1041100020F0010041E80502002AF5D1206850E8AE
:10412000050F216820F0400041E80502002AF5D182
:10413000202084F842000020206300BF206850E85F
:10414000030F216820F0100041E80302002AF5D196
:10415000E06BFDF712F802206063A08DE18D401A3C
:1041600081B2204602B0BDE8B040FFF780BE4906EC
:1041700014D513F0400111D0C16821F04001C16095
:104180002021204684F8411002B0BDE8B04000F084
:1041900039BC2046FFF787FE0020606402B0B0BD46
:1041A000204602B0BDE8B040FFF77DBE216A31F87D
:1041B000022B6FF35F224260216221E758B310B5F2
:1041C000044690F8410028B9002084F840002046B9
:1041D00000F0C8F8242084F841002068C16821F468
:1041E0000051C160204607F056FD2068016921F4A6
:1041F00090410161416921F02A014161C16841F4A6
:104200000051C16000202021606484F8411084F8CE
:104210004210606310BD0120704710B5044600686D
:1042200044F6FF31C4F2000188422CDD43F6000160
:10423000C4F2010188424CD045F20001C4F20001F1
:10424000884260D044F60041C4F20001884218BFA1
:1042500010BD41F21C00C4F20200016821F40021EB
:10426000016040F60000C4F2010000F500604FF468
:104270004061FDF75FFAE06BFDF72CF8A06BFDF7EE
:1042800029F8342069E044F20041C4F20001884278
:104290004DD044F60001C4F20001884261D141F2E0
:1042A0001C00C4F20200016821F48021016040F684
:1042B0000000C4F2010000F580604FF44061FDF79A
:1042C00039FAE06BFDF706F8A06BFDF703F827203D
:1042D00043E041F21C00C4F2020050F8041C21F437
:1042E000804140F8041C40F60000C4F201004FF485
:1042F000C061FDF71FFAE06BFCF7ECFFA06BFCF769
:10430000E9FF252029E041F21C00C4F20200016807
:1043100021F48011016040F60000C4F2010000F5B4
:1043200000604FF48051FDF705FA352015E041F2A9
:104330001C00C4F20200016821F40031016040F663
:104340000000C4F201000C21FDF7F4F9E06BFCF76A
:10435000C1FFA06BFCF7BEFF2620BDE81040FEF7B2
:1043600010BC10BD2DE9F04186B00446006844F64B
:10437000FF31C4F2000188424FF00001CDE9041181
:10438000CDE902117EDD43F60001C4F2010188424D
:1043900000F0F18045F20001C4F20001884200F013
:1043A000548144F60041C4F20001884240F0E481A7
:1043B00041F21800C4F20200416802AE41F400214B
:1043C0004160416840F2304801F4002101910199B7
:1043D0000168C4F2020841F0100101600068314632
:1043E00000F01000019001984FF4806002900220CC
:1043F00003900320059040F60000C4F2010000F590
:1044000000652846FDF7A6FA4FF4006002900120EF
:1044100000270490284631460397FDF79BFA41F2A6
:10442000CC05C2F2000520204FF480518026C5E95A
:1044300006012846C5E90087C5E90276C5E9047783
:10444000FDF7C1F808B1FCF747F9E5636C6241F28A
:10445000101508F12800C2F20005102185E883003C
:104460002846C5E90367C5E90577EF61FDF7ABF8B5
:1044700008B1FCF731F9A5636C62342009210022F0
:10448000342474E144F20041C4F20001884200F097
:10449000078144F60001C4F20001884240F06C81BB
:1044A00041F21800C4F20200416802AE41F48021DA
:1044B0004160416840F21C0801F48021019101999A
:1044C0000168C4F2020841F0080101600068314649
:1044D00000F00800019001984FF4806002900220E3
:1044E00003900320059040F60000C4F2010000F59F
:1044F00080652846FDF72EFA4FF4006002900120F7
:1045000000270490284631460397FDF723FA41F22D
:10451000642508F11400C2F20005802620214FF422
:104520008052C5E900072846C5E90276C5E9047747
:10453000C5E90612FDF747F808B1FCF7CDF8E563C9
:104540006C6241F2A825C2F200051020C5E9008086
:104550002846C5E90276C5E90477C5E90677FDF77F
:1045600032F808B1FCF7B8F8A5636C62272008217F
:1045700000222724FBE041F21800C4F20200016887
:1045800040F6000541F4804101600168C4F2010574
:1045900001F4804101910199016802AE41F00401EA
:1045A0000160006840F21C0800F0040001900198CE
:1045B0004FF40070029002200390032005902846DB
:1045C0003146C4F20208FDF7C5F94FF4806002904D
:1045D000012000270490284631460397FDF7BAF9D9
:1045E00041F2541508F13C00C2F20005802620215A
:1045F0004FF48052C5E900072846C5E90276C5E9AF
:104600000477C5E90612FCF7DEFF08B1FCF764F891
:10461000E5636C6241F2981508F12800C2F20005CA
:10462000102185E883002846C5E90367C5E90577B9
:10463000EF61FCF7C8FF08B1FCF74EF8A5636C62A8
:10464000252008210022252491E041F21800C4F21F
:104650000200416841F480114160416801F4801119
:1046600001910199016841F010010160006802A9FF
:1046700000F01000019001984FF480500290122039
:1046800003900320059040F60000C4F2010000F5FD
:104690000060FDF75FF9352004210022352466E033
:1046A00041F21800C4F20200416840F6000541F4EE
:1046B000003141604168C4F2010501F4003101910B
:1046C0000199016802AE41F004010160006840F206
:1046D0001C0800F0040001900198042002900220C0
:1046E00003900320059028463146C4F20208FDF7E6
:1046F00031F9082002900120002704902846314615
:104700000397FDF727F941F2DC1508F15000C2F2DA
:104710000005802620214FF48052C5E90007284675
:10472000C5E90276C5E90477C5E90612FCF74BFF37
:1047300008B1FBF7D1FFE5636C6241F2202508F177
:104740006400C2F20005102185E883002846C5E90F
:104750000367C5E90577EF61FCF735FF08B1FBF7A3
:10476000BBFFA5636C6226200A2100222624FEF7E7
:104770002CFA2046FEF719FA06B0BDE8F08110B514
:1047800090F84230202B08D14FF0010431B12AB10A
:104790000024046307F0C8FA00E00224204610BD9C
:1047A00090F84230202B1CD14FF00103D1B1CAB197
:1047B00000230363816222218285C285436480F8DD
:1047C00042100169006819B1C16841F48071C1608B
:1047D000416941F001014161C16841F02001C160BE
:1047E00000E0022318467047016843F60000C4F257
:1047F000010081421CD140F24810C2F200008278D0
:10480000B2B941F21052C2F200021178012301291B
:10481000436143D141687F2954D890F801C04B1CB3
:104820000A447F29436082F808C036D1802149E0DC
:1048300045F20000C4F2000081424AD044F2004038
:10484000C4F20000814218BF704740F29050C2F29B
:104850000000416841F2D46C01221729C2F2000C19
:10486000426105D843780CEB0102013141601372BB
:104870004B1E0CEB0302127AFF2A0CD15BB18B1E8C
:1048800009D00CEB0302127AFF2A04D101EB0C02CF
:104890005279FF2A16D0182914D2704741F2D462F7
:1048A000C2F2000211780129F7D14168172909D80D
:1048B00090F801C04B1C0A441729436082F808C0D5
:1048C000EBD118210022012342618370C0E901214C
:1048D000704740F63020C2F200000121817070471D
:1048E000704700002DE9F041044690F8410020286F
:1048F0001CBF0220BDE8F0810D4600294FF00100E9
:1049000041D01746002A3ED00020606421209846FE
:1049100084F84100FDF711F9A784E784A1680746F0
:10492000B1F5805F01D1206910B12E46002501E06C
:10493000002600BFE08CC0B1204680213A464346A5
:1049400007F03EFAC0B92EB116F8010B2168486095
:1049500007E000BF35F8020B21686FF35F20486065
:104960000026E08C0138E084E4E7204640213A4606
:10497000434607F025FA10B10320BDE8F08120205E
:1049800084F841000020BDE8F081000070B50446C5
:1049900090F8410020281CBF022070BD4FF001009C
:1049A00079B313466AB34FF0000C21202162A3842F
:1049B000E384C4F844C084F841002268A06B4BF63D
:1049C000453E4BF683354BF64926C0F6000EC0F641
:1049D0000005C0F600060432C0E90AE5C0E90C6C27
:1049E000FCF73FFE20686FF040010160206850E84E
:1049F000050F216840F0800041E80502002AF5D14A
:104A0000002070BD006844F6FF31C4F20001884206
:104A10001BDD44F60041C4F20001884226D045F275
:104A20000001C4F20001884225D043F60001C4F21F
:104A30000101884218BF704740F24810C2F20000DE
:104A4000012180F829104162704744F20041C4F20C
:104A50000001884214D044F60001C4F200018842EB
:104A600017D140F6D810C2F200000DE040F6042045
:104A7000C2F2000008E040F63020C2F2000003E07D
:104A800040F29050C2F200000121416240F2011157
:104A90000185704770470000FEE7052A38BF704760
:104AA00042F21072904211D3801A82B2120940F27F
:104AB00047335A434DF6F0034FEAD24CCFF6FF731B
:104AC0000CFB0300312303EBD24C01E04FF0300C20
:104AD000B0B582B2B2F57A7F4FF618440DD3A0F587
:104AE0007A7083B2DB0842F2C5025A43130D03FB0E
:104AF0000400312303EB125E01E04FF0300E82B26E
:104B0000642A0ED3643882B2920841F27B435A433E
:104B1000530C04F5617403FB0400312303EB524290
:104B200000E0302283B20A2B0CD30A3883B24CF651
:104B3000CD446343DC0CF62504FB0500312404EB73
:104B4000D34300E03023303081F804C081F803E023
:104B50008A704B700870BDE8B040704741F2EC209D
:104B6000C2F20000FDF724B841F2EC20C2F20000CE
:104B7000FDF7C5B810B581B000210091406A40F240
:104B80000001C2F2000190F83DC009684BF2895261
:104B9000C908C1F2F842A1FB0212110A23225143B3
:104BA000009100BF009939B1009901390091016865
:104BB00009688905F6D403E0016C41F02001016425
:104BC000446B0CB10021A162816B09B100228A62A1
:104BD00002684FF0000E136823F480631360A0F89E
:104BE0002AE00CB1C4F834E009B100234B6311682A
:104BF00021F00101116090F83D1060290BD12021B6
:104C000080F83D10002180F83E10016401B0BDE83D
:104C10001040FCF7CBBF0CF0280128290DD11168FA
:104C200041F001011160116841F4806111600021BF
:104C30000163282180F83D1005E0202180F83D1017
:104C4000002180F83E1001B0BDE81040FDF752BBD6
:104C500010B5044690F83D1090F83E00B0F11002F7
:104C600018BF0122403818BF0120024208BF222984
:104C70000AD001F0280028280CD100202063282029
:104C800084F83D00206813E02068026822F4006286
:104C9000026000E020684268120507D4602905D050
:104CA000202184F83D10002184F83E10002121636A
:104CB000416809051AD494F83D1060293CD120219F
:104CC00084F83D10002121644169490606D5006938
:104CD000616A0870616A206801316162016821F0CF
:104CE000010101602046FCF761FF45E0416821F4C5
:104CF00000614160606B90F82110012929D1A06BFF
:104D000044F67531C0F600014163FCF756FA98B3DA
:104D100020684169490606D50069616A0870616AC0
:104D2000206801316162016821F0010101602020E9
:104D300084F83D00A06B1DE04169490605D5006976
:104D4000616A0870606A013060622046FDF7D2FA3D
:104D500012E044F67531C0F600014163FCF72DFA0C
:104D600050B12168606B0A6822F001020A602021BC
:104D700084F83D10416B8847206C000704D0206800
:104D8000416821F4E061416094F83D00216C4907DD
:104D900058BF10BD28280FD10020CFF6FF70E06269
:104DA00000212020216384F83D00204684F83E1035
:104DB000BDE81040FDF711BC10BDC16A428D042A48
:104DC00006D10168426A4B6823F480634B601EE0A1
:104DD000428D032A0FD102680229536823F48063AD
:104DE000536005D0042903D0116821F4806111605B
:104DF0001169426A0CE0428D022A06D103290FDCB8
:104E0000012911D0022914D018E00168426A096909
:104E10001170416A01314162418D0139418570470C
:104E2000042906D0102909D101680A6822F4806299
:104E300008E001680A6842F4806203E001680A68D9
:104E400042F400720A600969426A1170416A02689C
:104E50004B1C4362438D013B438512694A70416A92
:104E6000026801314162418D01394185516821F467
:104E700040715160202180F83D1090F83E200021C3
:104E8000402A80F83E1002D10163FDF7A9BB122130
:104E90000163FDF7A3BB000081B090F83D1022290B
:104EA00055D1418D04290DD30168426A09691170F9
:104EB000416A01314162418D01394185418D0329AA
:104EC00040D044E0C26A01293CD8022A3AD00021ED
:104ED000009140F20001C2F2000109684BF28952D0
:104EE000C908C1F2F842A1FB0212110A01EB8101CB
:104EF000009100BF009901390091009949B3016800
:104F00000A689205F6D40A6822F480620A604A6848
:104F100022F4E0624A600969426A1170416A013113
:104F20004162418D01394185202180F83D1090F882
:104F30003E200021402A80F83E1025D1016301B0B7
:104F4000FDF74EBB0068416821F48061416001B00B
:104F50007047016C41F0200101640168426A4B68AE
:104F600023F4E0634B6009691170416A01314162C9
:104F7000418D01394185202180F83D10002180F8C4
:104F80003E1001B0FDF7B6B91221016301B0FDF783
:104F900025BBC16A90F83D20212A18BF7047428D79
:104FA0004AB1416A026811F8013B13614162418DC7
:104FB00001394185704711F5803F18BF082917D185
:104FC00001684A6822F4E0624A600A6842F40072AA
:104FD0000A6000212022016380F83D2090F83E20E5
:104FE00080F83E10402A08BFFDF7FBBAFDF7F7BA7C
:104FF0002029E5D001684A6822F4E0624A60112164
:105000000163002180F83E10202180F83D10FDF75B
:10501000E6BA90F83D1090F83EC0C26A038DF3B92D
:1050200021291CD112F5803F18BF082A31D101680F
:105030004A6822F4E0624A600A6842F400720A6038
:1050400000212022016380F83D2090F83E2080F866
:105050003E10402A08BFFDF7C4BAFDF7C0BA2129A7
:1050600005D0BCF1400F08BF222900D07047418D08
:1050700001B390F83E10402908BF00F021B8416A02
:10508000026811F8013B13614162418D013941858C
:105090007047202ACBD001684A6822F4E0624A6057
:1050A00011210163002180F83E10202180F83D107D
:1050B000FDF795BA0068416821F48061416070474E
:1050C00090F83D10026D3AB1026D012A0ED10168CF
:1050D000826CD2B20A6118E0C26C816C012A10D1D4
:1050E0000268C9B21161016D023110E0026D022A3D
:1050F0000FD1222914D101680A6842F480720A6033
:1051000003E00268C1F307211161016D01310165FE
:10511000704700684169090644BF0021016170477A
:10512000428D5AB1212909D1416A026811F8013B27
:1051300013614162418D013941857047428D002ADA
:10514000EDD1212918BF704701684A6822F4E06256
:105150004A600A6842F400720A600021202201635A
:1051600080F83D2080F83E10FDF73BBA2DE9F0476E
:1051700082B0044600689A460B9D0A9E03689146D9
:1051800043F48062026002680F4642F4807101605D
:1051900020464FF0011100223346009500F0FAF846
:1051A00040B120680068C00544BF4FF4007020641F
:1051B00003203CE040F202082068C0F2010807F03A
:1051C000FE0707612046414632462B4600F03AF979
:1051D00060BB0020019020682A46416901918069E6
:1051E000314601900198204600F0A8F9B0B9206836
:1051F000BAF1010F09D04FEA192101612046314669
:105200002A4600F09BF948B920685FFA89F10161EC
:10521000204631462A4600F091F958B1206C042806
:1052200004D12068016841F400710160012002B0DE
:10523000BDE8F087206800220168334641F48071A0
:10524000016020464FF00111009500F0A3F80028FE
:10525000A7D147F0010C27682046414632462B462D
:10526000C7F810C002B0BDE8F04700F0EBB82DE978
:10527000F04383B0044600680D4601680A9F0B9E08
:1052800041F4807199469046016020464FF001112B
:1052900000223B46009600F07DF840B1206800688F
:1052A000C00544BF4FF40070206403200DE0206867
:1052B00005F0FE0101610221C0F2010120463A46DB
:1052C000334600F0BFF818B1012003B0BDE8F08309
:1052D0000020029020683246416902918069394677
:1052E00002900298204600F029F940B1206C042871
:1052F000EAD12068016841F400710160E4E72068A8
:10530000B9F1010F0AD04FEA182101612046394650
:10531000324600F013F90028E8D120685FFA88F1DE
:1053200001610020D1E70000F0B581B003680446B8
:10533000184650F8147F15467A0714D40E464F1CB1
:105340005969490511D44FB1FCF7F7FB236816B131
:10535000401BB04202D9586940070BD5184650F897
:10536000141F4907ECD5002012E06FF48061016042
:10537000042000E0202000212022216384F83D2029
:1053800084F83E10226C10432064012084F83C1005
:1053900001B0F0BD2DE9F04780460068154601F4E4
:1053A0007F071822B7F5803F08BF142280588CB2BF
:1053B0002040001BB0FA80F04009A8422CD1DDF853
:1053C00020901E4603F1010ABAF1000F15D0FCF738
:1053D000B4FB1EB1A0EB0900B0420ED9D8F8000012
:1053E0001821B7F5803F08BF142140582040001B0A
:1053F000B0FA80F04009A84211D0D8F80000182176
:10540000B7F5803F08BF142140582040001BB0FA78
:1054100080F04009A842D7D00020BDE8F0870020E6
:105420002021C8F8300088F83D1088F83E00D8F8F0
:10543000401041F02001C8F8401088F83C000120DD
:10544000BDE8F0872DE9F041984603680446184608
:1054500050F8146F8FB206EA0701B94218D0164609
:10546000551C00BF5969490515D45DB1FCF765FBB2
:1054700023681EB1A0EB0800B04203D95869384038
:10548000B84211D1184650F8141F3940B942E9D139
:105490000020BDE8F081196841F4007119606FF4D3
:1054A00080610160042000E020200021202221638F
:1054B00084F83D2084F83E10226C104320640120C3
:1054C00084F83C10BDE8F08170B50368044653F8D9
:1054D000140F400613D415460E4600BF1868C006C8
:1054E0000FD4FCF72AFB236816B1401BB04202D947
:1054F0005869400611D553F8140F4006EED5002028
:1055000070BD6FF01000186000202021206384F827
:105510003D1084F83E00206C09E00020202120632B
:1055200084F83D1084F83E00206C40F02000206498
:10553000002084F83C00012070BD0000F0B581B06F
:1055400003680446184650F8147F15463A0614D4EA
:105550000E464F1C5969490511D44FB1FCF7EDFABD
:10556000236816B1401BB04202D9586900060BD51A
:10557000184650F8141F0906ECD5002012E06FF40D
:1055800080610160042000E02020002120222163AE
:1055900084F83D2084F83E10226C104320640120E2
:1055A00084F83C1001B0F0BD2DE9F04F81B040F619
:1055B0007820C2F200001421018041F23871C2F259
:1055C000000140220A8040F22412C2F20002242389
:1055D000138041F2A873C2F2000328271F8041F212
:1055E000A067C2F20007C0E90113C0E9032741F236
:1055F000787041F2A17141F2367241F23473C2F215
:105600000000C2F20001C2F20002C2F20003C0E9CF
:105610000023816041F24C3042F624083426C2F265
:105620000000002100221B23C4F201083E804FF03D
:10563000000BFDF7E3FE43F2000AC4F2000A0AF58C
:10564000584528464FF4807101224FF00109FCF7BC
:105650006FFA28464FF400610122FCF769FA0AF557
:105660005C44204608210122FCF762FA204604210E
:1056700001220427FCF75CFA28464FF4004101227E
:10568000FCF756FA20464FF480510122FCF750FAFD
:1056900020464FF400510122FCF74AFA20464FF40D
:1056A00080410122FCF744FA20464FF400410122D8
:1056B000FCF73EFA0AF56044204640210122FCF73F
:1056C00037FA204680210122FCF732FA20464FF4B7
:1056D00080710122FCF72CFA20464FF40071012260
:1056E000FCF726FA41F22005C2F200052846FBF736
:1056F0008DF841F25004C2F200042046FBF786F810
:1057000041F26030C2F200000C21FEF745FB40F68A
:105710000400C4F200008169022241F4C0418161A9
:10572000016841F4804101604AF6AA2040F210115C
:10573000CAF80000C2F20001284681F810B04FF00C
:10574000020AFBF769FC2046FBF704FC41F23375C3
:10575000C2F2000540F64D2085F800B0C8F804B04C
:10576000C8F8000020686FF001060660416841F04B
:1057700040014160297829B900F0D1F82878002843
:10578000FAD0206840F6A51185F800B0C8F80410DA
:1057900040F6FF71C8F800100660416841F24C38CD
:1057A00041F04001416041F2800041F2EC21C2F23F
:1057B000000840F67823C2F20000C2F20001C2F2F3
:1057C0000003424605F0CCFC40F60422C2F200027F
:1057D00040F6D811177040F68C67C2F2000103231F
:1057E000C2F2000740F248100B7041F210553B70B6
:1057F00040F27413C2F2000040F2905441F2D466B9
:10580000C2F20005C2F2000340F2BC57C2F200042B
:10581000C2F2000685F800906860C5F88C31C2F2CB
:1058200000073F2580F8009086F800A07460F764B8
:105830004FF48276C3F80454C7F8045480F82890D3
:10584000C0F8249081F82890C1F8249040F63025C3
:10585000C0F804B080F802B0C0F814B0411C41F2A6
:10586000A830A3F80160A7F8016040F2FF1682F8A3
:105870002890C2F82490C2F20005C2F20000012272
:1058800084F800A083F8009087F800A0C3F80864AB
:10589000C7F8086484F82890C4F8249085F8289004
:1058A000C5F82490FEF76BFF41F2F030611CC2F2A4
:1058B00000000122C4F804B084F802B0C4F814B0A7
:1058C000FEF75DFF40F65E20C2F200004FF4FA6181
:1058D000018040F66020C2F200003C2101800520DA
:1058E000287041F2C840C2F20000294606F080FF4D
:1058F00040F66C21C2F2000108704046FDF724FF1B
:105900004FF4FA7001B0BDE8F04FFBF7F9BED0F8E4
:105910000C14D0F81004081A18BFFF20704710B5F7
:1059200040F60044C4F2010420464FF40071012205
:10593000FCF7FEF83220FBF7E3FE20464FF48071BF
:105940000122FCF7F5F8C820FBF7DAFE20464FF4F9
:1059500080710022FCF7ECF83220FBF7D1FE2046E4
:105960004FF400710022FCF7E3F83220BDE810404C
:10597000FBF7C6BE40F2B802C2F20002106008781F
:1059800040F2B403421EC2F20003042A196088BF29
:10599000704744F20041C4F2000101F57440DFE8B1
:1059A00002F00D0305080B00084607E001F58060D2
:1059B00004E001F5006001E001F5406040F2B00153
:1059C000C2F200010860704780B540F29C0CC2F240
:1059D000000CDCF80020012A01DB0A6A9AB3B1F955
:1059E000183000695BB140F2990EC2F2000E9EF8C9
:1059F000002022B9012283858EF8002004E0B0F94E
:105A00002C209342B8BF8385B0F92E209342C8BFA3
:105A1000C385B1F91C305BB140F2980EC2F2000EA2
:105A20009EF8002022B9012203868EF8002004E0AF
:105A3000B0F930209342B8BF0386B0F932209342C8
:105A4000C8BF438603E000690022C0E90B224A7BFD
:105A50000AB1CA8A8283086ACCF8000080BDF0B51A
:105A600081B0144640F2A102C2F20002C968137864
:105A700091F8221040F2A007C2F2000763B19942E8
:105A80000BD040F2A8030022C2F200033A701A7051
:105A900040F2A902C2F20002117040F2A406C2F262
:105AA00000063268012A14DB226A92B940F2A80E7D
:105AB000C2F2000E9EF800304FF0000C87F800C0D4
:105AC00023B940F2A902C2F200021170591C8EF8EB
:105AD00000103978E9BB40F2A902C2F2000292F943
