:020000040800F2
:10000000B0230020CD010008CD700008815B0008FE
:10001000C97000082507000811CA00080000000088
:1000200000000000000000000000000001C3000804
:1000300021080008000000000182000875C30008C4
:10004000E701000875750008E7010008E7010008EE
:10005000E7010008E7010008E7010008E7010008E0
:10006000E701000825080008E7010008B5070008B7
:10007000C1070008CD070008D9070008E5070008F8
:10008000F1070008FD07000819030008E701000850
:10009000E7010008E7010008E7010008E7010008A0
:1000A000E7010008E7010008E7010008E701000890
:1000B000E7010008E7010008E7010008695C0008A3
:1000C0005D5C0008E7010008E7010008E70100089F
:1000D000E7010008EDC90008F9C9000805CA0008D1
:1000E000E7010008E7010008E7010008E701000850
:1000F000E7010008E7010008E7010008E701000840
:10010000E7010008E7010008E7010008E70100082F
:100110001DC5000829C50008E7010008E70100081F
:10012000E7010008E70100080908000815080008B1
:1001300000F002F800F03AF80AA090E8000C8244BF
:100140008344AAF10107DA4501D100F02FF8AFF29C
:10015000090EBAE80F0013F0010F18BFFB1A43F0A5
:1001600001031847DCF20000FCF20000103A24BF43
:1001700078C878C1FAD8520724BF30C830C144BF0C
:1001800004680C607047000000230024002500264E
:10019000103A28BF78C1FBD8520728BF30C148BFEA
:1001A0000B6070471FB51FBD10B510BD00F07AF889
:1001B0001146FFF7F7FF0DF02DF800F098F803B4A3
:1001C000FFF7F2FF03BC00F09FF8000009488047EA
:1001D00009480047FEE7FEE7FEE7FEE7FEE7FEE729
:1001E000FEE7FEE7FEE7FEE704480549054A064B41
:1001F0007047000019C5000831010008B017002041
:10020000B0230020B01B0020B01B00204FF00002E4
:100210000429C0F0128010F0030C00F01B80CCF118
:10022000040CBCF1020F18BF00F8012BA8BF20F886
:10023000022BA1EB0C0100F00DB85FEAC17C24BFDA
:1002400000F8012B00F8012B48BF00F8012B704784
:100250004FF0000200B5134694469646203922BF5F
:10026000A0E80C50A0E80C50B1F12001BFF4F7AFAA
:10027000090728BFA0E80C5048BF0CC05DF804EB8C
:10028000890028BF40F8042B08BF704748BF20F8FA
:10029000022B11F0804F18BF00F8012B70477047F8
:1002A00070477047754600F02BF8AE46050069466A
:1002B000534620F00700854618B020B5FFF794FF9D
:1002C000BDE820404FF000064FF000074FF0000857
:1002D0004FF0000BAC46ACE8C009ACE8C009ACE894
:1002E000C009ACE8C00921F007018D46704710B580
:1002F0000446AFF300802046BDE81040FFF75FBF23
:10030000004870471000002001491820ABBEFEE7EE
:10031000260002007047000080B540F2E820C2F2DB
:10032000000000F0FDFC40F2B820C2F20000BDE881
:10033000804000F0F5BC0000B0B50446006881685C
:10034000C90709D0816821F00101816001F004FD35
:1003500021688968C90701D10020B0BD054602E0C7
:100360008068C007F8D001F0F7FC411B2068032922
:10037000F6D38168C907F3D0A06A40F01000A062EC
:10038000E06A40F00100E0620120B0BD0146406A31
:10039000826A12F0500F03D0006A026B08461047C1
:1003A0000168826A42F400728262896801F4602105
:1003B000B1F5602F01D1017B11B100F00FBC00BF7E
:1003C000816A21F480718162816AC90448BF00F0AA
:1003D00005BC816A41F00101816200F0FFBB0000B1
:1003E000406A816A41F040018162C16A41F00401C2
:1003F000C16200F08FBC0000406A00F0FFBB00004B
:10040000B0B582B004460020019021688A68D20706
:100410004FD1886840F00100886040F20800C2F2C5
:10042000000000684DF68361C4F21B31A0FB01019E
:10043000880C01900198A0B10198013801900198B1
:1004400078B1019801380190019850B101980138B4
:100450000190019828B10198013801900198002875
:10046000EAD101F079FC21688968C9071CD10546E9
:1004700003E000BF8068C0071AD101F06DFC411B8A
:1004800020680329F6D38168C907F3D1A06A40F038
:100490001000A062E06A40F00100E062002084F8F1
:1004A0002400012002B0B0BD002002B0B0BD00BFEA
:1004B000002002B0B0BD000080B541688A69A2F199
:1004C000120313F1150F3CBF142080BD531C8B6128
:1004D00000F120014FF0FF0C01F802C0D0F804E059
:1004E000DEF818305A1CCEF8182001F803C0D0F8F6
:1004F00004E0DEF818305A1CCEF8182001F803C0CA
:100500004368C06C9A69DA61BDE880400BF00CBBAF
:100510002DE9F04FADF5037D5A68884651680131E9
:100520005160194607F060FF05464FEA1029290679
:100530004FF0010018BF00EB1529B9F1000F00F0D2
:10054000AC8040F6D0344FF0000BC2F2000403AE92
:100550004FF0000A642700BF002000BFAA453ABF41
:1005600014F80A100AF1010AFF21AA45315406EBDA
:1005700000013ABF14F80A200AF1010AFF22AA4535
:100580004A703ABF14F80A200AF1010AFF22AA456C
:100590008A703ABF14F80A200AF1010AFF22AA451C
:1005A000CA703ABF14F80A200AF1010AFF22AA45CC
:1005B0000A713ABF14F80A200AF1010AFF22AA457B
:1005C0004A713ABF14F80A200AF1010AFF22AA452B
:1005D0008A713ABF14F80A200AF1010AFF22AA45DB
:1005E000CA713ABF14F80A200AF1010AFF22AA458B
:1005F0000A723ABF14F80A200AF1010AFF22AA453A
:100600004A723ABF14F80A200AF1010AFF22AA45E9
:100610008A723ABF14F80A200AF1010AFF22AA4599
:10062000CA723ABF14F80A200AF1010AFF22AA4549
:100630000A733ABF14F80A200AF1010AFF22AA45F8
:100640004A733ABF14F80A200AF1010AFF22AA45A8
:100650008A7300F110003ABF14F80A200AF1010A67
:10066000FF22B0F5807FCA737FF478AF4FEA0B208A
:100670004FF48071019182B24046A0214FF4805323
:100680000096029702F036FB38B905200BF1010BFA
:1006900001F07AF9CB457FF45FAF0DF5037DBDE83E
:1006A000F08F0000B0B5D9B3A1F1050C00220DE028
:1006B0009EF80140D5786345D4708EF8015028BF6C
:1006C000B0BD5A1C8A42ACF1040C29D200EB0C0ECE
:1006D0009EF80430845C83540CF103039A428EF834
:1006E00004401DD2531C8B421AD29EF80340024490
:1006F000557854700CF10204A3428EF803500FD2C7
:1007000001338B420CD29EF80240957894700CF124
:100710000104A3428EF8025002D201338B42C7D3A8
:10072000B0BD0000FEE700002DE9F041DDF818C083
:10073000BCF1000F3BD01CF00306ACF1010E09D058
:10074000445C4D1C5F1C012ED45405D1B8462C4688
:10075000F44614E0984611E0455D8C1C03F1020854
:10076000022ED55502D1ACF1020C08E0045D033134
:1007700002F8084003F10308ACF1030C0C46BEF18B
:10078000030F38BFBDE8F081204408EB02010338B5
:10079000033900BFC278BCF1040CCA7010F8042FF2
:1007A00001F8042F42784A7082788A70F2D1BDE84D
:1007B000F081000041F26010C2F2000000F0F8BECB
:1007C00041F28030C2F2000000F0F2BE41F23C3053
:1007D000C2F2000000F0ECBE41F27020C2F2000054
:1007E00000F0E6BE41F22C20C2F2000000F0E0BEB4
:1007F00041F2B420C2F2000000F0DABE41F2F8206B
:10080000C2F2000000F0D4BE41F2A410C2F2000017
:1008100000F0CEBE41F2E810C2F2000000F0C8BE07
:1008200070470000082001F07BB9000040F2700022
:1008300042F62402C2F200000021C4F20102C1719A
:10084000516040F64D21116040F2B821C2F2000122
:1008500009686FF001020A604A6842F040024A608B
:10086000C17909B102F034BC43F20001C4F20001C5
:100870004AF6AA220AE000BF0A60C379002B18BF1B
:1008800002F026BC0A60C379002BEBD10A60C37961
:10089000002BE7D10A60C379002BEDD0E2E700001E
:1008A00080B582B000218DF80610ADF8041001A9C2
:1008B000002203F073F8002818BFFFF7B7FF9DF878
:1008C00004009DF805104FF461639DF8062058431D
:1008D000C1EB011100EB8100104402B080BD0000AB
:1008E00070B582B004460020019094F824000128DD
:1008F00004D10225284602B070BD00BF012084F853
:1009000024002046FFF718FD2046FFF779FD054635
:10091000002867D1A06A41F2021188430230A06228
:1009200040F20800C2F200000668022002F0F0FB6C
:10093000B6FBF0F0400001900198A0B10198013899
:100940000190019878B1019801380190019850B157
:10095000019801380190019828B10198013801905F
:1009600001980028EAD12068816841F0080181607F
:1009700001F0F2F921688A6812070DD4886840F006
:100980000400886001F0E8F921688968490713D4F8
:1009900001206FF0030121E0064602E088680007AD
:1009A000ECD501F0D9F9801B21680B28F6D38868B3
:1009B0000007F3D50EE000BF064602E0806840075E
:1009C000E6D501F0C9F9811B20680B29F6D38168AF
:1009D0004907F3D5012510206FF01201A26A1140DA
:1009E0000843A062002084F82400284602B070BDAD
:1009F0007047000080B590F82420012A04BF02202F
:100A000080BD026891F808C05368BCF1010F23F063
:100A1000400308BF40335360D2F804C04FF6E053A0
:100A2000CFF63F730CEA030CD1E9003E43EA0C0316
:100A300043EA0E035360CB68536209699162002157
:100A400080F82410084680BD10B581B000220092C5
:100A500090F82420012A03D10221084601B010BDDC
:100A60004B680122062B80F8242015D8026803EB7E
:100A70008303A3F1050E1F23D2F834C003FA0EF44A
:100A80000B682CEA040C03FA0EF444EA0C045463D9
:100A9000092B17D937E000BF02680C2B20D803EBD5
:100AA0008303A3F123041F23D2F830C003FA04FE0A
:100AB0000B682CEA0E0C03FA04F444EA0C041463E9
:100AC000092B20D8D2F810C003EB43030724896810
:100AD0009C402CEA0404994021431161002136E036
:100AE00003EB8303A3F141041F23D2F82CC003FAC4
:100AF00004FE0B682CEA0E0C03FA04F444EA0C041E
:100B0000D462092BDED903EB4304D2F80CC0A4F164
:100B10001E0E0724896804FA0EF42CEA040401FA74
:100B20000EF1214323F00104102CD1600ED142F2CA
:100B30000841C4F20101A1F10804A2420ED0816A69
:100B400041F020018162012101E000BF002100226B
:100B500080F82420084601B010BD00BF0A681202C8
:100B600030D40A68102B42F400020A602CD140F203
:100B70000801C2F2000109684DF68362C4F21B321B
:100B8000A1FB0212910C01EB810149000091009937
:100B9000E1B10099013900910099C9B10099013979
:100BA00000910099B1B1009901390091009999B172
:100BB000009901390091009900294FF00001E8D116
:100BC000C5E700BF0021C2E70021C0E70021BEE762
:100BD0000021BCE70021BAE70021B8E7006842F233
:100BE0000041C4F20101884218BF704740F2401032
:100BF000C2F20000012180F86C10704770470000BD
:100C0000002804BF01207047B0B504460168806A1F
:100C100040F00200A0628868C00709D0886820F010
:100C20000100886001F098F821688A68D20755D1E0
:100C30006FF01F00086000224868CFF6C072A2F56E
:100C4000010210404860886840F2F062CFF60172FD
:100C500010408860C86840F6FF7200F07F40C860AE
:100C6000086900F04040086148699043486188691C
:100C70006FF30B008861C8696FF30B00C861086AE5
:100C80006FF30B000862486A6FF30B004862886AD2
:100C90006FF30B008862C86A00F07F40C862C86AC0
:100CA00000F07F40C862086B00F040400863486B6A
:100CB00000F040404863886B6FF315008863886BD1
:100CC0006FF315008863204600F088F90020E06289
:100CD000A062002184F82410B0BD00BF054602E0E8
:100CE0008868C007A4D001F037F8401B21680328AA
:100CF000F6D38868C007F3D0A06A40F01000A06265
:100D0000E06A40F00100E0620120002184F8241034
:100D1000B0BD0000704700000068C06C7047000064
:100D200070B50446006805684668B10627D515F019
:100D3000020124D0A16AC90603D4A16A41F400715A
:100D4000A162816801F46021B1F5602F10D1217B8F
:100D500071B9416821F020014160A06A20F48070DF
:100D6000A062A06AC00403D4A06A40F00100A0629F
:100D70002046FFF733FF20686FF012010160310653
:100D800033D515F0040130D0A16AC90603D4A16A95
:100D900041F40051A162816801F4E041B1F5E04FF6
:100DA00010D1416821F080014160A06A20F4805098
:100DB000A062A06AC00511D4A06A40F00100A06240
:100DC0000CE000BF4168490508D4816801F4602146
:100DD000B1F5602F02D1217B0029E2D02046FFF738
:100DE00007FE20686FF00C01016070060ED515F04B
:100DF000010008BF70BDA06A40F48030A0622046A8
:100E000000F0BEF820686FF00101016070BD0000C5
:100E1000B0B5002800F0B2800446806A20B1216895
:100E20008868C0070BD114E00020E06284F8240039
:100E3000204600F009F921688868C00709D0886851
:100E400020F00100886000F087FF21688A68D207DF
:100E500030D1A06AC00644D4A06A41F20212904385
:100E60000230A062E36981F0804080F49E3083F418
:100E70004022104308BF4FF40023D4E9010243EAA3
:100E8000000C531EB3FA83F35D091346B2F5807F5D
:100E900018BF2B02207D257B01284CEA450030D16C
:100EA00035B3A56A45F02005A562E56A45F0010560
:100EB000E56226E0054602E08868C007C9D000F078
:100EC0004BFF401B21680328F6D38868C007F3D086
:100ED000A06A40F01000A062E06A40F00100E06209
:100EE000A06AA06A40F01000A0620120B0BD00BF5F
:100EF000D4F818C04EF60005CFF6FF7505EB4C355B
:100F00002B434D68B2F5807F25F4694543EA05031C
:100F10004B608B684FF2FD75CFF6E17503EA050370
:100F200043EA00038B6001D0012A07D12269002324
:100F3000CFF6F07303EB025201E000BF0022CB6A50
:100F400023F470031A43CA62896840F6FE62CFF642
:100F50001F721140814207D10020E062A16A012284
:100F600062F30101A162B0BDA06A40F0100020F060
:100F70000200A062E06A40F00100E0620120B0BD22
:100F8000B0B5006842F60001C4F20101884201D008
:100F9000B0BD00BF40F2B824C2F200042046FFF703
:100FA000BBFE40F6A61140F270058842C2F2000571
:100FB0000BD340F2B820C2F20000FFF7ADFE40F6BE
:100FC0004D21884238BFB0BD073501202870206808
:100FD000416821F040014160B0BD000010B50446F9
:100FE000006842F60001C4F2010188421AD042F2C0
:100FF0000041C4F20101884218BF10BD41F218003F
:10100000C4F20200016821F40071016041F20000A5
:10101000C4F20100062100F0D1FC206ABDE81040B6
:1010200000F076BA41F21802C4F2020210680121FF
:1010300020F4806341F20000C4F201001360BDE8B7
:10104000104000F0BBBC000070B586B004460068DC
:1010500042F60001C4F2010188424FF00001CDE9DF
:101060000411CDE9021149D042F20041C4F201015C
:1010700088426CD141F21800C4F20200016841F4C8
:1010800000710160016801F400710191019901682A
:1010900041F010010160006802A900F01000019009
:1010A0000198062002900320039041F20000C4F250
:1010B000010000F041FD41F260150820C2F2000578
:1010C000C4F202000021C5E9000105F108008022F8
:1010D0004FF400734FF4006C4FF0200E4FF4805625
:1010E00080E80E502846EE6100F0B0FB002818BFE3
:1010F000FFF79CFB25626C6221E000BF41F2180003
:10110000C4F20200016841F480610160016801F4E9
:10111000806101910199016841F01001016000684E
:1011200002A900F010000190019801200290032014
:10113000039041F20000C4F2010000F0FDFC122017
:101140000E21002201F088FF122001F075FF06B089
:1011500070BD000010B5044690F82400012804BFBB
:10116000022010BD012084F824002046FFF748F932
:1011700020B1002184F8241010BD00BF42F2044CBD
:101180002068A16AC4F2010C40F2013291430CF5CF
:101190007F7201F580719042A16233D0A16A21F47F
:1011A0008011A1624168490504D5A16A012363F356
:1011B0000D31A162A16A0023C9044FF0000144BFB0
:1011C000E16A21F00601E1626FF0020184F8243047
:1011D0000160816801F46021B1F5602F06D1904271
:1011E0000AD1DCF8001011F4702F05D0816841F4A9
:1011F00080118160002010BD816841F4A0018160F0
:10120000002010BDDCF8001011F4702FC6D0A16AC8
:1012100041F48011A162DCF800104905C5D4C9E78A
:1012200070B515460446006842F60002C4F2010299
:1012300090420E4605D042F20041C4F201018842BC
:1012400009D142F20440C4F20100006810F4702F8A
:101250001CBF012070BD94F82400012804BF0220A7
:1012600070BD012084F824002046FFF7C9F818B1AA
:10127000002184F8241070BD42F204402168A26A63
:10128000C4F2010040F601739A4300F57F7302F542
:1012900080729942A26243D0A06A20F48010A062BA
:1012A0004868400504D5A06A012262F30D30A062AF
:1012B000A26A0020D2044FF0000244BFE26A22F08A
:1012C0000602E26284F82400206A40F28D32C0F601
:1012D000000240F2F93340F2E13C00F1280EC0F682
:1012E0000003C0F6000C8EE80C106FF002020A60DA
:1012F0008A682B4642F480728A604C31324600F094
:10130000F5FA2068816801F460228168B2F5602FE7
:101310000CBF41F4A00141F480118160002070BD38
:10132000026812F4702FB7D0A26A42F48012A2624F
:1013300000684005BCD5B6E7002804BF012070470F
:1013400010B50446407918B101206071002010BD2D
:1013500000202071204600F005F801206071002077
:1013600010BD000081B0006843F20001C4F2020128
:10137000884201D001B0704741F21400C4F202006B
:10138000016841F040010160006800F040000090F9
:10139000009801B070470000014690F82100022833
:1013A00016D10868D1E90FC3026822F00E0202606C
:1013B000026822F001020260012000FA03F2CCF878
:1013C000042081F821000020002281F820207047AD
:1013D000042088630120002281F82020704700004B
:1013E00080B590F82110022928D1026840F2040C3F
:1013F0001368C4F2020C23F00E03136013680CF19F
:101400007C018A4223F0010111601BD940F208419E
:10141000C4F202018A4249D040F21C41C4F20201E6
:101420008A4247D040F23041C4F202018A4245D19B
:101430004FF48073CCF800345DE000BF0421816379
:10144000012080BD4321C4F202018A420EDD6B21DE
:10145000C4F202018A421BDC4421C4F202018A4226
:101460003CD05821C4F202018A4233E00821C4F280
:1014700002018A4236D01C21C4F202018A4237D0CE
:101480003021C4F202018A4224D14FF4807230E04C
:101490006C21C4F202018A4226D08021C4F20201EA
:1014A0008A4217D14FF0807223E000BF0123CCF8AD
:1014B000003420E01023CCF800341CE00CF58861E7
:1014C0004FF480338A4208BF4FF48053CCF8003485
:1014D00011E000BF4FF480320BE000BF4FF48052A8
:1014E00007E000BF012204E04FF4801201E000BFDA
:1014F0001022CCF80020012180F82110426B00213D
:1015000080F820100AB190470021084680BD0000F5
:1015100000284FF0010144D0F0B540F204430268C6
:10152000C4F202034FF6F83403F1040ECBF6FD7457
:10153000D2F800C0724538BF04F580644CF6CD4542
:101540001444CCF6CC45A4FB05452CF0010440F234
:10155000000C6FF00307C4F2020C07EA9505146053
:101560004FF000040CF5806601FA05F11460546038
:101570009460D4603CBF0026C4F20206C0E90F6547
:10158000724538BF0CF1040319600021C0E90A4418
:10159000C0E90C44846380F8214080F82040BDE815
:1015A000F04008467047000090F8210070470000A6
:1015B00010B5D0E90FE3D0F800C0DEF80020DCF869
:1015C0000010DA4054072DD511F004042AD0DCF8BD
:1015D0000010890605D4DCF8001021F00401CCF8D5
:1015E00000100422C4F2020202F17C018C454DD9A4
:1015F00040F20841C4F202018C4500F0B18040F293
:101600001C41C4F202018C4500F0AE8040F2304132
:10161000C4F202018C4540F0AB804FF48061C2F807
:101620000014F9E0940747D511F0020444D0DCF827
:101630000010890608D4DCF8001021F00A01CCF86B
:101640000010012180F821100422C4F2020202F1EC
:101650007C018C454ED940F20841C4F202018C4510
:1016600000F0B68040F21C41C4F202018C4500F04B
:10167000B38040F23041C4F202018C4540F0B080AA
:101680004FF40071C2F80014D8E000BF4321C4F247
:1016900002018C4544DD6B21C4F202018C4551DC12
:1016A0004421C4F202018C4500F0A6805821C4F206
:1016B00002018C4568E000BF120740F1C58011F0BF
:1016C000080108BF10BDDCF8001021F00E01CCF8B5
:1016D0000010012101FA03F2CEF80420816380F8A2
:1016E0002110016B0022002980F8202040F0968014
:1016F000AAE000BF4321C4F202018C4548DD6B2102
:10170000C4F202018C4555DC4421C4F202018C452F
:1017100000F088805821C4F202018C4576E000BFB9
:101720000821C4F202018C456AD01C21C4F20201D6
:101730008C456FD03021C4F202018C4524D14FF486
:10174000806168E06C21C4F202018C455AD080218E
:10175000C4F202018C4517D14FF080615BE000BFFD
:101760000421C2F8001457E04021C2F8001453E0ED
:1017700002F588634FF480219C4508BF4FF48041F7
:10178000C2F8001448E000BF4FF4802143E000BFDE
:101790000821C4F202018C4548D01C21C4F2020188
:1017A0008C4549D03021C4F202018C452ED14FF432
:1017B000007142E06C21C4F202018C4538D08021D6
:1017C000C4F202018C4521D14FF0007135E000BF19
:1017D0000221C2F8001431E02021C2F800142DE0EB
:1017E00002F588634FF400319C4508BF4FF4005167
:1017F000C2F8001422E000BF4FF480410BE000BFAC
:10180000042108E04FF4800105E000BF4FF40031EF
:1018100013E000BF40211160C16AA9B1BDE81040CA
:10182000084700BF4FF4005107E000BF022104E069
:101830004FF4001101E000BF20211160816A0022F5
:10184000002980F82020E9D110BD000001460028C1
:101850004FF0010008BF70472DE9F04740F2000C3F
:10186000C4F2020C0A684FF6F8330CF5816ECBF621
:10187000FD73724538BF03F5806303EB020E4CF62F
:10188000CD43CCF6CC43AEFB033E6FF003060CF524
:10189000806506EA9E06D1E901A9D1F80C803CBF1B
:1018A0000025C4F20205C1E90F56022681F8216025
:1018B000166843F6F075AE4346EA0A06D1E90457C6
:1018C00046EA090646EA0806D1E906432E433743AD
:1018D00027433B43136000228A6381F8210081F88B
:1018E00020200020BDE8F04770470000F0B590F8D8
:1018F00020C0BCF1010F32D04FF0010E80F820E083
:1019000090F821C0BCF1010F26D14FF0020C80F8F5
:1019100021C04FF0000CC0F838C0D0E900C4C56A3F
:10192000C66BDCF80070102C27F00107CCF80070B3
:10193000006C0EFA00F070600846CCF8043004BF6A
:1019400010460A46CCF80800CCF80C20DCF8000061
:1019500045B140F00E000DE0002180F8201002207B
:10196000F0BD00BF20F00400CCF80000DCF800005F
:1019700040F00A00CCF80000DCF8000040F0010064
:10198000CCF800000020F0BDF0B581B0044600F0B6
:10199000E3F9054600F0E0F9401BA0420CD243F207
:1019A0000006C4F200064AF6AA2700BF376000F01E
:1019B000D3F9401BA042F9D301B0F0BD2DE9F04F9F
:1019C00081B041F60042C4F201020623904208BFF2
:1019D0000523002900936DD0A0F18042A2F5843246
:1019E00040F2004B4FEAB222C4F2010B009B6FF0B1
:1019F0001F0401274FF00F0A052A38BF1346009332
:101A00001BE000BF0346B5F5807F24BF26460433A4
:101A10001D680AFA06F225EA0202042505FA06F60E
:101A200032431A60C26802EA0E02C26031FA07F25B
:101A300007F1010704F104043CD07A1E012393400E
:101A400013EA0105F2D04FEA9209ABF57E7C04F16E
:101A500020065CF8292006F00C0E009B0AFA0EF80E
:101A600002EA080203FA0EF39A426FEA050EC9D1A0
:101A7000DBF8003040F20C4203EA0E03CBF80030F2
:101A8000DBF80430C4F2010203EA0E03CBF80430A1
:101A9000136803EA0E031360DBF8083003EA0E0351
:101AA000CBF808305CF8293023EA08034CF82930D9
:101AB000A8E700BF01B0BDE8F08F0000082818BFFC
:101AC000704710B541F20000C4F20100082100F097
:101AD00037F9012819D100F03FF940F27004C2F241
:101AE0000004616B401AB0F5967F0ED340F24010AF
:101AF000C2F20000016B406A0A8AC36901320A829D
:101B0000591CC16100F028F9606340F21440C4F22E
:101B10000100016841F008010160BDE81040704714
:101B200040F21441C4F201010A68024214BF086085
:101B30007047FFF7C3BF00002DE9F04F82B041F6B8
:101B40000043C4F201030E680622984208BF052232
:101B5000002E009200F0F080A0F18043A3F58433C2
:101B600040F200484FF6FF754FEAB327C4F2010870
:101B7000009A4FF0000E0123C1F210054FF00F0C38
:101B80004FF0000A4FF0000B052F38BF3A46009285
:101B900009E000BF0E680AF1010A36FA0AF20EF1F6
:101BA000040E00F0C98003FA0AF916EA090FF1D011
:101BB0004E68AE4212DC122E56D8DFE806F0350B26
:101BC0004549555555555555555555555555554DE9
:101BD000510000BFD1F80CB046E000BF4FF6FF72D5
:101BE000C1F2210296420FDC0022C1F2110296429C
:101BF0001AD00022C1F21202964215D00022C1F280
:101C00002102964210D02FE00022C1F22202964219
:101C10000AD00022C1F23102964205D00022C1F260
:101C20003202964220D100BF8E684EB1012E14BF01
:101C3000C0F81490C0F810904FF0080B14E000BFEB
:101C40004FF0040B10E000BFCF6807F1080B0BE06A
:101C50004FF0000B08E000BFCF6807F1040B03E072
:101C6000CF6807F10C0B00BF74460746BAF1080FA6
:101C700024BF203C04373E680CFA04F226EA020234
:101C80000BFA04F632433A60CA79D2067FF582AF86
:101C900041F21807C4F202073A684FF6084342F0CF
:101CA00001023A603A68CFF6FF7302F00102019236
:101CB000019A2AF003024244D7580EF00C060CFA9F
:101CC00006F4A743009C04FA06F63743D750D1F830
:101CD00004C040F20C445FEACC22D8F8082054BF7C
:101CE00022EA090642EA0906C4F201045FEA8C22EC
:101CF000C8F80860226854BF22EA090642EA0906C9
:101D00005FEA8C322660D8F8042054BF22EA090624
:101D100042EA09065FEACC32C8F804604FF00F0CC3
:101D20004FF00103D8F8002054BF22EA090642EA26
:101D30000906C8F800602DE702B0BDE8F08F00008A
:101D40008068084018BF012070470000002A08BFC3
:101D5000090401617047000041F2AC70C2F200005A
:101D600000687047002804BF0120704710B5044682
:101D700090F8410028B9002084F84000204603F084
:101D800097F9242084F841002068D4E90212C3683E
:101D900023F40053C360036923F440531A430261E0
:101DA000D4E904231143C268194341F20C639A43F6
:101DB0001143C1604169A26921F44071114343F6A6
:101DC0000002C4F201029042416103D001F098FB8D
:101DD00002E000BF01F0A8FB6268192148439100AE
:101DE000B0FBF1F048F21F51C5F2EB11A0FB01234B
:101DF0005A096FF0630302FB0300322303EB001068
:101E0000A0FB0101F02303EA5113206803EB021247
:101E1000C1F3431111448160016921F490410161D2
:101E2000416921F022014161416941F008014161AC
:101E3000C16841F40051C16000202021606484F831
:101E4000411084F84210606310BD0000704700002C
:101E500070470000F0B581B004460068002547696E
:101E6000426894F83E1002F48076FA0508D53EB137
:101E70006FF4807242610268012542F40042026000
:101E8000BA0505D5002E1EBF02356FF400724261FF
:101E90007A0516D5AEB1628D94F83D30D4F830C0D5
:101EA000202908BF002A23D06FF48062402905F161
:101EB0000405426101D0102903D1016841F4007189
:101EC0000160380506D52EB1206808356FF4006131
:101ED000416100E055B1206C40EA050120462164D3
:101EE00001B0BDE8F04003F057BF00BF01B0F0BD46
:101EF00003F0F701212909D0282B08BFBCF1210FDD
:101F000004D06FF4806141610435DAE794F83D1044
:101F1000E26AB2F1080318BF0123203A18BF012278
:101F2000134208BF282921D0212939D10021CFF619
:101F3000FF71E16221212163202184F83D100021FD
:101F400084F83E10426822F4E06242606FF48062DE
:101F50004261026822F4806202604269120648BF50
:101F60000161204600F0B6FFABE700BF0021CFF6CD
:101F7000FF71E162416821F4E06141606FF48061CA
:101F80004161016821F4806101600020202120630B
:101F900084F83D1084F83E00204600F0FBFC90E7FA
:101FA0006FF4806141618CE7F0B581B00768044649
:101FB0007868E26A94F83E3094F83DE0402B01D016
:101FC000102B27D1BE697D69E90751D1B2F12A4FA3
:101FD00000F0C082B2F52A0F00F0BC8200F400725B
:101FE0004FF0010C29078CEA522C45D5002A43D02A
:101FF000606B616CC9B2396118B1806A002840F029
:102000002281A06B002800F0A582806A002840F0A1
:102010001A819FE2216C00F4007300290CBFBE6995
:1020200000267D69A90753D5002B51D0206C0028CC
:1020300018BFBE6994F83D0000F02800282840F041
:1020400093807868002320F480607860012020EA83
:10205000960130064FF0180058BF0C20225A204637
:1020600084F83C3001B0BDE8F040FFF7F1BE00BF9E
:10207000810557D44FF0010CA90759D5BCF1000FC9
:1020800056D194F83E30E06A226B94F83D10222934
:1020900040F0E080216D002908BF402B00F0DA807D
:1020A000216D002940F034812169B1F5404F40F0A5
:1020B0002F810020009078690090B8690090009806
:1020C000386840F480703860206D013095E200BFC0
:1020D000E90655D5002B53D094F83D50786820F48C
:1020E000E06078600020009078690090386840F0E7
:1020F000010038600098386820F4806038607868A3
:10210000000540F1428105F0F7002646222840F004
:102110001B8156F8380F0168496826F80E1C36F8FE
:102120000E1C19E1E06AB0F52A0F5DD1012060E0D4
:102130007968720701F4006100F19680002940F08F
:102140000982690605F0040140F1B08110F4806055
:1021500000F0AC81002940F0A981204601B0BDE823
:10216000F04003F053BF00BF002000907969009158
:10217000B9690091009984F83C0001B0F0BD00BF3E
:102180000EF0F701212940F08580290605F00402B0
:1021900040F14C8110F4806000F04881002A40F04A
:1021A000458194F83D00618D002900F0D381616A7A
:1021B00011F8012B3A616162618D01396185618D90
:1021C000002908BF292840F0C5817868282120F41B
:1021D0008060786021202063204684F83D1001B0A3
:1021E000BDE8F04000F076BEE06AB0F12A4F01D1C0
:1021F0000820E06294F83E0040280BD1206D616C0D
:10220000002801F0FE0018BF40F00100386101B065
:10221000F0BD00BF2069B0F5804F69D194F83D0052
:10222000616C212801F0FE0118BF01313961606B3A
:1022300008B1806A38B9A06B002800F08B81806AF1
:10224000002800F08781786840F40060786001B071
:10225000F0BD00BF0020009078690090B869009040
:10226000009801B0F0BD00BF002940F0738129063D
:1022700005F0040140F1268110F4806000F0228115
:10228000002940F01F81204601B0BDE8F04003F076
:10229000A1BF00BF690605F0040240F1DB8010F425
:1022A000806000F0D780002A40F0D48094F83D0090
:1022B000618D002900F04E813969626A1170616A8E
:1022C00001316162618D01396185618D002908BF2D
:1022D0002A2840F03F812068416821F480614160F4
:1022E000222028212063204684F83D10D9E000BF39
:1022F000206D002800F0C080206D012840F02A8168
:10230000606C062101EAD010F130386101B0F0BDF7
:10231000618D61B1618D012940F0E480202818BFF2
:10232000082840F01981386820F480603860002067
:10233000009078690090B86900900098386840F47F
:102340000070386058E100BF56F8340F01684968E2
:1023500026F80A1C36F80A1C19B1216C41F0040158
:102360002164796821F400617960FFF71DF9012883
:102370000BD0306845F67541C0F600014163FFF7A8
:102380002FF810B13068416B8847608D60B12068CC
:102390004169490730D4416949063AD4608D18B182
:1023A000206C40F004002064206C28B1204601B06D
:1023B000BDE8F04003F0F0BC2A2D07D100202063D7
:1023C000282084F83D00204600F082FD94F83D006E
:1023D000282859D10020CFF6FF70E062002120208C
:1023E000216384F83D00204684F83E1001B0BDE82A
:1023F000F04000F0CFBA00BF0069616A0870616AFE
:10240000206801316162618D013961854169490648
:10241000C4D50069616A0870606A01306062608DCD
:1024200001386085608D0028BAD1BDE7002A18BF49
:10243000002B00F08F80608D002800F08B80606A98
:1024400010F8011B39616062608D0138608501B050
:10245000F0BD00BF002A18BF002B00F07B80608D0C
:10246000002877D03869616A0870606A013060625C
:10247000608D013860856DE0606C062101EAD01046
:10248000F030386101B0F0BD206B222818BF222D3A
:1024900060D100212020216384F83D00204684F88B
:1024A0003E1001B0BDE8F04000F012BDB1FA81F07D
:1024B000400950EA0C004DD1204601B0BDE8F04083
:1024C00003F030BDB1FA81F0400950EA0C0041D16F
:1024D000BEF1210F36D1204601B0BDE8F04003F037
:1024E00037BE00BF618D022914D1102858D80121B0
:1024F00014228140C0F20102114251D0396841F4E6
:10250000806139600021009179690091B969009179
:10251000009954E0396841F48061396079680905AF
:1025200063D5421E1F2A5DD80121914048F28102E5
:10253000C8F20002114255D0786840F480507860AB
:1025400053E000BF402B05D1204601B0BDE8F0406C
:1025500003F09ABE01B0F0BD10F5803F0CD1386891
:1025600020F480603860786800057FF5E0AE386858
:1025700020F48060386038E0122A02D101287FF40C
:10258000D2AE1028F3D8012101FA00F01421C0F2D4
:1025900001010842EBD0386840F48060386024E0E4
:1025A000396841F400613960002100917969009136
:1025B000B96900910099396821F4806139607968BE
:1025C000090519D5421E1F2A1AD80121914048F247
:1025D0008102C8F20002114212D0786840F48050A3
:1025E000786009E010F5803FA6D00020009078695F
:1025F0000090B869009000980020206501B0F0BDFF
:1026000010F5803FE9D0F7E77047000070B5B8B328
:10261000044690F83D0028B9002084F83C0020468C
:1026200000F014FC242084F83D002068016821F0AB
:1026300001010160016841F400410160016821F479
:102640000041016000F05CFF48F28041C0F21E01D1
:1026500040F60013D4F804E088424FF00001C0F2C5
:102660003D0348F2A16C4FF0000238BF01219842AF
:10267000C0F2010C38BF0122E64538BF0A460AB154
:10268000012070BD4DF68361C4F21B31A0FB011225
:102690002168950C4B684FF4967623F03F0343EA8C
:1026A0009243754344F6D3564B60C1F262060B6AFF
:1026B000A5FB0656B50923F03F03E64538BF950C48
:1026C0006A1C1A430A62CA6948F2A0664CF6FF7394
:1026D000C0F20106B64522EA03020BD801384FEAE0
:1026E0004E03B0FBF3F001306FF31F30042898BFA6
:1026F00004201EE0A368013863B119230EFB03F325
:10270000B0FBF3F001306FF31F3078B100F580407B
:1027100008E000BF0EEB4E03B0FBF3F001306FF3A7
:102720001F3028B100F5004003E000BF012000E0A9
:1027300001201043C8610868D4E9072320F0C000D5
:10274000104318430860886848F2FF3204F10C0611
:1027500090434CCE18431043A5698860C86820F0A8
:10276000FF0030432843C860086840F0010008605B
:1027700000202021206484F83D10206384F83E006E
:1027800070BD00002DE9F04F83B01E46924688468A
:102790000446FFF7E1FA94F83D1020291CD1216886
:1027A000054600BF8869800712D5FFF7D5FA401BA0
:1027B00021681A28F6D388698007F3D500202021E4
:1027C000206384F83D1084F83E00216C0226C2E0AC
:1027D00094F83C00012805D10226304603B0BDE83C
:1027E000F08F00BF4FF0010984F83C900868C007E3
:1027F00003D1086840F0010008600868002720F451
:1028000000600860242084F83D000020CFF6FF70AF
:102810002764E06208F0FE08BAF1010F88BFD146D4
:102820004FF0A00A4FF0200B04E000BF01374F45E6
:1028300000F0A4800868002240F480700860204600
:102840004FF001113346009503F0CEFE21680028B9
:1028500056D1C1F81080FFF77FFA21684B694A69A9
:1028600094F83D50A02D054605D013F0020008BF96
:1028700012F480601AD084F83DB048690A68800775
:1028800042F400720A6047D46FF48060486100BF70
:1028900088698007CAD5FFF75FFA401B21681A28AC
:1028A000F6D388698007F3D54CE000BFB6B100BF0E
:1028B000FFF752FA401BB04288BF84F83DA0216860
:1028C0004A69486994F83D30A02BD4D012F0020236
:1028D00008BF10F48060EBD0CDE700BFFFF73CFAF3
:1028E00084F83DA021684A69486994F83D30A02BDE
:1028F000C1D012F00202BED110F48060EED0BAE76F
:1029000008680326C00544BF4FF4007020643046B9
:1029100003B0BDE8F08F00BF002602964869029020
:10292000886902900298886901E000BF8069800789
:102930001AD5FFF711FA411B20681A29F6D38169CD
:102940008907F3D500202021206384F83D1084F806
:102950003E00216C012641F02001216484F83C00F6
:10296000304603B0BDE8F08F202084F83D0084F8A5
:102970003C60304603B0BDE8F08F00BF202084F8F3
:102980003D000020012684F83C00304603B0BDE83D
:10299000F08F000070470000704700007047000093
:1029A00070470000704700002DE9F04F85B00446E5
:1029B0000020994616460F460490FFF7CDF994F88B
:1029C0003D10202927D10546206800BF816989076D
:1029D0001CD5FFF7C1F9411B20681A29F6D381697C
:1029E0008907F3D500202021206384F83D1084F866
:1029F0003E00206C04F13C0A40F0200020640220DC
:102A000000218AF8001005B0BDE8F08FA2461AF840
:102A10003C1F012904D1022005B0BDE8F08F00BFA2
:102A200001228AF800200368DDE90F180E9ADB07FF
:102A300003D1036843F001030360036823F40063D8
:102A40000360222084F83D00402084F83E000020EE
:102A5000206462626185608D394620850020CFF652
:102A6000FF70E062204632464B46CDF8008001956B
:102A700003F06AFC20B1012005B0BDE8F08F00BF73
:102A8000208D022810D0012824D0002838D1002021
:102A9000039020684169039181690391039901685A
:102AA00041F40071016037E02068016841F4006181
:102AB0000160EFF3108072B6002003902068416936
:102AC0000391816903910399016821F48061016098
:102AD00062B621E02068016821F480610160EFF3B3
:102AE000108072B6002003902068416903918169CB
:102AF00003910399016841F40071016062B60BE033
:102B00002068016841F480610160002103914169FE
:102B10000391806903900398208D002800F0CA80FB
:102B2000042740F208094BF2895BC0F20107C2F2A8
:102B30000009C1F2F84B232617E000BF20464146AA
:102B40002A4603F0ABFE002895D12068616A00692F
:102B50000870606A218D01306062481E2085618D99
:102B600001396185010400F0A58080B2032865D891
:102B7000022800F07F800128E0D02046394600225C
:102B80004346009503F030FD00287FF474AF2068C1
:102B9000016821F480610160EFF3108072B6206853
:102BA000616A00690870606A218D013001396062D4
:102BB0002185618D01396185D9F80010C908A1FB13
:102BC0000B12110A7143049104990139049104997B
:102BD000002900F07B8021684A6952071DD40499BE
:102BE000013904910499002970D021684A6952077B
:102BF00013D40499013904910499002966D02168FD
:102C00004A69520709D404990139049104990029A9
:102C10005CD021684A695207D6D50A6842F400722E
:102C20000A6009690170606A218D01306062481E86
:102C30002085608D0138608562B686E72046414672
:102C40002A4603F02BFE00287FF415AF2068616A46
:102C500000690870606A2268411C208D6162013839
:102C60002085638D013B638553695B077FF57AAFF0
:102C700010696DE72046394600224346009503F06F
:102C8000B3FC00287FF4F7AEEFF3108072B6206833
:102C9000616A026842F40072026000690870606A4A
:102CA000218D01306062481E2085608D013860856D
:102CB00062B64AE7202084F83D00002084F83E00F8
:102CC00000218AF8001005B0BDE8F08F0020202117
:102CD000206384F83D1084F83E00206C40F0200012
:102CE000206462B6012000218AF8001005B0BDE81A
:102CF000F08F00002DE9F04383B0994616460F4649
:102D00000446FFF729F894F83D10202920D1054604
:102D1000206800BF8169890716D5FFF71DF8411BA0
:102D200020681A29F6D381698907F3D5002020216C
:102D3000206384F83D1084F83E00216C41F02001AE
:102D4000216484F83C0003E094F83C10012903D18D
:102D5000022003B0BDE8F083012284F83C20036820
:102D6000DDE90B180A9ADB0703D1036843F001037E
:102D70000360036823F400630360212084F83D00AE
:102D8000402084F83E000020206462626185608DEE
:102D9000394620850020CFF6FF70E062204632469B
:102DA0004B46CDF80080019503F05AFB20B101207D
:102DB00003B0BDE8F08300BF208D98B9204641469E
:102DC0002A4603F0B1FB88B3206C0428EFD12068B9
:102DD000016841F400710160012003B0BDE8F08397
:102DE0000004EBD0204641462A4603F09FFD002810
:102DF000EAD1616A2268084610F8013B1361238D0D
:102E00006062581E2085678D013F678557697F077F
:102E1000E6D50704E4D048781061881C6062981EEB
:102E20002085618D01396185DAE700BF206801687E
:102E300041F400710160202084F83D00002084F8F6
:102E40003E0084F83C0003B0BDE8F08310B586B0C6
:102E500045F200410068C4F2000100228842049259
:102E600002D006B010BD00BF41F21804C4F2020443
:102E7000206840F008002060206800F00800019001
:102E80000198C0200290122003900320059001F5C4
:102E9000384002A9FEF750FE60680B2140F4001094
:102EA00060606068002200F40010019001981F200B
:102EB00000F0D2F81F2000F0BFF820200C210022E3
:102EC00000F0CAF8202000F0B7F806B010BD0000EE
:102ED0007047000070470000B0B538B30446006882
:102EE000D4E901124CF6CC43036045F2555303601C
:102EF00041608260FEF730FF2168CA6892070FD0F8
:102F0000054602E0C86880070AD0FEF725FF401B8F
:102F100021682828F6D3C8688007F3D00320B0BD05
:102F20004AF6AA2008600020B0BD00BF0120B0BD55
:102F300040F2000041F2AC71C2F20000C2F20001A6
:102F400000780A68104408607047000080B542F2BB
:102F50000000C4F20200016841F01001016003208A
:102F600000F0A6F80F2000F005F800F027F8002088
:102F700080BD000070B540F20006C2F2000640F2CB
:102F800008013278C2F200014FF47A730968B3FB8A
:102F9000F2F20446B1FBF2F1084601F03DF80F2CC5
:102FA0004FF0010508D838B94FF0FF302146002214
:102FB000002500F051F87460284670BD10B582B04D
:102FC00041F21800C4F202000168002241F0010140
:102FD00001600168022401F0010101910199416839
:102FE00041F0805141604068022100F08050009023
:102FF0000098012000F030F8012000F01DF80420B6
:10300000C4F20100016864F31A61016002B010BDEE
:10301000002848BF704700F01F01012202FA01F1A9
:103020004EF280124009CEF2000242F82010BFF3A7
:103030004F8FBFF36F8F7047002848BF704700F075
:103040001F01012202FA01F14EF200124009CEF2F4
:10305000000242F82010704710B54EF60C5CCEF21C
:10306000000CDCF80030C3F3022E8EF00704042CB1
:1030700028BF0424BEF103034FF0FF3E0EFA04F410
:1030800038BF0023A14399400EFA03F39A4311433A
:1030900000F00F02043A624409010C3200F160436F
:1030A000B0F1FF3FC8BF03F56442117010BD0000CE
:1030B0004EF60C51CEF200010A684FF6FF031A409B
:1030C00060F30A2242F0806040F0FD7008607047B3
:1030D00009F092FF2020C4F20E2001210160704708
:1030E00040F27000C2F200000121C171704700007F
:1030F00010B540F21444C4F201042068C00358BF64
:1031000010BDFFF7EDFF4FF48030206010BD0000D0
:1031100080B5411E0F294FF0000039D8DFE801F0DB
:103120000C2A380838383808383838383838383AB7
:10313000BDE8804000F00CBA41F20400C4F2020085
:10314000C16940F202320A40B2F5817F04BF4FF4F8
:10315000004080BD01F44071B1F5407F4CD0B1F525
:10316000007F53D1006A49F64041800701EAE070D0
:1031700080BD00BF00F0D8F941F20401C4F20201A1
:1031800009680222C1F3813102EB4101B0FBF1F089
:1031900080BD00BF41F20401C4F202010A6851F887
:1031A000040CC0015CBF002080BDC2F3834018A3A3
:1031B000185CD20306D440F60012C0F23D02504320
:1031C0000CE000BF0A6816A3C2F340429A5C41F6C5
:1031D0000033C0F2B703B3FBF2F25043096849026F
:1031E00048BF80BD4AF6AB214000CAF6AA21A0FB29
:1031F0000101480880BD00BF50F8040C46F6366156
:103200008003C0F2010101EAE07080BD002080BDB2
:1032100002030405060708090A0B0C0D0E0F101017
:10322000010200002DE9F04182B00446007841F22D
:103230001C06C007C4F202064AD0306810F080585D
:1032400008D1306840F080503060306800F0805025
:103250000190019847F20007C4F200073868C005E2
:1032600012D4386840F480703860FEF775FD05466A
:103270003868C00508D4FEF76FFD401B6428F7D9F5
:10328000032002B0BDE8F081706810F4407012D0E5
:10329000616801F4407188420DD0706840F240428C
:1032A000C4F24222012320F4407113600023C007BE
:1032B000136071602AD17068616820F4407008431F
:1032C000B8F1000F706003D1306820F0805030609A
:1032D0002068810707D556F8181CA26821F44041E0
:1032E000114346F8181CC00604D4002002B0BDE803
:1032F000F08100BF56F8180C616920F48000084383
:1033000046F8180C002002B0BDE8F081FEF724FD5D
:10331000054641F2883700BF70688007CBD4FEF7BE
:103320001BFD401BB8424FF00300F5D9EBE700004E
:103330002DE9F04381B0002800F0878042F20008B8
:10334000C4F202080446D8F800000D4600F0070059
:1033500088420CD2D8F8000020F007002843C8F8B3
:103360000000D8F8000000F00700A8426DD12068E6
:1033700041F204098107C4F2020917D5410705D5B6
:10338000D9F8001041F4E061C9F80010010705D533
:10339000D9F8001041F46051C9F80010D9F80010B4
:1033A000A26821F0F0011143C9F80010C00743D111
:1033B000D8F8000000F00700A8420CD9D8F80000A7
:1033C00020F007002843C8F80000D8F8000000F0FB
:1033D0000700A84239D12068410707D5D9F8001065
:1033E000E26821F4E0611143C9F80010000708D534
:1033F000D9F80000216920F4605040EAC100C9F802
:103400000000D9F8001041F6003001F00C02042A47
:10341000C0F2B70058D0082A44D14FF23043C1F36C
:103420008342C0F600039A5CC90341D440F6001001
:10343000C0F23D00504347E0606802280AD00128EE
:103440002AD159F8041C890308D4012001B0BDE831
:10345000F08300BF59F8041C8901F6D5D9F8001093
:1034600021F003010843C9F80000FEF775FC064689
:1034700041F28837D9F80000616800F00C00B0EB29
:10348000810F95D0FEF768FC801BB842F2D903206B
:1034900001B0BDE8F08300BF59F8041C8907D4D5FA
:1034A000DCE700BF41F20020C0F27A000CE000BF70
:1034B000D9F800104FF22E43C1F34041C0F600038B
:1034C000595C5043B0FBF1F0D9F800104FF21642AE
:1034D000C1F30311C0F60002515C40F2080220FA69
:1034E00001F140F20400C2F200000068C2F20002E2
:1034F0001160FFF73FFD002001B0BDE8F083000040
:1035000040F2080041F20401C2F20000C4F20201DC
:10351000006809684FF22642C1F30221C0F600029A
:10352000515CC8407047000040F2080041F20401BD
:10353000C2F20000C4F20201006809684FF226429C
:10354000C1F3C221C0F60002515CC84070470000C0
:1035500041F20401C4F202010B6841F6003003F0AD
:103560000C02042AC0F2B70008BF7047082A0FD126
:103570004FF23042C3F3834CC0F6000212F80C2025
:10358000DB030BD440F60010C0F23D0050437047FF
:1035900041F20020C0F27A00704700BF09684FF284
:1035A0002E43C1F34041C0F60003595C5043B0FBC9
:1035B000F1F070472DE9F04182B0002868D0044650
:1035C000007841F20006C007C4F2020625D07068F8
:1035D00000F00C0004281BD0706800F00C000828D4
:1035E00002D17068C00313D46068002800F06881BD
:1035F000B0F5A02F00F07C81B0F5803F00F07C8119
:10360000306820F480303060306820F4802076E12B
:103610003068800301D56068D0B32078800718D562
:10362000706810F00C0F07D0706800F00C000828CC
:103630006ED17068C0036BD43068800702D52069F2
:10364000012825D13068616920F0F80040EAC10006
:103650003060207800071FD42078400732D4E56915
:1036600095B1706800F00C00082840F08F80012DA3
:103670000ED07068216A00F480328A4208D1616AF3
:1036800000F47010884203D1002002B0BDE8F08140
:10369000012002B0BDE8F081A069002862D00020BE
:1036A000C4F242200121C0F88014FEF755FB054604
:1036B000706A800700F18C80FEF74EFB401B0228E9
:1036C000F6D92AE1F06910F0805808D1F06940F08D
:1036D0008050F061F06900F080500090009847F24F
:1036E0000007C4F200073868C00529D4386840F4E0
:1036F00080703860FEF730FB054600BF3868C005B3
:103700001ED4FEF729FB401B6428F7D905E100BF52
:103710002069002840F20000C4F2422000F08280BC
:1037200001210160FEF718FB054600BF30688007E5
:103730003FF588AFFEF710FB401B0228F6D9ECE0FE
:10374000E068002800F08080052800F097800128BC
:1037500000F09880306A20F001003062306A20F07A
:10376000040092E00020C4F242200021C0F880143E
:10377000FEF7F2FA054600BF706A80077FF56CAF6E
:10378000FEF7EAFA401B0228F6D9C6E00027C4F289
:10379000422700203866FEF7DFFA022D05460BD1DE
:1037A0003068800140F1BE80FEF7D6FA401B022847
:1037B0004FF00300F4D968E7306880017FF564AF0B
:1037C000FEF7CAFA401B02284FF00300F4D95CE769
:1037D00040F20800C2F20000006844F6D351C1F282
:1037E0006201A0FB0101480A019000BF00BF0198DF
:1037F000411E002801913FF42FAF00BF0198411EE8
:10380000002801913FF428AF00BF0198411E002815
:1038100001913FF421AF00BF0198411E00280191A2
:10382000E4D119E700210160FEF796FA054600BFD2
:10383000306880077FF50DAFFEF78EFA401B022837
:103840004FF00300F4D920E7306A20F00100306225
:10385000306A20F004003062FEF77EFA054641F23D
:10386000883700BF306A800720D5FEF775FA401B05
:10387000B8424FF00300F5D907E700BF306A40F0C7
:1038800004003062306A40F001003062FEF764FAF2
:10389000054641F2883700BF306A800706D4FEF73C
:1038A0005BFA401BB842F7D937E000BFB8F1000F10
:1038B0007FF4D5AEF06920F08050F061CFE600BF14
:1038C000306820F480303060306820F48020306030
:1038D000FEF742FA054600BF306880037FF59DAED3
:1038E000FEF73AFA401B64284FF00300F4D9CCE607
:1038F000306840F480203060306840F480303060C0
:10390000FEF72AFA054600BF306880033FF585AE12
:10391000FEF722FA401B6428F6D9032002B0BDE866
:10392000F08100BF206AB0F5803F05D17168A268C0
:1039300021F40031114371607168626A21F47411DD
:1039400010430843706001203866FEF705FA04460C
:10395000306880013FF598AEFEF7FEF9001B0228A3
:103960004FF00300F4D990E6002804BF012070470F
:10397000017C01294FF002010DD0417446F62C4123
:10398000C4F200010A6822F07F021A430A60012192
:103990004174002101740846704700002DE9F0478A
:1039A000064600284FF0010000F0A5800C460029D3
:1039B00000F0A18030684168490700F1D980914644
:1039C0008269C169836948F6890583EA02073F0471
:1039D0001CBFC1691A4689B241EA02414BF2C532A5
:1039E000C9F2A212A1FB0223DA0A4FF4616302FBBF
:1039F00013139FB26F437D0D65702D01A5EB5757D3
:103A0000A3EB870345F28017C0F20107B942A37008
:103A100036D344F20753CCF22E23A1FB03374AF6E8
:103A2000AB23CAF6AA23A2FB03352B0903EB4303FE
:103A3000A2EBC3022270026A406A4FEA174880B2C2
:103A400040EA0240451A98BF4FF0FF35421C4AF643
:103A50008062CFF6FE7208FB021A08BF0546FEF729
:103A60007BF9074630684168890647D4FEF774F948
:103A7000C01BB0F57A7FF5D90120BDE8F08700BF03
:103A80002270B9F1000F00F09F802178CD26A1F1BE
:103A90000A03DFB27743FD0A05EB85056278A3EBE5
:103AA00045030125A07805EBD727092988BF43EAFC
:103AB00007112170A2F10A01CBB27343DF0A07EBB1
:103AC0008707A1EB470105EBD323092A88BF41EA09
:103AD0000312A0F10A016270CAB27243D30A03EB67
:103AE0008303A1EB430105EBD222092888BF41EAF9
:103AF0000210A0700020BDE8F08700BF416841F0CF
:103B0000100141604FEA1A4181611FFA8AF1C161D7
:103B1000416821F010014160FEF71EF9074600BF21
:103B200030684068800609D4FEF716F9C01BB0F56E
:103B30007A7FF5D90120BDE8F08700BF681C11D05D
:103B40005544FEF709F9074630684168890613D4E1
:103B5000FEF702F9C01BB0F57A7F4FF00100F3D9F0
:103B6000C9E700BF30464FF0FF3108F001FA18B343
:103B70000120BDE8F08700BF416841F010014160BD
:103B8000290C0162A9B24162416821F01001416033
:103B9000FEF7E2F8074600BF3068406880060BD4A5
:103BA000FEF7DAF8C01BB0F57A7F4FF0010088BF4E
:103BB000BDE8F087F0E700BF3046414608F086F8E0
:103BC000B9F1000F7FF461AF0020BDE8F08700007D
:103BD00070B5002866D00446407C20B900202074CF
:103BE000204600F06FF8022060742068416821F0E0
:103BF00008014160FEF7B0F8064600BF206845683E
:103C0000FEF7AAF8290705460ED4A81BB0F57A7F5F
:103C1000F4D9012504206074284670BDFEF79CF895
:103C2000401BB0F57A7FF4D8216848688006F5D546
:103C3000486846F62C4240F0100048604868C4F2DC
:103C4000000220F007004860A06818B1536823F014
:103C500001035360136823F46073184310606068B5
:103C6000421C06D101200125FFF752FA30B321682A
:103C70000138C0F3034280B28A60C860486820F00F
:103C800010004860FEF768F8054600BF20684068ED
:103C9000800609D4FEF760F8401BB0F57A7FF5D9AD
:103CA000B7E700BF012070BD40F201100025A4F865
:103CB0000D000120E5736074284670BD0420607417
:103CC000284670BD80B582B0006842F60001C4F29B
:103CD0000001884202D002B080BD00BFFFF7FAF9B0
:103CE00041F21C00C4F20200016841F00061016071
:103CF0000068012100F000600190019840F23C4012
:103D0000C4F24220016002B080BD000070B50446DC
:103D100000284FF0010018BF002901D170BD00BF7D
:103D2000207C01284FF0020008BF70BD01232374DE
:103D30006074087802B3020902EB820200F00F00FF
:103D400000EB4200C0B24FF4616250434A78897878
:103D5000130903EB830302F00F0202EB4302D2B21A
:103D6000C2EB021200EB82000A0902EB820201F0B0
:103D70000F0101EB420108E04FF4616250434A78C1
:103D80008978C2EB021200EB8200C9B24618FDF737
:103D9000E3FF054620684168890607D4FDF7DCFF8C
:103DA000401BB0F57A7FF5D91AE000BF416841F0B9
:103DB00010014160310C8161B1B2C161416821F0F3
:103DC00010014160FDF7C8FF054600BF206841684B
:103DD00089060BD4FDF7C0FF401BB0F57A7FF5D9FB
:103DE0000120042161740021217470BD416821F01B
:103DF00005014160016A406A80B240EA0140B04278
:103E00002ED200F5803000F5A346FDF7A5FF05464C
:103E100020684168890607D4FDF79EFF401BB0F576
:103E20007A7FF5D9DCE700BF416841F010014160BD
:103E3000310C0162B1B24162416821F01001416070
:103E4000FDF78AFF054600BF20684068800607D45A
:103E5000FDF782FF401BB0F57A7FF5D9C0E700BFC0
:103E60000020012161740021217470BDB0B5A8B19A
:103E700004460068416821F008014160FDF76CFFCD
:103E8000054600BF20684068000709D4FDF764FFBD
:103E9000401BB0F57A7FF5D90320B0BD0120B0BD3D
:103EA0000020B0BDB0B540F27004C2F20004608BD7
:103EB000013081B26529608308D341F25870C2F2A3
:103EC0000000012180F8501000206083606F0130F5
:103ED000B0F57A7F606704D9012084F87100002072
:103EE0006067E08B013081B2B1F57A7FE08333D334
:103EF00040F24010C2F20000416A00224B69E283A6
:103F00005A1C4A61627912B18A6801328A60006B78
:103F10000279B2B18A6901328A61C268218C0132A8
:103F2000C26009B9028A628401312184B0F9162085
:103F300089B2914207DB018A628C914204BF012160
:103F4000017500202084B4F92400012804DBA08C32
:103F50000138A084A08C58B1207988B9A08C78B998
:103F6000B4F92600652809DBE08C0138E08407E01D
:103F700000202071A08C18B9F2E700BF0120207149
:103F8000208B013081B29629208303D301206070F9
:103F900000202083A08B013081B2B1F5FA7FA0838D
:103FA00003D90120A0710020A08340F2B010C2F21A
:103FB0000000016C69B101310629016409D3016B6C
:103FC00029B1012280F82E200022C0E90C21002115
:103FD0000164016D41B101310329016504D301215F
:103FE00080F8541000210165A178E07800291CBFF9
:103FF0000130E070C0B2032838BFB0BD40F60040C9
:10400000C4F201004FF4807100220025FDF79EFEEE
:10401000A570E570B0BD0000411E0020B0EB116F2F
:104020001CBF012070474EF21002CEF20002516018
:104030004EF62351CEF20001F0230B700721906061
:1040400011607047FFF72EBF10B590F83C20012A91
:104050004FF002023FD080F83D200268D2F804E021
:10406000D2F808C00C682EF07003234340F6FF34EA
:10407000C4F20004A242536010DCB2F1804F1FD0A2
:1040800040F20043C4F200039A4219D040F6000304
:10409000C4F200039A4213D017E000BF40F6004379
:1040A000C4F200039A420BD043F20043C4F201036E
:1040B0009A4205D042F60043C4F201039A4204D169
:1040C00049682CF08003194391600121002280F897
:1040D0003D1080F83C20104610BD000010B504468D
:1040E000022084F83D00206841F21112016A114259
:1040F00008D1016A40F24442114203D1016821F023
:1041000001010160204600F0ADF80021002084F894
:10411000461084F83E1084F83F1084F8401084F86C
:10412000411084F8421084F8431084F8441084F855
:10413000451084F83D1084F83C1010BD002804BFE1
:104140000120704710B5044690F83D0028B90020C2
:1041500084F83C00204600F097F8022084F83D00E7
:10416000206840F6FF330268C4F2000343F2004CBB
:104170009842C4F2010C21DCB0F1804F2CD040F207
:104180000041C4F20001884226D040F60001C4F28A
:104190000001884220D0984224DCB0F1804F2FD01B
:1041A00040F20041C4F20001884229D040F60001EB
:1041B000C4F20001884223D026E000BF40F600414F
:1041C000C4F20001884207D0604505D042F60041A4
:1041D000C4F201018842DED1A16822F070020A43D4
:1041E0009842DADD40F60041C4F20001884207D06F
:1041F000604505D042F60041C4F20101884203D176
:10420000216922F440720A43A36922F08001D4F8A4
:1042100004E0E268194360450160C262C0F828E02A
:1042200005D042F60041C4F20101884201D1616922
:10423000016301214161002084F8461084F83E109A
:1042400084F83F1084F8401084F8411084F842103C
:1042500084F8431084F8441084F8451084F83D1025
:1042600010BD0000006840F60001C4F20001884261
:1042700018BF704741F21C00C4F20200016821F02F
:10428000040101607047000081B0006840F6000141
:10429000C4F20001884201D001B0704741F21C0015
:1042A000C4F20200016841F004010160006800F0FE
:1042B00004000090009801B07047000080B590F8AD
:1042C0003C20012A4FF0020200F0C28080F83D201D
:1042D000D0F800C04FF67772DCF8083023EA02020B
:1042E000CCF808200B684F2B28DC1F2B44DD202B3B
:1042F00045D0302B43D0402B40F0AC80D1F804E0C7
:10430000C968DCF82030DCF8202022F00102CCF86B
:104310002020DCF8182022F0F00242EA011123F0FC
:104320000A0242EA0E02CCF81810CCF82020DCF881
:10433000081041F0470121F0300180E06F2B27DDAC
:10434000B3F5005F48D0B3F5805F7AD0702B40F0B2
:104350008180D1E901E3C968DCF8082043EA0E0353
:1043600022F47F4243EA01211143CCF80810DCF823
:10437000081041F0770162E00BB1102B6AD1DCF834
:10438000081021F07001194341F0070157E000BF08
:10439000502B35D0602B5DD1D1F804E0C968DCF832
:1043A0002030DCF8202022F01002CCF82020DCF8AD
:1043B000182022F4704242EA013123F0A00242EABE
:1043C0000E12CCF81810CCF82020DCF8081041F0C0
:1043D000670121F0100132E0D1E901E3C968DCF89E
:1043E000082043EA0E0322F47F4243EA01211143ED
:1043F000CCF80810DCF8081041F480411FE000BF41
:10440000D1F804E0C968DCF82030DCF8202022F084
:104410000102CCF82020DCF8182022F0F00242EA59
:10442000011123F00A0242EA0E02CCF81810CCF86F
:104430002020DCF8081041F0570121F02001CCF8D1
:1044400008100022012180F83D10002180F83C1066
:10445000104680BD0122F5E7F0B590F83C30012B05
:1044600004BF0220F0BD4FEAB202032A00F2EA8044
:10447000DFE802F0023C7AB8026843F20045146AB1
:10448000136A24F0020423F0010313625368D2F884
:1044900018E08E68D1F800C0C4F20105AA4244EACF
:1044A000060405D042F60046C4F20106B24205D128
:1044B000CE6824F00C0426F004063443AA4205D04A
:1044C00042F60045C4F20105AA4205D1D1E90556DC
:1044D00023F440732B4333432EF0730646EA0C0655
:1044E00053609661496851631462A5E0026843F223
:1044F0000045146A136A24F0200423F010031362A9
:104500005368D2F818E08E68D1F800C0C4F20105F3
:10451000AA4244EA061405D042F60046C4F2010657
:10452000B24207D1CE686FF0400724F0C00407EA1A
:1045300006163443AA4205D042F60045C4F20105EE
:10454000AA4207D1D1E9055623F4406343EA850323
:1045500043EA86032EF4E64747EA0C275360976147
:1045600049689163146267E0026843F20045146A87
:10457000136A24F4007423F4807313625368D2F82E
:104580001CE08E68D1F800C0C4F20105AA4244EADA
:10459000062405D042F60046C4F20106B24207D115
:1045A000CE6840F2FF47360224F44064BE433443F1
:1045B000AA4205D042F60045C4F20105AA4207D13D
:1045C000D1E9055623F4405343EA051343EA0613A1
:1045D0002EF0730747EA0C075360D7614968D1632F
:1045E000146229E0026843F20046D2F820C0136A40
:1045F000C4F2010623F4805313625368D4690D6832
:10460000D1F808E0B24205D042F60046C4F20106F5
:10461000B24204D14E6923F4804343EA861324F462
:10462000E64646EA05265360D6612CF400574968F1
:1046300047EA0E33116413620021002280F83C2007
:104640000846F0BD0121002280F83C200846F0BD5C
:10465000002804BF0120704710B5044690F83D00C3
:1046600028B9002084F83C00204600F085F802209C
:1046700084F83D00206840F6FF330268C4F200036E
:1046800043F2004C9842C4F2010C21DCB0F1804F9F
:104690002CD040F20041C4F20001884226D040F6FE
:1046A0000001C4F20001884220D0984224DCB0F11D
:1046B000804F2FD040F20041C4F20001884229D03F
:1046C00040F60001C4F20001884223D026E000BF7A
:1046D00040F60041C4F20001884207D0604505D091
:1046E00042F60041C4F201018842DED1A16822F005
:1046F00070020A439842DADD40F60041C4F200013C
:10470000884207D0604505D042F60041C4F201015D
:10471000884203D1216922F440720A43A36922F03E
:104720008001D4F804E0E268194360450160C26288
:10473000C0F828E005D042F60041C4F201018842E9
:1047400001D16169016301214161002084F84610B3
:1047500084F83E1084F83F1084F8401084F841102B
:1047600084F8421084F8431084F8441084F845100B
:1047700084F83D1010BD00007047000041B10829C9
:1047800010D0042914BF00F1410200F13F020BE0F8
:1047900090F83E20012A1CBF01207047022280F8B9
:1047A0003E2013E000F140021278012A1CBF0120D4
:1047B00070470222082907D0042914BF80F841203D
:1047C00080F83F2002E000BF80F84020006801F040
:1047D0001F010122036A02FA01F123EA01020262C7
:1047E000026A114340F6FF32C4F2000290420162B5
:1047F0000EDCB0F1804F25D040F20041C4F2000140
:1048000088421FD040F60001C4F2000118E000BF4A
:1048100040F60041C4F20001884213D043F2004246
:10482000C4F2010242F600419042C4F2010101D0FB
:1048300088420ED1436C904243F40043436401D05C
:10484000884206D1816801F00701062904BF0020D3
:104850007047016841F001010160002070470000CD
:1048600070470000002804BF0120704710B50446BF
:10487000242084F841002068C16821F40051C160FF
:10488000204600F05FFB0020606484F8410084F85B
:1048900042002063606384F8400010BD006844F269
:1048A0000041C4F20001884218D043F60001C4F26E
:1048B0000101884218BF704740F2B01CC2F2000CE0
:1048C000DCF83C000CF12D01431C41F26040C2F2C7
:1048D00000000122CCF83C3000F004BE40F2082C6D
:1048E000C2F2000CDCF83C000CF12D01431C41F23B
:1048F000A840C2F200000122CCF83C3000F0F2BD2A
:10490000B0B582B0044600680168C368426901F02E
:104910002F05202D03F0200506D12DB1204602B031
:10492000BDE8B04007F0E2BF5FEA017C1EBF02F0C5
:10493000010E03F4907212EB0E0255D1226B012A84
:1049400005D111F0100218BF13F0100236D10A067B
:1049500022D513F080021FD094F84110212941D1B3
:10496000A168B1F5805F03D12169002900F072824E
:10497000216A4A1C226209784160E18C01390A04EB
:10498000E1842FD1C16821F08001C160C16841F08C
:104990004001C16002B0B0BD490623D513F040010B
:1049A00020D0C16821F04001C1602021204684F858
:1049B000411002B0BDE8B04001F08AB80021019179
:1049C000016801914168019101994169490600F12D
:1049D0008F80A18DE28DE38D002B1CBF891A5FEAC9
:1049E00001420CD102B0B0BDCA0718BF13F48072E7
:1049F00040F038814A0700F13B8140E1206850E8EF
:104A0000030F226820F4907042E80303DBB12068B2
:104A100050E8030F226820F4907042E8030393B13A
:104A2000206850E8030F226820F4907042E80303E6
:104A30004BB1206850E8030F226820F4907042E8E0
:104A40000303002BDAD1206850E8050F226820F01C
:104A5000010042E80503DBB1206850E8050F226839
:104A600020F0010042E8050393B1206850E8050FEB
:104A7000226820F0010042E805034BB1206850E8AD
:104A8000050F226820F0010042E80503002BDAD16F
:104A9000202084F8420000202063206850E8030FA3
:104AA000226820F0100042E80303DBB1206850E8E0
:104AB000030F226820F0100042E8030393B120683E
:104AC00050E8030F226820F0100042E803034BB1C6
:104AD000206850E8030F226820F0100042E803032A
:104AE000002BDAD1022289B220466263B4E000BF13
:104AF000E16B0A68526893B2002B3FF473AFA58D47
:104B0000AB42BFF46FAFE2858969202900F09D8038
:104B100050E8030F216820F4807041E80302EAB1F5
:104B2000206850E8030F216820F4807041E80302F8
:104B3000A2B1206850E8030F216820F4807041E89A
:104B400003025AB1206850E8030F216820F48070F6
:104B500041E8030212B12068DAE700BF206850E89C
:104B6000050F216820F0010041E80502DAB1206854
:104B700050E8050F216820F0010041E8050292B1DC
:104B8000206850E8050F216820F0010041E8050287
:104B90004AB1206850E8050F216820F0010041E883
:104BA0000502002ADAD1206850E8050F216820F0BC
:104BB000400041E80502DAB1206850E8050F21689D
:104BC00020F0400041E8050292B1206850E8050F4E
:104BD000216820F0400041E805024AB1206850E811
:104BE000050F216820F0400041E80502002ADAD1D3
:104BF000202084F8420000202063206850E8030F42
:104C0000216820F0100041E80302DAB1206850E882
:104C1000030F216820F0100041E8030292B12068E0
:104C200050E8030F216820F0100041E803024AB168
:104C3000206850E8030F216820F0100041E80302CB
:104C4000002ADAD1E06BFCF7A7FB02206063A08D9D
:104C5000E18D401A81B2204602B0BDE8B040FFF7B6
:104C6000FFBD00BF626C42F0010262644A0706D5D4
:104C7000BEF1000F03D0626C42F0020262648A0748
:104C800006D5BEF1000F03D0626C42F004026264EC
:104C9000BCF1000F06D555EA0E0203D0626C42F05B
:104CA00008026264626C002A3FF49CAE11F020019D
:104CB00018BF002D03D0204607F018FE2068416978
:104CC000626C01F0400102F00802891800F0A28035
:104CD00050E8030F216820F4907041E80302C2B34A
:104CE000206850E8030F216820F4907041E8030227
:104CF0007AB3206850E8030F216820F4907041E8EF
:104D0000030232B3206850E8030F216820F490704A
:104D100041E80302EAB12068DAE700BF206850E802
:104D2000050F216820F0010041E80502DAB1206892
:104D300050E8050F216820F0010041E8050292B11A
:104D4000206850E8050F216820F0010041E80502C5
:104D50004AB1206850E8050F216820F0010041E8C1
:104D60000502002ADAD1206B012824D1206850E8FE
:104D7000030F216820F0100041E80302DAB1206837
:104D800050E8030F216820F0100041E8030292B1BF
:104D9000206850E8030F216820F0100041E803026A
:104DA0004AB1206850E8030F216820F0100041E864
:104DB0000302002ADAD1202084F842000020206378
:104DC0002068416949063FD550E8050F216820F069
:104DD000400041E805022AB3206850E8050F216829
:104DE00020F0400041E80502E2B1206850E8050FDC
:104DF000216820F0400041E805029AB1206850E89F
:104E0000050F216820F0400041E8050252B12068FA
:104E1000DAE700BF2046FFF741FD0020606402B0E2
:104E2000B0BD00BFE06B78B14CF23551C0F6000167
:104E30004163FCF7D5FA00283FF4D4ADE06B416B39
:104E400002B0BDE8B0400847204602B0BDE8B0401F
:104E5000FFF724BD216A31F8022B6FF35F22426015
:104E600021628AE5002804BF0120704710B504467E
:104E700090F8410028B9002084F84000204600F056
:104E800017F9242084F841002068D4E90212C3688D
:104E900023F40053C360036923F440531A430261AF
:104EA000D4E904231143C268194341F20C639A43C5
:104EB0001143C1604169A26921F44071114343F675
:104EC0000002C4F201029042416103D0FEF718FBD8
:104ED00002E000BFFEF728FB6268192148439100F9
:104EE000B0FBF1F048F21F51C5F2EB11A0FB01231A
:104EF0005A096FF0630302FB0300322303EB001037
:104F0000A0FB0101F02303EA5113206803EB021216
:104F1000C1F3431111448160016921F490410161A1
:104F2000416921F02A014161C16841F40051C16029
:104F300000202021606484F8411084F842106063EE
:104F400010BD000010B50446006844F6FF31C4F2FD
:104F50000001884230DD43F60001C4F201018842BD
:104F600054D045F20001C4F2000188426CD044F6EE
:104F70000041C4F20001884218BF10BD41F21C007C
:104F8000C4F20200016821F40021016040F6000033
:104F9000C4F2010000F500604FF44061FCF70EFD23
:104FA000E06BFCF7B5FAA06BFCF7B2FA3420BDE871
:104FB0001040FEF72DB800BF44F20041C4F20001DA
:104FC000884259D044F60001C4F2000188426DD1F4
:104FD00041F21C00C4F20200016821F4802101604A
:104FE00040F60000C4F2010000F580604FF440611B
:104FF000FCF7E4FCE06BFCF78BFAA06BFCF788FA9B
:105000002720BDE81040FEF703B800BF41F21C00A6
:10501000C4F2020050F8041C21F4804140F8041C42
:1050200040F60000C4F201004FF4C061FCF7C6FC7A
:10503000E06BFCF76DFAA06BFCF76AFA2520BDE87F
:105040001040FDF7E5BF00BF41F21C00C4F20200B2
:10505000016821F48011016040F60000C4F20100F3
:1050600000F500604FF48051FCF7A8FC3520BDE846
:105070001040FDF7CDBF00BF41F21C00C4F202009A
:10508000016821F40031016040F60000C4F2010023
:105090000C21FCF793FCE06BFCF73AFAA06BFCF7F1
:1050A00037FA2620BDE81040FDF7B2BF10BD000062
:1050B0002DE9F04186B00446006844F6FF31C4F2A1
:1050C000000188424FF00001CDE90411CDE9021141
:1050D00040F3828043F60001C4F20101884200F0EF
:1050E000F78045F20001C4F20001884200F05C81C3
:1050F00044F60041C4F20001884240F0EF8141F2E1
:105100001800C4F20200416802AE41F4002141607F
:10511000416840F2304801F4002101910199016891
:10512000C4F2020841F0100101600068314600F04D
:105130001000019001984FF48060029002200390CB
:105140000320059040F60000C4F2010000F5006560
:105150002846FCF7F1FC4FF4006002900120002784
:105160000490284631460397FCF7E6FC41F2A4156B
:10517000C2F2000520204FF480518026C5E90601C7
:105180002846C5E90087C5E90276C5E90477FCF73A
:105190005DFB002818BFFBF749FBE5636C6241F239
:1051A000E81508F12800C2F20005102185E8830007
:1051B0002846C5E90367C5E90577EF61FCF746FBBB
:1051C000002818BFFBF732FBA5636C62342009216D
:1051D000002234247DE100BF44F20041C4F200010A
:1051E000884200F00D8144F60001C4F200018842BB
:1051F00040F0748141F21800C4F20200416802AE2E
:1052000041F480214160416840F21C0801F4802192
:10521000019101990168C4F2020841F0080101609E
:105220000068314600F00800019001984FF480605A
:105230000290022003900320059040F60000C4F283
:10524000010000F580652846FCF776FC4FF400600D
:105250000290012000270490284631460397FCF76E
:105260006BFC41F23C3508F11400C2F200058026C7
:1052700020214FF48052C5E900072846C5E902768F
:10528000C5E90477C5E90612FCF7E0FA002818BF63
:10529000FBF7CCFAE5636C6241F28035C2F200059F
:1052A0001020C5E900802846C5E90276C5E90477E3
:1052B000C5E90677FCF7CAFA002818BFFBF7B6FA6B
:1052C000A5636C62272008210022272401E100BF8A
:1052D00041F21800C4F20200016840F6000541F4F2
:1052E000804101600168C4F2010501F4804101912F
:1052F0000199016802AE41F004010160006840F2CA
:105300001C0800F00400019001984FF40070029016
:10531000022003900320059028463146C4F202087B
:10532000FCF70AFC4FF480600290012000270490F3
:10533000284631460397FCF7FFFB41F22C2508F184
:105340003C00C2F20005802620214FF48052C5E9BE
:1053500000072846C5E90276C5E90477C5E90612C3
:10536000FCF774FA002818BFFBF760FAE5636C627B
:1053700041F2702508F12800C2F20005102185E8ED
:1053800083002846C5E90367C5E90577EF61FCF7A7
:105390005DFA002818BFFBF749FAA5636C62252067
:1053A00008210022252494E041F21800C4F20200F2
:1053B000416841F480114160416801F4801101911C
:1053C0000199016841F010010160006802A900F034
:1053D0001000019001984FF4805002901220039029
:1053E0000320059040F60000C4F2010000F50060C3
:1053F000FCF7A2FB352004210022352469E000BF20
:1054000041F21800C4F20200416840F6000541F480
:10541000003141604168C4F2010501F4003101919D
:105420000199016802AE41F004010160006840F298
:105430001C0800F004000190019804200290022052
:1054400003900320059028463146C4F20208FCF779
:1054500073FB082002900120002704902846314663
:105460000397FCF769FB41F2B42508F15000C2F242
:105470000005802620214FF48052C5E90007284608
:10548000C5E90276C5E90477C5E90612FCF7DEF93D
:10549000002818BFFBF7CAF9E5636C6241F2F825F2
:1054A00008F16400C2F20005102185E88300284657
:1054B000C5E90367C5E90577EF61FCF7C7F900287F
:1054C00018BFFBF7B3F9A5636C6226200A210022FE
:1054D0002624FDF7C1FD2046FDF7AEFD06B0BDE870
:1054E000F081000070B582B0044690F84200202898
:1054F0000AD113460A4600294FF0010018BF002BBD
:1055000006D102B070BD00BF022002B070BD00BF66
:10551000002522202563A262A385656484F84200E9
:105520002168E06B4CF2BD6C4CF61D0E4CF24156FE
:10553000C0F6000CC0F6000EC0F600060431C0E94B
:105540000ACEC0E90C65FCF7D1F901952068016825
:105550000191416801910199216929B350E8030F34
:10556000216840F4807041E80302EAB1206850E805
:10557000030F216840F4807041E80302A2B1206863
:1055800050E8030F216840F4807041E803025AB1EB
:10559000206850E8030F216840F4807041E803025E
:1055A00012B12068DAE700BF206850E8050F2168D3
:1055B00040F0010041E80502E2B1206850E8050F23
:1055C000216840F0010041E805029AB1206850E8E6
:1055D000050F216840F0010041E8050252B1206842
:1055E00050E8050F216840F0010041E80502002A5B
:1055F000DAD100BF206850E8050F216840F0400074
:1056000041E80502DAB1206850E8050F216840F052
:10561000400041E8050292B1206850E8050F21687A
:1056200040F0400041E805024AB1206850E8050F0B
:10563000216840F0400041E80502002ADAD100204C
:1056400002B070BD90F84230202B1CBF0220704782
:1056500000294FF0010318BF002A01D118467047F6
:1056600000230363816222218285C285436480F81E
:1056700042100169006819B1C16841F48071C160CC
:105680004169002341F001014161C16841F02001FD
:10569000C160184670470000016843F60000C4F27C
:1056A000010081421ED140F2B010C2F2000090F819
:1056B0002E20BAB941F2C852C2F200021178012379
:1056C0000129036446D1016B7F2957D890F82DC07A
:1056D0004B1C0A447F29036382F808C05CD18021F7
:1056E0004CE000BF45F20000C4F2000081424DD002
:1056F00044F20040C4F2000081424DD140F2082043
:10570000C2F20000016B41F2587C01221729C2F25B
:10571000000C026406D890F82D300CEB0102013128
:10572000016313724B1E0CEB0302127AFF2A0CD199
:105730005BB18B1E0CEB0302127AFF2A05D123B159
:1057400001EB0C025279FF2A18D0182938BF704794
:1057500014E000BF41F25872C2F200021178012930
:105760001AD1016B172909D890F82DC04B1C0A4497
:105770001729036382F808C00ED1182100220123E3
:10578000026480F82E30C0E90C21704740F260209E
:10579000C2F20000012181707047000070470000D4
:1057A0002DE9F04381B0044690F84100202840F0F4
:1057B000B1800F4600294FF0010000F0D08016465E
:1057C000002A00F0CC804FF0000821201D46C4F8CC
:1057D000448084F84100FCF7BFFAA684E684A168FF
:1057E0000646B1F5805F05D12069002814BF384610
:1057F000B8460746E18C2068002900F08F8005F14B
:1058000001090AE047B317F8011B4160E18C013937
:10581000E184E18C002900F0818001680906F1D45F
:10582000B9F1000F0AD0EDB1FCF796FA801BA8423F
:1058300018D8206801680906F6D5E3E7016809066B
:10584000E0D4016809065CBF01685FEA0161D9D450
:1058500001680906F2D5D5E738F8021B00276FF377
:105860005F21D2E7206850E8030F216820F4D07050
:1058700041E80302BAB3206850E8030F216820F41E
:10588000D07041E8030272B3206850E8030F21682A
:1058900020F4D07041E803022AB3206850E8030FD7
:1058A000216820F4D07041E80302002ADAD11AE01E
:1058B000206850E8050F216820F0010041E805024A
:1058C000DAB1206850E8050F216820F0010041E8B6
:1058D000050292B1206850E8050F216820F0010010
:1058E00041E805024AB1206850E8050F216820F020
:1058F000010041E80502002ADAD1202084F84100A5
:1059000084F84200002084F84000032001B0BDE884
:10591000F08300BF022001B0BDE8F08301684906B2
:1059200019D4FDB1691C0DD10168490613D4016871
:1059300049065CBF01685FEA41610CD40168490611
:10594000F2D508E0FCF708FA801BA8420AD82068C4
:1059500000684006F6D5202084F84100002001B000
:10596000BDE8F083206850E8030F216820F4D07070
:1059700041E80302E2B3206850E8030F216820F4F5
:10598000D07041E803029AB3206850E8030F216801
:1059900020F4D07041E8030252B3206850E8030FAE
:1059A000216820F4D07041E80302002ADAD11FE018
:1059B000206850E8050F216820F0010041E8050249
:1059C000002A9AD0206850E8050F216820F00100D5
:1059D00041E80502002A3FF490AF206850E8050F27
:1059E000216820F0010041E80502002A3FF485AF5C
:1059F000206850E8050F216820F0010041E8050209
:105A0000002AD5D179E7000070B5044690F841002E
:105A100020281CBF022070BD00294FF0010553D083
:105A20001346002A50D0002521202162A384E3845C
:105A3000656484F841002268A06B4CF6350C4CF686
:105A4000E50E4CF24156C0F6000CC0F6000EC0F652
:105A500000060432C0E90ACEC0E90C65FBF746FF38
:105A600020686FF0400140F8141B50E8000F2168D7
:105A700040F0800041E8050232B300BF206850E8E2
:105A8000050F216840F0800041E80502F2B120686E
:105A900050E8050F216840F0800041E80502AAB1F6
:105AA000206850E8050F216840F0800041E80502B9
:105AB00062B1206850E8050F216840F0800041E89D
:105AC0000502002ADAD10025284670BD002070BDED
:105AD000006844F6FF31C4F2000188421CDD44F640
