:020000040800F2
:10000000281C0020CD010008855F00086549000814
:10001000815F0008D5040008498C0008000000003A
:10002000000000000000000000000000058500083E
:100030004D06000800000000456F0008ED8500082F
:10004000E701000805640008E7010008E70100086F
:10005000E7010008E7010008E7010008E7010008E0
:10006000E70100084F060008E7010008E105000865
:10007000ED050008F905000805060008110600084E
:100080001D0600082906000817030008E7010008FC
:10009000E7010008E7010008E7010008E7010008A0
:1000A000E7010008E7010008E7010008E701000890
:1000B000E7010008E7010008E70100083F4A0008DF
:1000C000334A0008E7010008E7010008E7010008DB
:1000D000E7010008258C0008318C00083D8C0008E1
:1000E000E7010008E7010008E7010008E701000850
:1000F000E7010008E7010008E7010008E701000840
:10010000E7010008E7010008E7010008E70100082F
:10011000EF880008FB880008E7010008E7010008F5
:10012000E7010008E701000835060008410600085D
:1001300000F002F800F03AF80AA090E8000C8244BF
:100140008344AAF10107DA4501D100F02FF8AFF29C
:10015000090EBAE80F0013F0010F18BFFB1A43F0A5
:1001600001031847ECA900000CAA0000103A24BFB4
:1001700078C878C1FAD8520724BF30C830C144BF0C
:1001800004680C607047000000230024002500264E
:10019000103A28BF78C1FBD8520728BF30C148BFEA
:1001A0000B6070471FB51FBD10B510BD00F07AF889
:1001B0001146FFF7F7FF09F095FB00F098F803B43C
:1001C000FFF7F2FF03BC00F09FF8000009488047EA
:1001D00009480047FEE7FEE7FEE7FEE7FEE7FEE729
:1001E000FEE7FEE7FEE7FEE704480549054A064B41
:1001F00070470000798600083101000828100020AF
:10020000281C002028140020281400204FF0000291
:100210000429C0F0128010F0030C00F01B80CCF118
:10022000040CBCF1020F18BF00F8012BA8BF20F886
:10023000022BA1EB0C0100F00DB85FEAC17C24BFDA
:1002400000F8012B00F8012B48BF00F8012B704784
:100250004FF0000200B5134694469646203922BF5F
:10026000A0E80C50A0E80C50B1F12001BFF4F7AFAA
:10027000090728BFA0E80C5048BF0CC05DF804EB8C
:10028000890028BF40F8042B08BF704748BF20F8FA
:10029000022B11F0804F18BF00F8012B70477047F8
:1002A00070477047754600F02BF8AE46050069466A
:1002B000534620F00700854618B020B5FFF794FF9D
:1002C000BDE820404FF000064FF000074FF0000857
:1002D0004FF0000BAC46ACE8C009ACE8C009ACE894
:1002E000C009ACE8C00921F007018D46704710B580
:1002F0000446AFF300802046BDE81040FFF75FBF23
:10030000004870471000002001491820ABBEFEE7EE
:1003100026000200704780B540F24060C2F2000043
:1003200000F0E7FB40F27060C2F20000BDE88040E0
:1003300000F0DFBBB0B5044600688168C90717D07C
:10034000816821F00101816001F057FB2168896813
:10035000C9070DD0054600BF01F04FFB411B2068C7
:10036000032902D38168C90704D18068C007F3D18B
:100370000020B0BDA06A40F01000A062E06A40F02A
:100380000100E0620120B0BD0146406A826A12F0BD
:10039000500F03D0006A026B084610470168826A5A
:1003A00042F400728262896801F46021B1F5602F25
:1003B00001D1017B09B100F020BB816A21F4807179
:1003C0008162816AC90448BF00F017BB816A41F0AD
:1003D0000101816200F011BB406A816A41F0400175
:1003E0008162C16A41F00401C16200F07EBB406AD3
:1003F00000F013BBB0B582B0044600200190216824
:100400008A68D2072BD1886840F00100886040F2EA
:100410000000C2F2000000684DF68361C4F21B3197
:10042000A0FB0101880C00BF0190019810B1019858
:100430000138F9E701F0E1FA21688968C9070DD1AF
:10044000054600BF01F0D9FA411B2068032902D3F9
:100450008168C90705D08068C007F3D0002002B0CA
:10046000B0BDA06A40F01000A062E06A40F0010058
:10047000E062002084F824000120F0E710B55A68FB
:100480000C46516801315160194606F07FFD40F27B
:1004900040210246C2F2000120464FF48073BDE8BD
:1004A000104009F031B9000080B591B1A1F1010C03
:1004B000002200BF10F80C3010F802E08354ACF1B9
:1004C00001039A4200F80CE003D201328A429C46B2
:1004D000F0D380BDFEE70000F0B5006843F2000EE7
:1004E0008368B2F1040C43F00103C4F2020E83608E
:1004F00021D0032300200C46654600BF2678DFB2DA
:10050000FF00013BBE40DFB2042F40EA060003D3E8
:10051000CEF8000000200323013D04F10104EDD1D9
:10052000DCB2032C07D000BFDCB2032CA3F1010323
:10053000FAD3CEF80000DEF8000011F80C30B3EB6F
:10054000106F13D1114411F8032CC0F307439A42E2
:100550000CD111F8022CC0F307239A4206D111F8EE
:10056000011CC0B2081A18BF0120F0BD0120F0BD67
:1005700080B582B0022909D001291ED11078012846
:100580000FD1D2F809000090684606E010780228E2
:1005900010D1D2F80900019001A80421FFF784FFCF
:1005A0000BE01878012808D1194602B0BDE8804058
:1005B00000F078B818780228F6D0002002B080BD8C
:1005C000DDF800C0BCF1000F08BF70471A440844B2
:1005D00010F8011BBCF1010C02F8011BF8D17047A7
:1005E00040F2A860C2F2000000F078BE40F6C800F9
:1005F000C2F2000000F072BE40F68400C2F20000B9
:1006000000F06CBE40F2B870C2F2000000F066BEAE
:1006100040F27470C2F2000000F060BE40F2FC7064
:10062000C2F2000000F05ABE40F64000C2F20000E4
:1006300000F054BE40F2EC60C2F2000000F04EBE8A
:1006400040F23070C2F2000000F048BE704708204F
:1006500001F0CAB840F6A77042F62402C2F20000C8
:100660000021C4F201020170516040F68521116041
:1006700040F27061C2F2000109686FF001020A6085
:100680004A6842F040024A60017849B943F20001E9
:10069000C4F200014AF6AA220A600378002BFBD0BC
:1006A00002F04CBA80B5486880684218927990424E
:1006B0001CBF042080BDB0F1010C0AD001F1080379
:1006C0000022604613F801EB013882EA0E02F9D1EC
:1006D00000E0002201EB0C00007A101A18BF012084
:1006E00080BD70B50469B4F926000AF01FF840F225
:1006F0007405C2F20005296802460846114609F051
:100700006BFE40F27206C2F20006318828600131A9
:100710008AB2052A318038BF70BD0021C4F2A00121
:1007200009F0F2FE09F0A9FC09F0E4FF20850020A1
:100730003080286070BD80B582B000218DF8061031
:10074000ADF8041001A9002202F0EAFD08B1FFF79C
:1007500081FF9DF804009DF805104FF461639DF83A
:1007600006205843C1EB011100EB8100104402B098
:1007700080BD000070B582B004460020019094F85E
:100780002400012801D1022563E0012084F824001F
:100790002046FFF7CFFD0546002857D1A06A41F259
:1007A000021188430230A06240F20000C2F2000051
:1007B0000668022002F0E0F9B6FBF0F0400000BF4E
:1007C0000190019810B101980138F9E72046FFF730
:1007D00011FE2068816841F00801816001F00DF987
:1007E00021688A6812070DD5064600BF01F005F999
:1007F000801B21680B2802D3886800071ED48868F4
:100800000007F3D4886840F00400886001F0F5F830
:100810002168896849070DD5064600BF01F0EDF84B
:10082000811B20680B2902D38168490706D48068A0
:100830004007F3D401206FF0030103E001251020ED
:100840006FF01201A26A11400843A062002084F8F0
:100850002400284602B070BD704780B590F824206F
:10086000012A01D1022120E0026891F808C05368F2
:10087000BCF1010F23F0400308BF40335360D2F8AE
:1008800004C04FF6E053CFF63F730CEA030CD1E9F6
:10089000003E43EA0C0343EA0E035360CB68536205
:1008A00009699162002180F82410084680BD00008B
:1008B00010B581B00022009290F82420012A01D1C5
:1008C000022172E04B680122062B80F8242012D806
:1008D000026803EB8303A3F1050E1F23D2F834C093
:1008E00003FA0EF40B682CEA040C03FA0EF444EA43
:1008F0000C04546325E002680C2B11D803EB83032E
:10090000A3F123041F23D2F830C003FA04FE0B68BE
:100910002CEA0E0C03FA04F444EA0C04146310E00D
:1009200003EB8303A3F141041F23D2F82CC003FA85
:1009300004FE0B682CEA0E0C03FA04F444EA0C04DF
:10094000D462092B21D903EB4304D2F80CC0A4F1E3
:100950001E0E0724896804FA0EF42CEA040401FA36
:100960000EF1214323F00104102CD16019D142F281
:100970000841C4F20101A1F10804A24218D0816A21
:1009800041F02001816201210CE0D2F810C003EB9C
:100990004303072489689C402CEA040499402143BE
:1009A00011610021002280F82420084601B010BD0A
:1009B0000A681202F5D40A68102B42F400020A6099
:1009C000EFD140F20001C2F2000109684DF68362E6
:1009D000C4F21B32A1FB0212910C01EB8101490010
:1009E000009100990029DCD000990139009100990B
:1009F00000294FF00001F7D1D4E7006842F200412E
:100A0000C4F20101884218BF704740F2F800C2F2F8
:100A10000000012180F8201070477047B0B5002811
:100A200060D00446806A40F00200A0622046FFF7D2
:100A300081FC0546002851D120686FF01F0101603C
:100A400000224168CFF6C072A2F501021140416058
:100A5000816840F2F062CFF6017211408160C16896
:100A600040F6FF7201F07F41C160016901F0404131
:100A7000016141699143416181696FF30B018161BA
:100A8000C1696FF30B01C161016A6FF30B01016270
:100A9000416A6FF30B014162816A6FF30B0181625E
:100AA000C16A01F07F41C162C16A01F07F41C16248
:100AB000016B01F040410163416B01F04041416332
:100AC000816B6FF315018163816B6FF31501816396
:100AD000204600F047F90020E062A062002084F880
:100AE000240000E001252846B0BD70470068C06CB6
:100AF000704710B5044600684168890644BF016824
:100B00005FEA817119D44168090644BF01685FEA50
:100B1000417138D4416849060ED50068C00708BF46
:100B200010BDA06A40F48030A062204600F0EAF8D0
:100B300020686FF00101016010BDA16AC90603D4ED
:100B4000A16A41F40071A162816801F46021B1F5EC
:100B5000602F10D1217B71B9416821F020014160E3
:100B6000A06A20F48070A062A06AC00403D4A06AC6
:100B700040F00100A0622046FFF73FFF20686FF0C1
:100B800012010160BFE7A16AC90603D4A16A41F45A
:100B90000051A162816801F4E041B1F5E04F0FD14D
:100BA000416821F080014160A06A20F48050A06279
:100BB000A06AC00510D4A06A40F00100A0620BE05A
:100BC0004168490508D4816801F46021B1F5602FBE
:100BD00002D1217B0029E3D02046FFF73DFE2068AB
:100BE0006FF00C01016095E710B5002800F08880D7
:100BF0000446806A30B90020E06284F82400204670
:100C000000F0E5F82046FFF795FBA26AA16AD2063C
:100C10002FD470BB41F2021021EA00000230A06222
:100C200094E80150E16980F0804383F49E3381F4BD
:100C300040221A4308BF4FF400214CEA010CAEF1E8
:100C40000101B1FA81F149097346BEF5807F18BFF1
:100C50000B02227D217B012A4CEA410C15D161B1A6
:100C6000A16A41F02001A162E16A41F00101E16263
:100C70000BE041F01000A06242E0A1694EF60002D4
:100C8000CFF6FF7202EB41310B4341684FF2FD7228
:100C900021F46941194341608168CFF6E172114046
:100CA00041EA0C01BEF5807F816002D0BEF1010FE8
:100CB00006D121690022CFF6F07202EB015200E06A
:100CC0000022C16A21F470011143C162806840F6BC
:100CD000FE61CFF61F710840604507D10020E06239
:100CE000A16A012262F30101A16210BDA06A40F075
:100CF000100020F00200A062E06A40F00100E06213
:100D0000012010BD10B5006842F60001C4F20101D7
:100D1000884200D010BD40F27064C2F20004204648
:100D2000FFF7E4FE40F61621884204D240F6A67092
:100D3000C2F200000EE040F27060C2F20000FFF765
:100D4000D5FE40F68521884238BF10BD40F6A77019
:100D5000C2F20000012101702068416821F04001C9
:100D6000416010BD10B50446006842F60001C4F2AF
:100D7000010188421AD042F20041C4F201018842C6
:100D800018BF10BD41F21800C4F20200016821F43E
:100D90000071016041F20000C4F20100062100F080
:100DA00079FC206ABDE8104000F04DBA41F218020B
:100DB000C4F202021068012120F4806341F20000B5
:100DC000C4F201001360BDE8104000F063BC70B5D0
:100DD00086B00446006842F60001C4F20101884270
:100DE0004FF00001CDE90411CDE9021147D042F2E4
:100DF0000041C4F2010188426AD141F21800C4F2F4
:100E00000200016841F400710160016801F40071A1
:100E100001910199016841F010010160006802A987
:100E200000F010000190019806200290032003902A
:100E300041F20000C4F2010000F0E2FC40F2A865BB
:100E40000820C2F20005C4F202000021C5E9000139
:100E500005F1080080224FF400734FF4006C4FF04E
:100E6000200E4FF4805680E80E502846EE6100F0C8
:100E700064FB08B1FFF7EEFB25626C6220E041F2F3
:100E80001800C4F20200016841F480610160016849
:100E900001F4806101910199016841F01001016044
:100EA000006802A900F01000019001980120029052
:100EB0000320039041F20000C4F2010000F0A0FC06
:100EC00012200E21002201F0FEFD122001F0ECFDA7
:100ED00006B070BD10B5044690F82400012804BF88
:100EE000022010BD012084F824002046FFF782FA7A
:100EF00018B1002184F8241010BD42F2044C20687F
:100F0000A16AC4F2010C40F2013291430CF57F72E8
:100F100001F580719042A16205D0A16A21F480118F
:100F2000A16241680AE0DCF8001011F4702FF4D0DF
:100F3000A16A41F48011A162DCF80010490504D5D2
:100F4000A16A012363F30D31A162A16A0023C904E0
:100F50004FF0000144BFE16A21F00601E1626FF049
:100F6000020184F824300160816801F46021B1F548
:100F7000602F06D1904208D1DCF8001011F4702FD8
:100F800003D0816841F4801102E0816841F4A0013E
:100F90008160002010BD70B515460446006842F619
:100FA0000002C4F2010290420E4605D042F2004116
:100FB000C4F20101884209D142F20440C4F20100A6
:100FC000006810F4702F1CBF012070BD94F824003D
:100FD000012804BF022070BD012084F824002046AF
:100FE000FFF708FA18B1002184F8241070BD42F20E
:100FF00004402168A26AC4F2010040F601739A43DA
:1010000000F57F7302F580729942A26205D0A06A52
:1010100020F48010A062486808E0026812F4702F83
:10102000F5D0A26A42F48012A2620068400504D59D
:10103000A06A012262F30D30A062A26A0020D204ED
:101040004FF0000244BFE26A22F00602E26284F836
:101050002400206A40F28932C0F6000240F2EF33E9
:1010600040F2D93C00F1280EC0F60003C0F6000C97
:101070008EE80C106FF002020A608A682B4642F478
:1010800080728A604C31324600F09DFA2068816897
:1010900001F460228168B2F5602F0CBF41F4A00119
:1010A00041F480118160002070BD60B110B504462C
:1010B000407920B900202071204600F006F8012078
:1010C0006071002010BD0120704781B0006843F2BC
:1010D0000001C4F2020188420CD141F21400C4F2B2
:1010E0000200016841F040010160006800F040002A
:1010F0000090009801B07047014690F82100022846
:1011000013D10868D1E90FC3026822F00E02026011
:10111000026822F001020260012000FA03F2CCF81A
:10112000042081F82100002002E0042088630120CF
:10113000002281F82020704780B590F82110022904
:1011400025D1026840F2040C1368C4F2020C23F0AB
:101150000E03136013680CF17C018A4223F0010135
:10116000116018D940F20841C4F202018A4245D008
:1011700040F21C41C4F202018A4241D040F23041A7
:10118000C4F202018A423DD14FF4807342E004214F
:101190008163012080BD4321C4F202018A420EDD39
:1011A0006B21C4F202018A421BDC4421C4F2020119
:1011B0008A4235D05821C4F202018A422DE008212A
:1011C000C4F202018A422ED01C21C4F202018A42DA
:1011D0002ED03021C4F202018A421ED14FF4807217
:1011E00027E06C21C4F202018A421ED08021C4F2A1
:1011F00002018A4211D14FF080721AE0012309E006
:10120000102307E00CF588614FF480338A4208BF51
:101210004FF48053CCF800340DE04FF4803208E0F6
:101220004FF4805205E0012203E04FF4801200E009
:101230001022CCF80020416B4FF48072028401B17F
:101240008847002080BD00284FF0010141D0F0B553
:1012500040F204430268C4F202034FF6F83403F18B
:10126000040ECBF6FD74D2F800C0724538BF04F509
:1012700080644CF6CD451444CCF6CC45A4FB054522
:101280002CF0010440F2000C6FF00307C4F2020CD2
:1012900007EA950514604FF000040CF5806601FA2A
:1012A00005F1146054609460D4603CBF0026C4F221
:1012B0000206C0E90F65724538BF0CF104031960DE
:1012C0000021C0E90A44C0E90C4484630484BDE8F9
:1012D000F0400846704790F82100704710B5D0E9FB
:1012E0000FE3D0F800C0DEF80020DCF80010DA4090
:1012F00054072BD511F0040428D0DCF8001089061F
:1013000005D4DCF8001021F00401CCF80010042210
:10131000C4F2020202F17C018C4548D940F2084136
:10132000C4F202018C4500F0A58040F21C41C4F2D9
:1013300002018C4500F0A08040F23041C4F202016D
:101340008C4540F09B804FF480619FE0940743D52B
:1013500011F0020440D0DCF80010890608D4DCF853
:10136000001021F00A01CCF80010012180F82110B2
:101370000422C4F2020202F17C018C4547D940F2FA
:101380000841C4F202018C4500F0A58040F21C41E6
:10139000C4F202018C4500F0A08040F23041C4F25A
:1013A00002018C4540F09B804FF400719FE0432187
:1013B000C4F202018C453EDD6B21C4F202018C4572
:1013C0004BDC4421C4F202018C4500F0938058218B
:1013D000C4F202018C455CE0120740F1AD8011F0CF
:1013E000080100F0A980DCF8001021F00E01CCF813
:1013F0000010012101FA03F2CEF804208163016B91
:101400004FF480720029028440F0838094E04321ED
:10141000C4F202018C453FDD6B21C4F202018C4510
:101420004CDC4421C4F202018C4575D05821C4F231
:1014300002018C4566E00821C4F202018C455CD0B3
:101440001C21C4F202018C455FD03021C4F202019C
:101450008C451ED14FF4806158E06C21C4F202012A
:101460008C454CD08021C4F202018C4511D14FF043
:1014700080614BE0042109E0402107E002F5886328
:101480004FF480219C4508BF4FF48041C2F80014FE
:101490003DE04FF4802139E00821C4F202018C457F
:1014A0003DD01C21C4F202018C453DD03021C4F254
:1014B00002018C4526D14FF4007136E06C21C4F254
:1014C00002018C452DD08021C4F202018C4519D136
:1014D0004FF0007129E0022109E0202107E002F528
:1014E00088634FF400319C4508BF4FF40051C2F8A7
:1014F00000141BE04FF4804108E0042106E04FF4A3
:10150000800103E04FF400310FE040211160C16A17
:1015100091B1BDE8104008474FF4005105E00221A9
:1015200003E04FF4001100E020211160816A0022E5
:10153000002980F82020ECD110BD002840D02DE9F2
:10154000F04340F20042C4F2020201684FF6F83361
:1015500002F1080CCBF6FD73614538BF03F58063DB
:1015600003EB010C4CF6CD43CCF6CC43ACFB033C77
:101570006FF0030700F10C0907EA9C07D0E9013E70
:1015800099E87002D0F81C8038BFA2F58062C0E9EB
:101590000F270A6843F6F077BA431A4342EA0E026D
:1015A00022432A43324342EA090242EA08020A601D
:1015B00000214FF4807281630284BDE8F04300E0B3
:1015C000012108467047F0B590F820C0BCF1010F2A
:1015D00032D090F821C04FF0010EBCF1010F80F81D
:1015E00020E026D14FF0020C80F821C04FF0000C13
:1015F000C0F838C0D0E900C4C56AC66BDCF800701A
:10160000102C27F00107CCF80070006C0EFA00F0E7
:1016100070600846CCF8043004BF10460A46CCF887
:101620000800CCF80C20DCF800003DB140F00E00C2
:101630000CE0002180F820100220F0BD20F0040012
:10164000CCF80000DCF8000040F00A00CCF8000004
:10165000DCF8000040F00100CCF800000020F0BDF4
:10166000F0B581B0044600F0C8F9054600F0C5F9B0
:10167000401BA0420CD243F20006C4F200064AF618
:10168000AA2700BF376000F0B8F9401BA042F9D389
:1016900001B0F0BD2DE9F04F41F60042C4F2010265
:1016A0004FF0060A904208BF4FF0050A002964D0A7
:1016B000A0F18042A2F5843240F2004B4FEAB22200
:1016C000C4F2010B6FF01F040127052A38BF9246B0
:1016D0007A1E0123934013EA010547D04FEA92098D
:1016E000ABF57E7304F1200653F8298006F00C0E4A
:1016F0000F2202FA0EFC08EA0C080AFA0EF29045D4
:101700001ED153F8292022EA0C0243F82920DBF8E5
:1017100000206FEA050CAA43CBF80020DBF8042078
:10172000AA43CBF80420DBF80820AA43CBF8082012
:1017300040F20C42C4F201021368AB43136001E0B3
:101740006FEA050C0346B5F5807F24BF26460433B7
:101750001D680F22B24025EA0202042505FA06F6AA
:1017600032431A60C26802EA0C02C26031FA07F220
:1017700007F1010704F10404AAD1BDE8F08F08289D
:1017800018BF704710B541F20000C4F201000821F3
:1017900000F029F901281CD100F02FF940F278045B
:1017A000C2F200042168401AB0F5967F11D340F2CE
:1017B0002C20C2F20000416800698A694B690A3234
:1017C0008A61028A01320282581C486100F015F9D0
:1017D000206040F21440C4F20100016841F00801A9
:1017E0000160BDE81040704740F21441C4F20101AD
:1017F0000A68024214BF08607047FFF7C0BF0000CC
:101800002DE9F04F83B041F60043C4F201030E68A6
:1018100006229842019008BF0522002E009200F097
:10182000DF80019840F20C45A0F18043A3F584339A
:101830004FEAB32740F200404FF6FF73C4F20105B0
:10184000C4F20100009A4FF0000E4FF0010CC1F2FB
:1018500010034FF0000A4FF0000B4FF00F08052F58
:1018600038BF3A46009200BF0CFA0AF916EA090F8F
:1018700000F0AD804E689E4208DC032E35D8DFE8CC
:1018800006F028023F43D1F80CB043E04FF6FF7258
:10189000C1F2210296420DDC0022C1F211029642F1
:1018A00017D00022C1F21202964212D00022C1F2D9
:1018B00021020CE00022C1F22202964209D000224D
:1018C000C1F23102964204D00022C1F232029642A5
:1018D00020D18E688EB1012E019A14BFC2F81490E7
:1018E000C2F810904FF0080B14E0112E0FD0122EFA
:1018F00010D1CF6807F10C0B0CE04FF0040B09E09E
:10190000CF6807F1080B05E04FF0000B02E0CF684D
:1019100007F1040B7446BAF1080F28BF203C019F61
:1019200028BF04373E6808FA04F226EA02020BFADE
:1019300004F632433A60CA79D20648D541F2180714
:10194000C4F202073A684FF6084C42F001023A60CE
:101950003A68CFF6FF7C02F001020292029A2AF066
:101960000302024452F80C700EF00C0608FA06F45A
:10197000A743009C04FA06F6374342F80C70D1F8EE
:1019800004C05FEACC32026854BF22EA090642EA88
:1019900009065FEA8C320660426854BF22EA0906F3
:1019A00042EA09065FEACC224660826854BF22EA16
:1019B000090642EA09065FEA8C2286604FF0010CB4
:1019C0002A6854BF22EA090642EA09062E600E6818
:1019D0000AF1010A36FA0AF20EF1040E7FF444AF5E
:1019E00003B0BDE8F08F8068084018BF0120704741
:1019F000002A08BF09040161704740F6EC70C2F28A
:101A000000000068704770B310B5044690F83D00C0
:101A100028B9002084F83C00204602F0F8FB24207E
:101A200084F83D002068C16821F40051C16020465F
:101A300007F045F82068016921F49041016141698E
:101A400021F022014161416941F008014161C16811
:101A500041F40051C16000202021206484F83D1031
:101A600084F83E1010BD0120704770477047F0B5F4
:101A700081B00446006800254769426894F83E102A
:101A800002F48076FA0508D53EB16FF480724261A7
:101A90000268012542F400420260BA0504D51EB175
:101AA00002356FF4007242617A0516D5AEB1628DCF
:101AB00094F83D30D4F830C0202908BF002A22D045
:101AC0006FF48062402905F10405426101D01029BC
:101AD00003D1016841F400710160380506D52EB1CB
:101AE000206808356FF40061416100E04DB1206C61
:101AF00040EA05012046216401B0BDE8F04003F052
:101B000013B801B0F0BD03F0F701212909D0282B4B
:101B100008BFBCF1210F04D06FF48061416104352E
:101B2000DBE794F83D10E26AB2F1080318BF012325
:101B3000203A18BF0122134208BF28291CD02129AE
:101B400034D10021CFF6FF71E162212121632021F0
:101B500084F83D10002184F83E10416821F4E061D2
:101B600041606FF480614161016821F4806101602E
:101B7000204600F0E8FEB0E70021CFF6FF71E162F9
:101B8000416821F4E06141606FF480614161016866
:101B900021F48061016000202021206384F83D1041
:101BA00084F83E00204600F096FC96E76FF48061D2
:101BB000416192E7F0B581B0076804467868E26A4F
:101BC00094F83E3094F83DE0402B01D0102B1CD10E
:101BD000BE697D69E90744D1B2F12A4F00F0E38282
:101BE000B2F52A0F00F0DF8200F400724FF0010C12
:101BF00029078CEA522C38D5BAB3606B616C002887
:101C0000C9B2396140F0F980F9E0216C00F4007349
:101C100000290CBFBE6900267D69A90741D5002BAC
:101C20003FD0206C00B1BE6994F83D0000F0280060
:101C3000282840F081807868002320F48060786054
:101C4000012020EA960130064FF0180058BF0C2002
:101C5000225A204684F83C3001B0BDE8F040FFF73E
:101C600005BF810547D44FF0010CA90749D5BCF148
:101C7000000F46D194F83E30E06A226B94F83D1094
:101C8000222906D1216D002940F01781402B40F018
:101C900014810020009078690090B8690090009845
:101CA00081E2E90652D5002B50D094F83D50786877
:101CB00020F4E06078600020009078690090386837
:101CC00040F0010038600098386820F48060386087
:101CD0007868000540F1418105F0F700264622288A
:101CE00040F01A8156F8380F0168496826F80E1C32
:101CF00036F80E1C18E1E06AB0F52A0F5AD101201F
:101D00005DE07968720701F4006100F185800029C7
:101D100040F04982690605F0040140F1A38110F406
:101D2000806000F09F81002940F09C81204601B036
:101D3000BDE8F04003F01CB80020009079690091E4
:101D4000B9690091009984F83C002CE20EF0F7018B
:101D5000212976D1290605F0040240F1478110F4CB
:101D6000806000F04381002A40F0408194F83D00FB
:101D7000618D002900F01782616A11F8012B3A6128
:101D80006162618D01396185618D002940F00B82AE
:101D9000292840F008827868282120F48060786043
:101DA00021202063204684F83D1001B0BDE8F040BA
:101DB00000F0C9BDE06AB0F12A4F01D10820E0620D
:101DC00094F83E00402809D1206D616C002801F094
:101DD000FE0018BF40F001003861E4E12069B0F571
:101DE000804F5CD194F83D00616C212801F0FE0128
:101DF00018BF01313961606B08B1806A38B9A06BD6
:101E0000002800F0D081806A002800F0CC8178683A
:101E100040F400607860C6E1002940F0C4812906E2
:101E200005F0040140F12B8110F4806000F027815F
:101E3000002940F02481204601B0BDE8F04003F0C5
:101E400053B8690605F0040240F1DF8010F48060A9
:101E500000F0DB80002A40F0D88094F83D00618DCE
:101E6000002900F0A0813969626A1170616A01314C
:101E70006162618D01396185618D002940F0938136
:101E80002A2840F090812068416821F480614160F7
:101E9000222028212063204684F83D10DDE0206DBB
:101EA000002800F0C680206D012840F07C81606C25
:101EB000062101EAD010F1308EE7216D89B9216940
:101EC000B1F5404F0DD10020009078690090B869BD
:101ED00000900098386840F480703860206D0130C0
:101EE00060E1618D61B1618D012940F0D8802028C9
:101EF00018BF082840F00A81386820F480603860F4
:101F00000020009078690090B869009000983868C7
:101F100040F40070386044E156F8340F01684968B5
:101F200026F80A1C36F80A1C19B1216C41F004018C
:101F30002164796821F400617960FFF7CCF9012808
:101F40000BD0306844F64D21C0F600014163FFF725
:101F5000F3F810B13068416B8847608DF8B12068A4
:101F60004169490709D50069616A0870616A20689A
:101F700001316162618D013961854169490608D588
:101F80000069616A0870606A01306062608D0138C2
:101F90006085608D18B1206C40F004002064206CD6
:101FA00028B1204601B0BDE8F04002F0BDBD2A2DA9
:101FB00007D100202063282084F83D00204600F04F
:101FC000C1FC94F83D00282839D10020CFF6FF70DD
:101FD000E06200212020216384F83D00204684F83F
:101FE0003E1001B0BDE8F04000F075BA002A00F0E4
:101FF000DA80002B00F0D780608D002800F0D380BD
:10200000606A10F8011B39610EE0002A00F0CB80F5
:10201000002B00F0C880608D002800F0C480386973
:10202000616A0870606A01306062608D01386085A5
:10203000B9E0606C062101EAD010F030CCE6206BEC
:10204000222818BF222D40F0AE80002120202163DD
:1020500084F83D00204684F83E1001B0BDE8F04011
:1020600000F070BCB1FA81F0400950EA0C0040F079
:102070009A80204601B0BDE8F04002F00ABEB1FAF5
:1020800081F0400950EA0C0040F08D80BEF1210F34
:102090001DD1204601B0BDE8F04002F0E5BE618DE3
:1020A00002291CD110285BD8012114228140C0F2E2
:1020B0000102114254D0396841F480613960002135
:1020C000009179690091B9690091009957E0402B1E
:1020D00069D1204601B0BDE8F04002F05CBF39682C
:1020E00041F4806139607968090531D5421E1F2AA3
:1020F0005BD80121914048F28102C8F200021142EE
:1021000053D0786840F48050786021E010F5803F2B
:102110000BD1386820F480603860786800057FF55E
:10212000EFAE386820F4806011E0122A02D1012855
:102130007FF4E2AE1028F4D8012101FA00F0142156
:10214000C0F201010842ECD0386840F48060386089
:102150000020009078690090B8690090009820E015
:10216000396841F40061396000210091796900917A
:10217000B96900910099396821F480613960796802
:1021800009050ED5421E1F2A13D80121914048F29D
:102190008102C8F2000211420BD0786840F48050EE
:1021A00078600020206501B0F0BD10F5803FA8D018
:1021B000CEE710F5803FF0D0F3E7704770B5B8B3C5
:1021C000044690F83D0028B9002084F83C002046E1
:1021D00000F07AFB242084F83D002068016821F09B
:1021E00001010160016841F400410160016821F4CE
:1021F0000041016000F070FE48F28041C0F21E0113
:1022000040F60013D4F804E088424FF00001C0F219
:102210003D0348F2A16C4FF0000238BF0121984203
:10222000C0F2010C38BF0122E64538BF0A460AB1A8
:10223000012070BD4DF68361C4F21B31A0FB011279
:102240002168950C4B684FF4967623F03F0343EAE0
:102250009243754344F6D3564B60C1F262060B6A53
:10226000A5FB0656B50923F03F03E64538BF950C9C
:102270006A1C1A430A62CA6948F2A0664CF6FF73E8
:10228000C0F20106B64522EA03020BD801384FEA34
:102290004E03B0FBF3F001306FF31F30042898BFFA
:1022A00004201AE0A36801385BB119230EFB03F385
:1022B000B0FBF3F001306FF31F3068B100F58040E0
:1022C00007E00EEB4E03B0FBF3F001306FF31F306D
:1022D00010B100F5004000E001201043C86108681B
:1022E000D4E9072320F0C000104318430860886831
:1022F00048F2FF3204F10C0690434CCE18431043D1
:10230000A5698860C86820F0FF0030432843C86092
:10231000086840F00100086000202021206484F853
:102320003D10206384F83E0070BD00002DE9F04FA1
:1023300083B01E4691460D460446FFF75EFB94F8B7
:102340003D10202910D140F20208C0F210080746C3
:102350002046414601221923009702F07DFF18B95B
:1023600094F83C00012804D10227384603B0BDE8A8
:10237000F08F0121206884F83C100168C90703D15F
:10238000016841F0010101600168B9F1020F21F417
:10239000006101604FF0240184F83D104FF000010E
:1023A000216440F20001CFF6FF71E162016898BF3D
:1023B0004FF0020941F48071016020464FF0011195
:1023C00000223346009702F047FF216838B10868C1
:1023D0000327C00544BF4FF400702064C5E705F033
:1023E000FE004FF0010B4FF0A00A01900198086128
:1023F000FFF703FB216805464B694A6994F83D7075
:10240000A02F1AD013F0020008BF12F4806014D17C
:10241000FFF7F3FA16B1401BB04201D984F83DA092
:1024200021684A69486994F83D30A02B05D012F024
:10243000020208BF10F48060EAD0202084F83D003A
:1024400048690A68800742F400720A6022D46FF477
:1024500080604861204641460122192300950127EA
:1024600002F0FAFE00287FF480AF0BF1010BCB45A0
:1024700029D0206800220168334641F48071016050
:1024800020464FF00111009502F0E6FE2168002879
:10249000ACD09CE700260296486901220290886928
:1024A000414602900298204619230095012702F028
:1024B000D3FE00287FF459AF202084F83D0084F833
:1024C0003C60002751E7202084F83D0000200127D0
:1024D00084F83C0049E77047704770477047704781
:1024E0002DE9F04784B0044600201F4616460D46ED
:1024F0000390FFF782FA94F83D1020290FD10221B2
:102500008146C0F21001204601221923CDF8009027
:1025100002F0A2FE18B994F83C00012803D1022071
:1025200004B0BDE8F0870121226884F83C101368EC
:10253000DDE90D080C99DB0703D1136843F00103B3
:102540001360136823F400631360222284F83D2093
:10255000402284F83E200022226461626085608D02
:10256000294620850020CFF6FF70E06220463246E3
:102570003B46CDF80080CDF8049002F05BFD08B139
:102580000120CDE7208D022810D0012824D000287A
:1025900038D100200290206841690291816902913E
:1025A0000299016841F40071016037E02068016818
:1025B00041F400610160EFF3108072B600200290D8
:1025C000206841690291816902910299016821F4B0
:1025D0008061016062B621E02068016821F48061B9
:1025E0000160EFF3108072B600200290206841690C
:1025F0000291816902910299016841F400710160C0
:1026000062B60BE02068016841F48061016000213E
:10261000029141690291806902900298208D002800
:1026200000F0A980042740F2000A4BF28956C0F25C
:102630000107C2F2000AC1F2F846232580B203283E
:102640000CD8022825D0012844D1204641464A46CC
:1026500002F088FE002800F07E8091E72046414687
:102660004A4602F07FFE00287FF48AAF2068616A44
:1026700000690870606A2268411C208D616201381F
:102680002085638D013B638553695B0770D51069B5
:1026900064E02046394600224346CDF8009002F01F
:1026A000DBFD00287FF46CAFEFF3108072B620687A
:1026B000616A026842F40072026000690870606A30
:1026C000218D01306062481E2085608D0138608553
:1026D00062B640E02046394600224346CDF80090DD
:1026E00002F0BAFD00287FF44BAF2068016821F4A6
:1026F00080610160EFF3108072B62068616A006942
:102700000870606A218D0130013960622185618D18
:1027100001396185DAF80010C908A1FB0612110A17
:1027200069430391039901390391039951B32168D6
:102730004A695207F6D50A6842F400720A600969CC
:102740000170606A218D01306062481E2085608DB5
:102750000138608562B62068616A00690870606A45
:10276000218D01306062481E2085618D01396185AF
:1027700001047FF463AF202084F83D00002084F83A
:102780003E000CE000202021206384F83D1084F8F6
:102790003E00206C40F02000206462B60120002141
:1027A00084F83C10BCE600002DE9F04383B0994664
:1027B00016460F460446FFF720F994F83D102029ED
:1027C0000ED102210546C0F2100120460122192334
:1027D000009502F041FD18B994F83C00012803D19E
:1027E000022003B0BDE8F0830121226884F83C1088
:1027F0001368DDE90B080A99DB0703D1136843F07E
:1028000001031360136823F400631360212284F82A
:102810003D20402284F83E200022226461626085CF
:10282000608D394620850020CFF6FF70E06220469B
:1028300032464B46CDF80080019502F07DFC08B190
:102840000120CEE7208D10B3204641462A4602F0F3
:10285000B9FD10BB616A2268084610F8013B13619C
:10286000238D6062581E2085678D013F67855769FB
:102870007F070AD5070408D048781061881C606279
:10288000981E2085618D013961850004DCD12046C8
:1028900041462A4602F0ACFC40B1206C0428CFD15E
:1028A0002068016841F400710160C9E7206801688F
:1028B00041F400710160202084F83D00002084F87C
:1028C0003E0084F83C008CE710B586B045F200412C
:1028D0000068C4F2000100228842049230D141F223
:1028E0001804C4F20204206840F008002060206848
:1028F00000F0080001900198C0200290122003907F
:102900000320059001F5384002A9FEF779FF6068C1
:102910000B2140F4001060606068002200F4001099
:10292000019001981F2000F0CEF81F2000F0BCF8A5
:1029300020200C21002200F0C6F8202000F0B4F87E
:1029400006B010BD70477047B0B520B304460068AC
:10295000D4E901124CF6CC43036045F255530360B1
:1029600041608260FFF749F82168CA6892070DD07C
:10297000054600BFFFF741F8401B2168282802D315
:10298000C868800709D1C8688007F3D14AF6AA2031
:1029900008600020B0BD0120B0BD0320B0BD40F2F2
:1029A000040040F6EC71C2F20000C2F200010078AF
:1029B0000A6810440860704780B542F20000C4F213
:1029C0000200016841F010010160032000F0A6F848
:1029D0000F2000F004F800F02AF8002080BDB0B508
:1029E00040F20402C2F2000240F200011278C2F288
:1029F00000014FF47A730968B3FBF2F20446B1FBAD
:102A0000F2F1084600F04CFF0F2C4FF001050CD8F6
:102A100058B94FF0FF3021460022002500F053F84E
:102A200040F20800C2F2000004602846B0BD10B5B4
:102A300082B041F21800C4F202000168002241F0A5
:102A4000010101600168022401F001010191019975
:102A5000416841F0805141604068022100F080509F
:102A600000900098012000F02EF8012000F01CF8E2
:102A70000420C4F20100016864F31A61016002B02D
:102A800010BD00280FD400F01F01012202FA01F14D
:102A90004EF280124009CEF2000242F82010BFF33D
:102AA0004F8FBFF36F8F704700280BD400F01F01CA
:102AB000012202FA01F14EF200124009CEF20002A8
:102AC00042F82010704710B54EF60C5CCEF2000CA8
:102AD000DCF80030C3F3022E8EF00704042C28BF6C
:102AE0000424BEF103034FF0FF3E0EFA04F438BF96
:102AF0000023A14399400EFA03F39A43114300F0D7
:102B00000F02043A624409010C3200F16043B0F153
:102B1000FF3FC8BF03F56442117010BD4EF60C5163
:102B2000CEF200010A684FF6FF031A4060F30A2252
:102B300042F0806040F0FD700860704706F02CFEA7
:102B40002020C4F20E2001210160704740F6A770DA
:102B5000C2F2000001210170704710B540F2144428
:102B6000C4F201042068C00358BF10BDFFF7EEFF98
:102B70004FF48030206010BD80B5421E0146072A08
:102B80004FF0000009D8DFE802F01E39470447473C
:102B90004704BDE8804000F0C5B910293CD141F29E
:102BA0000001C4F202014A680868C00135D5C2F3C9
:102BB00083402CA3185CD2033AD440F60012C0F232
:102BC0003D02504340E041F20000C4F20200016ABD
:102BD00040F202320A40B2F5817F04BF4FF4004058
:102BE00080BD01F44071B1F5407F18D0B1F5007F90
:102BF00013D1406A49F64041800716E000F07FF9A2
:102C000041F20001C4F2020149680222C1F381319C
:102C100002EB4101B0FBF1F080BD002080BD0068F7
:102C200046F636618003C0F2010101EAE07080BD22
:102C30004A6810A3C2F340429A5C41F60033C0F2E6
:102C4000B703B3FBF2F250434968490248BF80BD65
:102C50004AF6AB214000CAF6AA21A0FB01014808B0
:102C600080BD00BF02030405060708090A0B0C0D0E
:102C70000E0F1010010200002DE9F04182B0044651
:102C8000007841F20406C007C4F2020648D0B069D9
:102C900010F0805808D1B06940F08050B061B06940
:102CA00000F080500190019847F20007C4F200073D
:102CB0003868C00510D4386840F480703860FEF77A
:102CC0009CFE05463868C00506D4FEF796FE401BFC
:102CD0006428F7D9032035E0F06910F4407012D071
:102CE000616801F4407188420DD0F06940F24042C1
:102CF000C4F24222012320F4407113600023C00774
:102D00001360F16121D1F069616820F440700843DB
:102D1000B8F1000FF06103D1B06920F08050B061CC
:102D20002068810705D53168A26821F4404111432C
:102D30003160C00605D53068616920F48000084321
:102D40003060002002B0BDE8F081FEF756FE054677
:102D500041F28837F0698007D5D4FEF74EFE401B5C
:102D6000B8424FF00300F5D9ECE700002DE9F0433D
:102D700081B0002800F0878042F20008C4F2020807
:102D80000446D8F800000D4600F0070088420CD237
:102D9000D8F8000020F007002843C8F80000D8F851
:102DA000000000F00700A8426DD1206841F204093C
:102DB0008107C4F2020917D5410705D5D9F80010DB
:102DC00041F4E061C9F80010010705D5D9F80010F9
:102DD00041F46051C9F80010D9F80010A26821F040
:102DE000F0011143C9F80010C00743D1D8F8000022
:102DF00000F00700A8420CD9D8F8000020F0070026
:102E00002843C8F80000D8F8000000F00700A842E6
:102E100039D12068410707D5D9F80010E26821F4BC
:102E2000E0611143C9F80010000708D5D9F8000087
:102E3000216920F4605040EAC100C9F8000000F0A8
:102E400071F8D9F800104AF63632C1F30311C0F612
:102E50000002515C40F2000220FA01F140F2080049
:102E6000C2F200000068C2F200021160FFF7B7FD75
:102E7000002009E06068022809D0012827D159F80C
:102E8000041C890307D4012001B0BDE8F08359F880
:102E9000041C8901F7D5D9F8001021F0030108437B
:102EA000C9F80000FEF7A9FD064641F2883700BFC9
:102EB000D9F80000616800F00C00B0EB810F95D0EC
:102EC000FEF79BFD801BB842F2D90320DCE759F8DE
:102ED000041C8907D7D5DEE740F2000041F2040167
:102EE000C2F20000C4F20201006809684AF64632E4
:102EF000C1F30221C0F60002515CC840704740F2A5
:102F0000000041F20401C2F20000C4F202010068B4
:102F100009684AF64632C1F3C221C0F60002515C8C
:102F2000C840704741F20401C4F202010B6841F647
:102F3000003003F00C02042AC0F2B70008BF70474B
:102F4000082A0CD1C3F3834C0CA212F80C20DB032B
:102F50000AD440F60010C0F23D005043704741F2E1
:102F60000020C0F27A007047096808A3C1F340410D
:102F7000595C5043B0FBF1F0704700BF02030405F9
:102F8000060708090A0B0C0D0E0F101001020000B5
:102F90002DE9F04182B0002800F0B78004460078A7
:102FA00041F20006C007C4F2020627D0706800F0A4
:102FB0000C0004281BD0706800F00C00082802D117
:102FC0007068C00313D46068002800F03D81B0F53C
:102FD000A02F00F05181B0F5803F00F051813068A2
:102FE00020F480303060306820F480204BE130687D
:102FF000800303D56068002800F087802078800770
:1030000018D5706810F00C0F07D0706800F00C0035
:10301000082826D17068C00323D43068800702D501
:103020002069012871D13068616920F0F80040EA18
:10303000C1003060207800074ED5A06938B3002069
:10304000C4F242200121C0F88014FEF7D6FC0546E8
:10305000706A80072DD4FEF7D0FC401B0228F7D9F8
:103060001FE12069002840F20000C4F2422000F075
:10307000A28001210160FEF7C0FC05463068800790
:10308000D1D4FEF7BAFC401B0228F7D909E1002091
:10309000C4F242200021C0F88014FEF7AEFC0546C1
:1030A000706A800718D5FEF7A8FC401B0228F7D9E4
:1030B000F7E040F20000C2F20000006844F6D3518D
:1030C000C1F26201A0FB0101480A019000BF019812
:1030D000411E00280191F9D12078400717D4E569F5
:1030E0008DB1706800F00C00082843D1012D0CD080
:1030F0007068216A00F480328A4206D1616A00F465
:103100007010884201D10020CCE00120CAE0F069B3
:1031100010F0805808D1F06940F08050F061F069FB
:1031200000F080500090009847F20007C4F20007BA
:103130003868C0050FD4386840F480703860FEF7F6
:103140005CFC05463868C00505D4FEF756FC401BFC
:103150006428F7D9A5E0E06800283DD0052854D0C0
:10316000012856D0306A20F001003062306A20F029
:10317000040051E00027C4F2422700203866FEF721
:103180003CFC022D05460BD13068800140F18D805A
:10319000FEF733FC401B02284FF00300F4D981E016
:1031A00030688001AFD5FEF728FC401B02284FF0A5
:1031B0000300F5D976E000210160FEF71EFC05460C
:1031C000306880077FF536AFFEF717FC401B0228FA
:1031D0004FF00300F4D965E0306A20F0010030625E
:1031E000306A20F004003062FEF707FC054641F229
:1031F000883700BF306A80071DD5FEF7FEFB401BF5
:10320000B8424FF00300F5D94CE0306A40F00400BA
:103210003062306A40F001003062FEF7EEFB054696
:1032200041F28837306A800705D4FEF7E6FB401B81
:10323000B842F7D935E0B8F1000F7FF450AFF0692C
:1032400020F08050F0614AE7306820F48030306030
:10325000306820F480203060FEF7CFFB054600BFC9
:10326000306880037FF5CAAEFEF7C7FB401B6428B9
:103270004FF00300F4D915E0306840F4802030604E
:10328000306840F480303060FEF7B7FB054600BF81
:10329000306880033FF5B2AEFEF7AFFB401B6428F9
:1032A000F6D9032002B0BDE8F081206AB0F5803F76
:1032B00005D17168A26821F4003111437160716811
:1032C000626A21F47411104308437060012038666B
:1032D000FEF793FB044600BF306880013FF513AF53
:1032E000FEF78BFB001B02284FF00300F4D9D9E74F
:1032F00098B1017C01294FF002010FD0417446F6CC
:103300002C41C4F200010A6822F07F021A430A60CD
:10331000012141740021017400E001210846704739
:103320002DE9F047064600284FF0010000F09F808D
:103330000C46002900F09B8030684168490700F185
:103340009E8092468269C169836948F6890583EA4D
:1033500002073F041CBFC1691A4689B241EA024113
:103360004BF2C532C9F2A212A1FB0223DA0A4FF4D2
:10337000616302FB13139FB26F437D0D65702D01D6
:10338000A5EB5757A3EB870345F28017C0F201075F
:10339000B942A37031D344F20753CCF22E23A1FBE0
:1033A00003374AF6AB23CAF6AA23A2FB03352B093F
:1033B00003EB4303A2EBC3022270026A406A4FEAA6
:1033C000174880B240EA0240471A98BF4FF0FF37D3
:1033D000421C4AF68062CFF6FE7208FB021908BF53
:1033E00007463046494604F0F8FE002847D1781CCD
:1033F0003FD007EB090130463EE02270BAF1000FE2
:1034000034D02178CD26A1F10A03DFB27743FD0A3B
:1034100005EB85056278A3EB45030125A07805EB54
:10342000D727092988BF43EA07112170A2F10A01B1
:10343000CBB27343DF0A07EB8707A1EB470105EB2C
:10344000D323092A88BF41EA0312A0F10A0162705E
:10345000CAB27243D30A03EB8303A1EB430105EB2A
:10346000D222092888BF41EA0210A0700020BDE8DE
:10347000F08730464FF0FF3104F09BFE10B1012081
:10348000BDE8F0873046414604F0C2FDB6E7B0B56E
:10349000002841D00446407C20B9002020742046FA
:1034A00000F045F802206074204600F0C3F878BBB5
:1034B000204604F017FE58BB2168A0684B6846F60A
:1034C0002C42C4F2000223F007034B6018B153688A
:1034D00023F001035360136823F4607318431060F2
:1034E0006068421C06D101200125FFF745FB80B131
:1034F000216801388A6822F00F0242EA10428A608D
:10350000CA6860F30F022046CA6004F003FE30B1BF
:1035100001250420607400E001252846B0BD40F27A
:1035200001100025A4F80D000120E573F2E780B535
:1035300082B0006842F60001C4F20001884214D152
:10354000FFF7FEFA41F21C00C4F20200016841F0EC
:10355000006101600068012100F0006001900198A5
:1035600040F23C40C4F24220016002B080BDB0B5E0
:10357000044600284FF0010018BF002900D1B0BD5B
:10358000207C01284FF00200F9D0012323746074DD
:10359000087802B3020902EB820200F00F0000EB90
:1035A0004200C0B24FF4616250434A7889781309EF
:1035B00003EB830302F00F0202EB4302D2B2C2EB31
:1035C000021200EB82000A0902EB820201F00F01F5
:1035D00001EB420108E04FF4616250434A78897878
:1035E000C2EB021200EB8200C9B245182046294600
:1035F00004F0F3FD10B10120042116E020684168B9
:1036000021F005014160016A406A80B240EA014050
:10361000A84208D200F5803000F5A341204604F00E
:10362000C8FD0028E7D10020012161740021217428
:10363000B0BD0000B0B5A8B104460068416821F0F3
:1036400008014160FEF7D9F9054600BF20684068CF
:10365000000709D4FEF7D1F9401BB0F57A7FF5D900
:103660000320B0BD0120B0BD0020B0BD70B540F258
:103670002020C2F2000041680131B1F57A7F41603B
:1036800003D3012141700021416040F62440C2F281
:1036900000000079002840F28400C2F2000030D01F
:1036A000018801318AB2B2F57A7F01800DD340F2F0
:1036B0002C21C2F200010A694968D3680D690133FF
:1036C000D3606A1C0A610021018040F28000C2F2CE
:1036D00000000188B9B101318AB248F6B8039A42B4
:1036E00001801DD340F22C21C2F20001096940F291
:1036F0008603C2F200030A8A1B889A4204BF012291
:103700000A7500210BE040F22C21C2F20001096988
:1037100040F28602098AC2F2000211800121018072
:1037200040F28A01C2F200010888013082B20880AA
:1037300040F21420B2F57A7FC2F2000012D340F2B8
:103740002C22C2F2000252680023D5680B80691C4B
:10375000D160B0F90010012904DB01880139018032
:10376000018831B140F27C01C2F20001097831B127
:1037700019E040F27C01C2F2000100220A700088C8
:1037800088B940F21220C2F20000B0F90010652999
:1037900003DB01880139018005E040F27C00C2F2C0
:1037A00000000121017040F28200C2F20000018895
:1037B00001318AB27D2A018007D340F6A571C2F299
:1037C000000101220A700021018040F23411C2F28E
:1037D0000001486A01306428486204D3012081F85E
:1037E00028000020486240F26010C2F20000426AE5
:1037F0000132642A426204D3012280F82820002288
:10380000426240F27E02C2F20002138801339DB28E
:10381000B5F5FA7F138007D340F21023C2F20003FC
:1038200001251D70002313804A6962B10132052A07
:103830004A6108D34A6822B101238B700023C1E991
:10384000013200224A61416961B1013105294161BA
:1038500008D3416821B1012282700022C0E9012110
:103860000021416140F6E874C2F2000440F288058C
:103870002178C2F20005287809B101302870C0B261
:10388000022838BF70BD40F60040C4F201004FF47A
:10389000807100220026FEF7ABF826702E7070BDF6
:1038A000411E0020B0EB116F1CBF012070474EF28B
:1038B0001002CEF2000251604EF62351CEF200010A
:1038C000F0230B700721906011607047FFF7CEBEA8
:1038D00010B590F83C20012A4FF002023CD080F84D
:1038E0003D200268D2F804E0D2F808C00C682EF03F
:1038F0007003234340F6FF34C4F20004A242536035
:103900000DDCB2F1804F1CD040F20043C4F2000342
:103910009A4216D040F60003C4F200030FE040F6CE
:103920000043C4F200039A420BD043F20043C4F2B6
:1039300001039A4205D042F60043C4F201039A42C1
:1039400004D149682CF080031943916001210022C1
:1039500080F83D1080F83C20104610BD10B504469C
:10396000022084F83D00206841F21112016A1142E0
:1039700008D1016A40F24442114203D1016821F0AA
:1039800001010160204600F045F80021002084F884
:10399000461084F83E1084F83F1084F8401084F8F4
:1039A000411084F8421084F8431084F8441084F8DD
:1039B000451084F83D1084F83C1010BD40B310B59C
:1039C000044690F83D0028B9002084F83C002046C9
:1039D00000F031F8022084F83D002068211D04F039
:1039E0004CFE012084F8460084F83E0084F83F0035
:1039F00084F8400084F8410084F8420084F84300D1
:103A000084F8440084F8450084F83D00002010BD8F
:103A100001207047006840F60001C4F200018842AE
:103A200018BF704741F21C00C4F20200016821F087
:103A300004010160704781B0006840F60001C4F2E3
:103A4000000188420CD141F21C00C4F2020001685E
:103A500041F004010160006800F00400009000984B
:103A600001B0704780B590F83C20012A4FF0020267
:103A700000F0BD8080F83D20D0F800C04FF677728E
:103A8000DCF8083023EA0202CCF808200B683F2B50
:103A90001CDD5F2B20DD602B4FD0B3F5005F6CD0B9
:103AA000702B40F09E80D1E901E3C968DCF8082062
:103AB00043EA0E0322F47F4243EA01211143CCF88A
:103AC0000810DCF8081041F0770188E01F2B28DC93
:103AD0005BB3102B29D084E0402B61D0502B40F0F9
:103AE0008080D1F804E0C968DCF82030DCF82020C0
:103AF00022F00102CCF82020DCF8182022F0F0029D
:103B000042EA011123F00A0242EA0E02CCF8181030
:103B1000CCF82020DCF8081041F0570121F02001FA
:103B20005DE0202B01D0302B5BD1DCF8081021F0B8
:103B30007001194341F0070151E0D1F804E0C96870
:103B4000DCF8203023F01003CCF82030DCF81830FB
:103B5000DCF8202023F4704322F0A00243EA013174
:103B600042EA0E12CCF81810CCF82020DCF808102D
:103B700041F0670121F0100131E0D1E901E3C968AA
:103B8000DCF8082043EA0E0322F47F4243EA0121D5
:103B90001143CCF80810DCF8081041F480411EE015
:103BA000D1F804E0C968DCF82030DCF8202022F0ED
:103BB0000102CCF82020DCF8182022F0F00242EAC2
:103BC000011123F00A0242EA0E02CCF81810CCF8D8
:103BD0002020DCF8081041F0470121F03001CCF83A
:103BE00008100121002280F83D1080F83C2010468A
:103BF00080BD000010B5044690F83C00012804BFC9
:103C0000022010BD4FEAB2000123032884F83C30A3
:103C100014D80FF20602DFE800F002060A0E206850
:103C200004F091FD0AE0206804F0C2FD06E020687F
:103C300004F0F8FD02E0206804F02EFE002084F875
:103C40003C0010BD40B310B5044690F83D0028B9C3
:103C5000002084F83C00204600F020F8022084F880
:103C60003D002068211D04F008FD012084F8460075
:103C700084F83E0084F83F0084F8400084F8410056
:103C800084F8420084F8430084F8440084F8450036
:103C900084F83D00002010BD01207047704741B1FD
:103CA00008290ED0042914BF00F1410200F13F029F
:103CB00009E090F83E20012A12D1022280F83E202D
:103CC00012E000F140021278012A09D102220829EB
:103CD00008D0042914BF80F8412080F83F2003E079
:103CE0000120704780F84020006801F01F01012288
:103CF000036A02FA01F123EA01020262026A114335
:103D000040F6FF32C4F20002904201620DDCB0F1D5
:103D1000804F24D040F20041C4F2000188421ED0FE
:103D200040F60001C4F2000117E040F60041C4F281
:103D30000001884213D043F20042C4F2010242F66D
:103D400000419042C4F2010101D088420CD1436C81
:103D5000904243F40043436401D0884204D1816817
:103D600001F00701062903D0016841F0010101605B
:103D7000002070477047B0B110B50446242084F885
:103D80003D002068C16821F40051C160204600F068
:103D900099F90020206484F83D0084F83E002063F7
:103DA00084F83C0010BD01207047006844F20041D7
:103DB000C4F20001884214D043F60001C4F20101AC
:103DC000884218BF704740F2341CC2F2000CDCF885
:103DD00010000CF10101431C40F6C810C2F20000B3
:103DE0000CE040F2601CC2F2000CDCF810000CF198
:103DF0000101431C40F60C20C2F200000122CCF865
:103E0000103000F011BCB0B582B0026805461068F1
:103E1000D368546900F02F01202903F0200106D156
:103E200029B1284602B0BDE8B04004F0EEBD5FEA1B
:103E3000007C1EBF04F0010E03F4907414EB0E041A
:103E40006BD1296B012905D110F0100118BF13F0B7
:103E5000100139D1010623D513F0800120D095F847
:103E60003D00212840F0F080A868B0F5805F03D1C4
:103E70002869002800F0F080286A411C2962007837
:103E80005060E88C01380104E88440F0DD80D0689F
:103E900020F08000D060D06840F04000D060D3E0D7
:103EA000400640F1D18013F0400000F0CD80D06892
:103EB000202120F04000D060284685F83D1002B057
:103EC000BDE8B04000F00ABD0020019010680190EC
:103ED0005068019001985069400600F18380A88DD8
:103EE000E98DEB8D002B00F0AF80401A010400F04B
:103EF000AB80D16821F49071D160516921F001014A
:103F00005161202185F83E1000212963D16821F0FC
:103F1000100381B22846D3608CE0C40718BF13F4A5
:103F2000807303D02B6C43F001032B64430706D549
:103F3000BEF1000F03D02B6C43F002032B64830708
:103F400006D5BEF1000F03D02B6C43F004032B64A5
:103F5000BCF1000F06D551EA0E0303D02B6C43F0E1
:103F600008032B642B6C002B6ED010F0200018BFC0
:103F7000002903D0284604F048FD2A685069296CBE
:103F800000F0400001F00801401858D0D06820F43B
:103F90009070D060506920F001005061286B0128BA
:103FA00003D1D06820F01000D060202085F83E00BA
:103FB000002028635069400648D5506920F0400031
:103FC0005061A86B002841D048F60711C0F60001E7
:103FD0004163FDF7B1F8B8B3A86B416B02B0BDE81F
:103FE000B0400847A86B01684B689CB264B3A98DC8
:103FF0008C4229D2EB858369202B17D0D16821F41C
:104000008071D160516921F001015161516921F044
:1040100040015161202185F83E1000212963D168BB
:1040200021F01001D160FDF767F8A98DE88D081A1D
:1040300081B2284602B0BDE8B040FFF79BBE2846DB
:10404000FFF7B3FE0020286402B0B0BD284602B0DE
:10405000BDE8B040FFF7A9BE286A30F8021B6FF335
:104060005F21516028620CE750B310B5044690F808
:104070003D0028B9002084F83C00204600F0C7F835
:10408000242084F83D002068C16821F40051C160FB
:10409000204604F014FD2068016921F4904101617B
:1040A000416921F02A014161C16841F40051C160B8
:1040B00000202021206484F83D1084F83E1010BDBB
:1040C0000120704710B50446006844F6FF31C4F281
:1040D000000188422CDD43F60001C4F20101884250
:1040E0004CD045F20001C4F20001884260D044F691
:1040F0000041C4F20001884218BF10BD41F21C000B
:10410000C4F20200016821F40021016040F60000C1
:10411000C4F2010000F500604FF44061FDF7BAFA07
:10412000A06BFDF790F8606BFDF78DF8342069E027
:1041300044F20041C4F2000188424DD044F600012F
:10414000C4F20001884261D141F21C00C4F20200B5
:10415000016821F48021016040F60000C4F20100F2
:1041600000F580604FF44061FDF794FAA06BFDF715
:104170006AF8606BFDF767F8272043E041F21C0006
:10418000C4F2020050F8041C21F4804140F8041CE1
:1041900040F60000C4F201004FF4C061FDF77AFA66
:1041A000A06BFDF750F8606BFDF74DF8252029E076
:1041B00041F21C00C4F20200016821F48011016088
:1041C00040F60000C4F2010000F500604FF4805199
:1041D000FDF760FA352015E041F21C00C4F2020040
:1041E000016821F40031016040F60000C4F20100D2
:1041F0000C21FDF74FFAA06BFDF725F8606BFDF77A
:1042000022F82620BDE81040FEF73BBC10BD2DE98A
:10421000F04186B00446006844F6FF31C4F2000164
:1042200088424FF00001CDE90411CDE902117EDD95
:1042300043F60001C4F20101884200F0F18045F22A
:104240000001C4F20001884200F0548144F60041AC
:10425000C4F20001884240F0E48141F21800C4F247
:104260000200416802AE41F400214160416840F221
:10427000304801F40021019101990168C4F202085B
:1042800041F0100101600068314600F0100001901B
:1042900001984FF480600290022003900320059063
:1042A00040F60000C4F2010000F500652846FDF765
:1042B000A7FA4FF4006002900120002704902846DE
:1042C00031460397FDF79CFA40F2EC65C2F2000517
:1042D00020204FF480518026C5E906012846C5E913
:1042E0000087C5E90276C5E90477FDF726F908B12C
:1042F000FCF7B0F9A5636C6240F2307508F1280054
:10430000C2F20005102185E883002846C5E903674D
:10431000C5E90577EF61FDF710F908B1FCF79AF9E7
:1043200065636C62342009210022342474E144F274
:104330000041C4F20001884200F0078144F6000108
:10434000C4F20001884240F06C8141F21800C4F2CE
:104350000200416802AE41F480214160416840F2B0
:104360001C0801F48021019101990168C4F202083E
:1043700041F0080101600068314600F0080001903A
:1043800001984FF480600290022003900320059072
:1043900040F60000C4F2010000F580652846FDF7F4
:1043A0002FFA4FF400600290012000270490284665
:1043B00031460397FDF724FA40F6840508F114000E
:1043C000C2F20005802620214FF48052C5E9000783
:1043D0002846C5E90276C5E90477C5E90612FDF766
:1043E000ACF808B1FCF736F9A5636C6240F6C80575
:1043F000C2F200051020C5E900802846C5E9027612
:10440000C5E90477C5E90677FDF797F808B1FCF729
:1044100021F965636C622720082100222724FBE034
:1044200041F21800C4F20200016840F6000541F4B0
:10443000804101600168C4F2010501F480410191ED
:104440000199016802AE41F004010160006840F288
:104450001C0800F00400019001984FF400700290D5
:10446000022003900320059028463146C4F202083A
:10447000FDF7C6F94FF480600290012000270490F8
:10448000284631460397FDF7BBF940F2747508F1F1
:104490003C00C2F20005802620214FF48052C5E97D
:1044A00000072846C5E90276C5E90477C5E9061282
:1044B000FDF743F808B1FCF7CDF8A5636C6240F254
:1044C000B87508F12800C2F20005102185E88300C4
:1044D0002846C5E90367C5E90577EF61FDF72DF8C3
:1044E00008B1FCF7B7F865636C622520082100224B
:1044F000252491E041F21800C4F20200416841F421
:1045000080114160416801F48011019101990168B5
:1045100041F010010160006802A900F01000019054
:1045200001984FF4805002901220039003200590D0
:1045300040F60000C4F2010000F50060FDF760F9EC
:10454000352004210022352466E041F21800C4F22F
:104550000200416840F6000541F4003141604168C5
:10456000C4F2010501F4003101910199016802AE24
:1045700041F004010160006840F21C0800F00400F2
:1045800001900198042002900220039003200590DE
:1045900028463146C4F20208FDF732F9082002909D
:1045A000012000270490284631460397FDF728F99B
:1045B00040F2FC7508F15000C2F20005802620216F
:1045C0004FF48052C5E900072846C5E90276C5E9DF
:1045D0000477C5E90612FCF7B0FF08B1FCF73AF81A
:1045E000A5636C6240F6400508F16400C2F2000564
:1045F000102185E883002846C5E90367C5E90577EA
:10460000EF61FCF79AFF08B1FCF724F865636C6270
:1046100026200A2100222624FEF755FA2046FEF71E
:1046200043FA06B0BDE8F08110B590F83E30202B7B
:1046300007D14FF0010429B122B190F83C30012B91
:1046400002D10224204610BD0123002480F83C3012
:10465000046304F07BFAF5E7034690F83E00202857
:1046600007D14FF00100F1B1EAB193F83C00012805
:1046700001D10220704700201863996222219A8597
:10468000DA85186483F83E10196883F83C00CA681C
:1046900042F48072CA604A6942F001024A61CA6803
:1046A00042F02002CA607047016843F60000C4F27D
:1046B000010081421CD140F23410C2F20000827825
:1046C000B2B940F61C32C2F200021178012301296E
:1046D000436143D141687F2954D890F801C04B1CF5
:1046E0000A447F29436082F808C036D1802149E01E
:1046F00045F20000C4F2000081424AD044F200407A
:10470000C4F20000814218BF704740F26010C2F24C
:104710000000416840F6584C01220B29C2F2000CFF
:10472000426105D843780CEB0102013141601372FC
:104730004B1E0CEB0302127AFF2A0CD15BB18B1ECD
:104740000CEB0302127AFF2A05D123B101EB0C0214
:104750005279FF2A16D00C2914D2704740F65842DD
:10476000C2F2000211780129F7D141680B2909D85A
:1047700090F801C04B1C0A440B29436082F808C022
:10478000EBD10C21002201234261837042608160E1
:10479000704740F2E410C2F20000012181707047BE
:1047A000704700002DE9F04381B0044690F83D00C9
:1047B000202809D10E464FF0010031B1174622B131
:1047C00094F83C00012803D1022001B0BDE8F08339
:1047D000012084F83C004FF0000921201D46C4F858
:1047E000409084F83D00FDF708F9A784E784A168AC
:1047F0000746B1F5805F07D1206900281CBF30460D
:104800004E46B046064601E04FF0000884F83C9062
:10481000E08CC0B1204680213A462B4604F0D0F906
:10482000C0B92EB116F8010B2168486007E000BF3F
:1048300038F8020B21686FF35F2048600026E08C97
:104840000138E084E4E7204640213A462B4604F054
:10485000B7F908B10320B8E7202084F83D00002014
:10486000B3E770B5044690F83D00202808D14FF01A
:10487000010531B1134622B194F83C00012802D160
:104880000225284670BD012084F83C000025212027
:104890002162A384E384256484F83D002268606B70
:1048A00048F6DF1C48F6052E48F61316C0F6000C35
:1048B000C0F6000EC0F600060432C0E90ACEC0E918
:1048C0000C65FCF780FE20686FF04001016084F801
:1048D0003C50416941F080014161D2E7006844F6F3
:1048E000FF31C4F20001884217DD44F60041C4F2F2
:1048F0000001884222D045F20001C4F20001884242
:1049000021D043F60001C4F20101884218BF70476C
:1049100040F23410C2F200001EE044F20041C4F242
:104920000001884214D044F60001C4F2000188421C
:1049300015D140F28C10C2F200000DE040F2B81028
:10494000C2F2000008E040F2E410C2F2000003E00E
:1049500040F26010C2F2000029300121017070475E
:1049600070470000FEE7052A38BF704742F2107218
:10497000904211D3801A82B2120940F247335A434F
:104980004DF6F0034FEAD24CCFF6FF730CFB030059
:10499000312303EBD24C01E04FF0300C10B582B262
:1049A000B2F57A7F4FF618440DD3A0F57A7083B232
:1049B000DB0842F2C5025A43130D03FB0400312306
:1049C00003EB125E01E04FF0300E82B2642A0ED388
:1049D000643882B2920841F27B435A43530C04F587
:1049E000617403FB0400312303EB524200E03022E8
:1049F00083B20A2B0DD30A3883B24CF6CD446343FD
:104A0000DC0C04EB8404A0EB4400312404EBD3431E
:104A100000E0302300F13004000408BF302481F8A6
:104A200004C081F803E08A704B700C70BDE8104040
:104A3000704740F60C10C2F20000FDF718B840F6BF
:104A40000C10C2F20000FDF7B5B8000010B581B03F
:104A500000210091406A40F20001C2F2000190F88A
:104A60003DC009684BF28952C908C1F2F842A1FB66
:104A70000212110A23225143009100BF009939B15B
:104A8000009901390091016809688905F6D403E0AD
:104A9000016C41F020010164446B0CB10021A16262
:104AA000816B09B100228A6202684FF0000E136820
:104AB00023F480631360A0F82AE00CB1C4F834E05A
:104AC00009B100234B63116821F00101116090F8D6
:104AD0003D1060290BD1202180F83D10002180F885
:104AE0003E10016401B0BDE81040FCF7BEBF0CF001
:104AF000280128290DD1116841F0010111601168C8
:104B000041F48061116000210163282180F83D108B
:104B100005E0202180F83D10002180F83E1001B012
:104B2000BDE81040FDF749BB10B5044690F83D10B4
:104B300090F83E00B0F1100218BF0122403818BFB3
:104B40000120024208BF22290AD001F028002828AB
:104B50000CD100202063282084F83D00206813E059
:104B60002068026822F40062026000E02068426867
:104B7000120507D4602905D0202184F83D100021BA
:104B800084F83E1000212163416809051AD494F885
:104B90003D1060293CD1202184F83D100021216482
:104BA0004169490606D50069616A0870616A206832
:104BB00001316162016821F0010101602046FCF7CA
:104BC00054FF45E0416821F400614160606B90F85A
:104BD0002110012929D1A06B44F64D21C0F6000116
:104BE0004163FCF7A9FA98B320684169490606D5E4
:104BF0000069616A0870616A206801316162016858
:104C000021F001010160202084F83D00A06B1DE02F
:104C10004169490605D50069616A0870606A01301A
:104C200060622046FDF7C9FA12E044F64D21C0F655
:104C300000014163FCF780FA50B12168606B0A689B
:104C400022F001020A60202184F83D10416B884760
:104C5000206C000704D02068416821F4E0614160C5
:104C600094F83D00216C490758BF10BD28280FD18A
:104C70000020CFF6FF70E06200212020216384F83D
:104C80003D00204684F83E10BDE81040FDF723BCEF
:104C900010BDC16A428D042A06D10168426A4B6880
:104CA00023F480634B601EE0428D032A0FD102681B
:104CB0000229536823F48063536005D0042903D08C
:104CC000116821F4806111601169426A0CE0428D23
:104CD000022A06D103290FDC012911D0022914D0A0
:104CE00018E00168426A09691170416A0131416244
:104CF000418D013941857047042906D0102909D119
:104D000001680A6822F4806208E001680A6842F4D7
:104D1000806203E001680A6842F400720A6009696F
:104D2000426A1170416A02684B1C4362438D013B29
:104D3000438512694A70416A026801314162418DBE
:104D400001394185516821F440715160202180F87A
:104D50003D1090F83E200021402A80F83E1002D1FC
:104D60000163FDF7BBBB12210163FDF7B5BB00007A
:104D700081B090F83D10222954D1418D042912D3DD
:104D80000168426A09691170416A01314162418DCD
:104D900001394185418D032944D10068416821F4DE
:104DA000806141603EE0C26A022A3BD0012939D8C5
:104DB0000021009140F20001C2F2000109684BF2AB
:104DC0008952C908C1F2F842A1FB0212110A01EB93
:104DD00081010091009901390091009921B3016886
:104DE0000A689205F6D40A6822F480620A604A686A
:104DF00022F4E0624A600969426A1170416A013135
:104E00004162418D01394185202180F83D1090F8A3
:104E10003E200021402A80F83E1020D1016301B0DD
:104E2000FDF75CBB01B07047016C41F020010164EB
:104E30000168426A4B6823F4E0634B6009691170B2
:104E4000416A01314162418D01394185202180F85B
:104E50003D10002180F83E1001B0FDF7AEB91221DF
:104E6000016301B0FDF738BBC16A90F83D20212AEB
:104E700018BF7047428D4AB1416A026811F8013B80
:104E800013614162418D01394185704711F5803FC1
:104E900018BF082917D101684A6822F4E0624A6005
:104EA0000A6842F400720A6000212022016380F83F
:104EB0003D2090F83E2080F83E10402A08BFFDF7C4
:104EC0000EBBFDF70ABB2029E5D001684A6822F431
:104ED000E0624A6011210163002180F83E10202128
:104EE00080F83D10FDF7F9BA90F83D1090F83EC0FB
:104EF000C26A038DF3B921291CD112F5803F18BF76
:104F0000082A31D101684A6822F4E0624A600A68DE
:104F100042F400720A6000212022016380F83D20E3
:104F200090F83E2080F83E10402A08BFFDF7D7BA1F
:104F3000FDF7D3BA212905D0BCF1400F08BF2229C3
:104F400000D07047418D01B390F83E10402908BF52
:104F500000F021B8416A026811F8013B1361416217
:104F6000418D013941857047202ACBD001684A68BC
:104F700022F4E0624A6011210163002180F83E10B2
:104F8000202180F83D10FDF7A8BA0068416821F49F
:104F900080614160704790F83D10026D3AB1026D3A
:104FA000012A0ED10168826CD2B20A6118E0C26C8B
:104FB000816C012A10D10268C9B21161016D023100
:104FC00010E0026D022A1CD122290DD101680A6865
:104FD00042F480720A6003E00268C1F307211161A4
:104FE000016D013101657047428D5AB1212909D106
:104FF000416A026811F8013B13614162418D013938
:1050000041857047428D002AFBD1212918BF704786
:1050100001684A6822F4E0624A600A6842F4007259
:105020000A6000212022016380F83D2080F83E10B4
:10503000FDF755BA2DE9F04782B0044600680E46E8
:105040000168DDF828A041F4806101600168DDF8A5
:105050002C9041F480711D461746016020464FF0A8
:10506000011100225346CDF8009000F0F5F840B150
:1050700020680068C00544BF4FF40070206403201E
:1050800039E040F202082068C0F2010806F0FE068E
:1050900006612046414652464B4600F025F948BB82
:1050A0000020019020684A4641690191806951467B
:1050B00001900198204600F085F998B9012D08D09B
:1050C0002068390A0161204651464A4600F07AF9C3
:1050D00040B92068F9B20161204651464A4600F0C5
:1050E00071F958B1206C042804D12068016841F49A
:1050F00000710160012002B0BDE8F0872068002245
:105100000168534641F48071016020464FF001115F
:10511000CDF8009000F0A0F80028A9D1206846F052
:10512000010101612046414652464B4600F0DCF841
:10513000002818BF0120DEE72DE9F04383B00446C4
:1051400000680D4601680A9F0B9E41F480719946E4
:105150009046016020464FF0011100223B46009628
:1051600000F07AF840B120680068C00544BF4FF4F1
:105170000070206403200DE0206805F0FE0101614D
:105180000221C0F2010120463A46334600F0ACF855
:1051900018B1012003B0BDE8F08300200290206820
:1051A0003246416902918069394602900298204650
:1051B00000F008F940B1206C0428EAD120680168A9
:1051C00041F400710160E4E7B9F1010F0AD02068F1
:1051D0004FEA1821016120463946324600F0F2F8C4
:1051E0000028E8D120685FFA88F101610020D1E74A
:1051F000F0B581B0044600681546034653F8147FA5
:105200007A0713D40E464F1C4169490510D447B1A3
:10521000FCF7F3FB4FF0200176B1401BB0420BD8F6
:105220002068034653F8141F4907EDD5002010E00D
:105230006FF480600421186000202022206384F82D
:105240003D2084F83E00226C1143216484F83C0028
:10525000012001B0F0BD00002DE9F0478046006854
:10526000924601F47F071822B7F5803F08BF142249
:1052700080588CB22040001BB0FA80F040095045A5
:105280001BD1DDF820901E465D1C00BF35B1FCF738
:10529000B4FBAEB1A0EB0900B04211D8D8F80000C1
:1052A0001821B7F5803F08BF142140582040001B4B
:1052B000B0FA80F040095045E8D00020BDE8F08702
:1052C00000202021C8F8300088F83D1088F83E0002
:1052D000D8F8401041F02001C8F8401088F83C0090
:1052E0000120BDE8F08700002DE9F0410446006888
:1052F0009846034653F8146F8FB206EA0701B94285
:1053000016D01646551C00BF4169490513D44DB14E
:10531000FCF773FB4FF02001AEB1A0EB0800B042E8
:1053200011D82068034653F8141F3940B942EBD115
:105330000020BDE8F081016841F4007101606FF464
:1053400080600421186000202022206384F83D2022
:1053500084F83E00226C1143216484F83C00012053
:10536000BDE8F08170B515460E46044620684169D7
:10537000490613D44169C90612D4FCF73EFB16B1A5
:10538000401BB042F2D900202021206384F83D1058
:1053900084F83E00206C40F020000CE0002070BD3E
:1053A0006FF01001416100202021206384F83D103E
:1053B00084F83E00206C2064002084F83C0001202A
:1053C00070BD0000F0B581B0044600681546034684
:1053D00053F8147F3A0613D40E464F1C4169490511
:1053E00010D447B1FCF709FB4FF0200176B1401B08
:1053F000B0420BD82068034653F8141F0906EDD5B8
:10540000002010E06FF4806004211860002020224A
:10541000206384F83D2084F83E00226C114321640F
:1054200084F83C00012001B0F0BD00002DE9F047F8
:1054300040F22C20C2F200001421018040F6A87135
:10544000C2F2000140220A8040F21C12C2F20002A5
:105450001823138040F6F073C2F2000336271F8032
:1054600040F62447C2F20007C0E90113C0E9032750
:1054700040F66C1042F6240A3426C2F200000021E5
:1054800000221A23C4F2010A3E800027FDF730FFF4
:1054900043F20006C4F2000606F5584528464FF4CC
:1054A000807101224FF00108FCF7A2FA28464FF460
:1054B00000610122FCF79CFA06F55C4420460821B5
:1054C0000122FCF795FA2046042101224FF004093D
:1054D000FCF78EFA28464FF400410122FCF788FAC7
:1054E00020464FF480510122FCF782FA20464FF407
:1054F00000510122FCF77CFA20464FF48041012242
:10550000FCF776FA20464FF400410122FCF770FACE
:1055100006F56044204640210122FCF769FA204646
:1055200080210122FCF764FA20464FF480710122A9
:10553000FCF75EFA20464FF400710122FCF758FA9E
:1055400040F24065C2F200052846FBF713F940F22D
:105550007064C2F200042046FBF70CF940F6040028
:10556000C4F20000816941F4C0418161016841F4E5
:105570008041016040F68010C2F200000C21FEF76D
:105580008EFB4AF6AA2040F2F8013060C2F2000118
:105590002846042281F82070FBF7FDFC2046FBF72B
:1055A00099FC40F6A775C2F2000540F685202F70E1
:1055B000CAF80470CAF8000020686FF0010606609F
:1055C000416841F040014160297829B900F073FB3E
:1055D00028780028FAD0206840F615212F70CAF8E4
:1055E000041040F6FF71CAF800100660416840F6EA
:1055F0006C1241F04001416040F2A06040F60C1195
:1056000040F22C23C2F20000C2F20001C2F20002FA
:10561000C2F2000302F099FE00F079F840F61C3661
:10562000C2F2000640F28C1C3346C2F2000C032288
:1056300013F8044B40F2341040F260158CF800204F
:1056400040F2B81240F65847C2F20000C2F200051C
:105650000221C2F20002C2F20007022C80F8008090
:10566000297082F80090397003D03B1D012C08BFCF
:10567000706040F2E4140121C2F20004002680F8B8
:10568000291085F829108CF8291082F8291084F83F
:105690002910466086704661411C40F6C810C2F26F
:1056A000000001221D60FEF7BFFF40F60C20691CC0
:1056B000C2F2000001226E60AE706E61FEF7B4FFB0
:1056C00040F21220C2F200004FF4FA61018040F271
:1056D0001420C2F200003C2101800520207040F619
:1056E000D820C2F20000214604F098F840F22021B0
:1056F000C2F20001087040F66C10C2F20000FDF723
:1057000099FF4FF4FA70BDE8F047FBF7A9BF40F6E8
:10571000584043F27801C2F20000C7F22E614161A5
:1057200046F6FF61C2F63461016246F6FF61C2F6D9
:105730003561C16246F6FF61C2F63661816347F6A4
:10574000FF01C2F63161416442F63261C6F2761160
:10575000C0F8561043F27831C7F22E61C0F86210DB
:1057600046F6FF61C2F63161C0F86E1046F6FF6181
:10577000C2F63261C0F87A1046F6FF61C2F63361B4
:10578000C0F8861047F6FF01C2F63461C0F89210E7
:105790004FF6FF71C3F27861C0F89E106FF01541AB
:1057A000C0F8AA1043F27851C7F22E61C0F8BA10BF
:1057B00047F6FF01C2F63761C0F8C6104FF6FF7119
:1057C000C3F26A11C0F8D21043F23101C2F632615D
:1057D000C0F8E21043F23031C7F22E61C0F8F21087
:1057E00047F6FF01C3F23101C0F8FE1043F2781111
:1057F000C3F23011C0F80E1143F23101C2F6346128
:10580000C0F81E114FF6FF71C3F27811C0F8EE1008
:10581000C0F82A1143F23051C7F22E61C0F82E11A0
:1058200042F63061C6F27611C0F8AE10C0F802112F
:10583000C0F83E1143F66C51A0F8421143F2320118
:10584000C2F63161C0F8501143F23201C2F6326142
:10585000C0F8621143F23201C2F63361C0F875112B
:1058600043F23201C2F63461C0F8861143F23001CE
:10587000A0F85010A0F85C11A0F8921143F2320188
:10588000C2F63561C0F898114FF6FF71C3F2782166
:10589000C0F8A41143F23061C7F22E61C0F8A8111C
:1058A00047F6FF01C3F23201C0F83A11C0F8B41153
:1058B00042F63761C6F27611C0F8B81143F278218A
:1058C000C3F63001C0F8C41143F23301C2F63061AF
:1058D000C0F8D41143F27831C3F23001C0F8E011BE
:1058E00043F23301C2F63161C0F8F11143F23301E2
:1058F000C2F63261C0F8011243F23401C2F63161DE
:10590000C0F8251243F23401C2F63061C0F811121A
:10591000C0F8451246F6FF61C3F23401C0F85112D7
:105920006FF01141C0F8D011C0F84112C0F85D12FB
:1059300043F23401C2F63261C0F83512C0F8611288
:1059400047F2FF61C7F26931C0F86D1247F220419A
:10595000C3F23401C0F8711242F63941CFF630710A
:10596000C0F8751243F23001C7F22E61C0F87D1203
:1059700042F63161C6F27611C0F85512C0F88D12A8
:1059800043F27851C3F23021C0F8991243F23D013D
:10599000C3F23001C0F8A610C0F8DA10C0F8161132
:1059A000C0F8CC11C0F8A1126FF00741C0F8521036
:1059B000C0F8DE10C0F81A11C0F84C11C0F85E1122
:1059C000C0F87111C0F88211C0F89411C0F8ED113F
:1059D000C0F8FD11C0F80D12C0F82112C0F8311244
:1059E000C0F8A51243F23501C2F63361C0F8A9121E
:1059F00046F27611C3F66C5141620163C163816462
:105A0000C0F87210C0F87E10C0F88A10C0F8961066
:105A1000C0F8CA10C0F8E610C0F82211C0F854113E
:105A2000C0F86611C0F87911C0F88A11C0F89C114D
:105A3000C0F8D811C0F8F511C0F80512C0F8151259
:105A4000C0F82912C0F83912C0F84912C0F865121E
:105A5000C0F8AD1243F23001CFF63071C0F89A10A1
:105A6000C0F8CE10C0F8EA10C0F82611C0F8A01196
:105A7000C0F8B1124FF6FF71C3F27851C0F8791235
:105A8000C0F8B51243F23041C7F22E61C0F8B91226
:105A900046F66141C3F23D018161C0F86610C0F86D
:105AA000BE10C0F8F610C0F83211C0F8AC11C0F842
:105AB0008112C0F8BD1247F6FF01C3F23501C0F8EC
:105AC0008912C0F8C51242F63561C6F27611C0F8E7
:105AD000C91243F66C51C3F23001C0F85A10C0F835
