:020000040800F2
:10000000201C0020CD010008F5AB0008717200082B
:10001000F1AB00087D05000879FF00080000000032
:10002000000000000000000000000000B1EE000829
:10003000B90900080000000045CD000809F20008D9
:10004000E7010008CDB30008E7010008E701000858
:10005000E7010008E7010008E7010008E7010008E0
:10006000E7010008BD090008E7010008D9080008F9
:10007000E9080008F908000809090008190900083A
:100080002909000839090008D5020008E70100081D
:10009000E7010008E7010008E7010008E7010008A0
:1000A000E7010008E7010008E7010008E701000890
:1000B000E7010008E7010008E7010008C97300082C
:1000C000B9730008E7010008E7010008E70100082C
:1000D000E7010008E7010008E7010008E701000860
:1000E000E7010008E7010008E7010008E701000850
:1000F000E7010008E7010008E7010008E701000840
:10010000E7010008E7010008E7010008E70100082F
:10011000BDF80008CDF80008E7010008E701000875
:10012000E7010008E701000849090008590900082B
:1001300000F002F800F03AF80AA090E8000C8244BF
:100140008344AAF10107DA4501D100F02FF8AFF29C
:10015000090EBAE80F0013F0010F18BFFB1A43F0A5
:1001600001031847C01F0100E01F0100103A24BF1F
:1001700078C878C1FAD8520724BF30C830C144BF0C
:1001800004680C607047000000230024002500264E
:10019000103A28BF78C1FBD8520728BF30C148BFEA
:1001A0000B6070471FB51FBD10B510BD00F058F8AB
:1001B0001146FFF7F7FF10F0E5FF00F076F803B403
:1001C000FFF7F2FF03BC00F07DF80000094880470C
:1001D00009480047FEE7FEE7FEE7FEE7FEE7FEE729
:1001E000FEE7FEE7FEE7FEE704480549054A064B41
:1001F00070470000B5F2000831010008201000200F
:10020000201C002020140020201400204FF00002A9
:1002100000B5134694469646203922BFA0E80C50FC
:10022000A0E80C50B1F12001BFF4F7AF090728BFD7
:10023000A0E80C5048BF0CC05DF804EB890028BF53
:1002400040F8042B08BF704748BF20F8022B11F07C
:10025000804F18BF00F8012B7047704770477047F8
:10026000754600F02BF8AE4605006946534620F06F
:100270000700854618B020B5FFF7B6FFBDE820405F
:100280004FF000064FF000074FF000084FF0000B52
:10029000AC46ACE8C009ACE8C009ACE8C009ACE8C1
:1002A000C00921F007018D46704710B50446AFF331
:1002B00000802046BDE81040FFF781BF004870472E
:1002C0001000002001491820ABBEFEE72600020006
:1002D0007047000080B540F24460C2F2000000F0B8
:1002E00099FF40F27460C2F2000000F093FF80BDFD
:1002F00080B584B002900020019002980068806868
:10030000C00770B3FFE702980168886820F0010019
:10031000886002F079FE0190FFE70298006880682B
:10032000C007E8B1FFE702F06FFE0199401A032809
:1003300015D3FFE7029800688068C00770B1FFE737
:100340000299886A40F0100088620299C86A40F0F9
:100350000100C86201208DF80F0006E0FFE7DCE72E
:10036000FFE700208DF80F00FFE79DF80F0004B0B5
:1003700080BD000080B582B001900198406A009075
:100380000098806A10F0500F28D1FFE70099886A22
:1003900040F40070886200980068806800F4602073
:1003A000B0F5602F16D1FFE70098007B90B9FFE70A
:1003B0000099886A20F4807088620098806AC0047E
:1003C000002806D4FFE70099886A40F0010088629F
:1003D000FFE7FFE7009800F04DFE05E00098006A97
:1003E000016B01988847FFE702B080BD80B582B0FD
:1003F00001900198406A00900099886A40F040009E
:1004000088620099C86A40F00400C862009800F051
:10041000F5FE02B080BD000080B582B00190019869
:10042000406A0090009800F045FE02B080BD0000D8
:1004300080B584B00290002001900090029800687E
:100440008068C007002849D1FFE7029801688868E2
:1004500040F00100886040F20400C2F20000006831
:100460004DF68361C4F21B31A0FB0110800C00909B
:10047000FFE7009820B1FFE7009801380090F8E707
:1004800002F0C2FD0190FFE7029800688068C00793
:1004900018BBFFE702F0B8FD0199401A03281BD3EF
:1004A000FFE7029800688068C007A0B9FFE70299DB
:1004B000886A40F0100088620299C86A40F0010022
:1004C000C862FFE70299002081F82400FFE70120BD
:1004D0008DF80F0006E0FFE7D6E7FFE700208DF874
:1004E0000F00FFE79DF80F0004B080BD80B586B017
:1004F0000590049103920293029841684868013084
:100500004860059802990CF05DFC01900498019AEE
:1005100040F24021C2F200014FF4807310F00AFC57
:1005200006B080BD85B00490039103980138009017
:1005300000200190FFE70198039988421CD2FFE751
:1005400004980199405C8DF80B0004990098085CB0
:10055000019A88549DF80B000499009A531E009349
:10056000885401980099884201D3FFE704E0FFE72F
:10057000019801300190DEE705B07047FFE7FEE724
:1005800087B005900491039205980168886840F04F
:10059000010088600020009003218DF80A1001906E
:1005A000FFE701980399043988422AD2FFE70498AB
:1005B0000199405C8DF80B009DF80B009DF80A1026
:1005C000C90000FA01F10098084300909DF80A0064
:1005D00001388DF80A009DF80A0004280CDBFFE7BB
:1005E00003208DF80A00009843F20001C4F20201D2
:1005F000086000200090FFE7FFE7019801300190BC
:10060000CFE79DF80A00032813D0FFE7FFE79DF826
:100610000A00022806DCFFE79DF80A0001388DF881
:100620000A00F4E7009843F20001C4F202010860F6
:10063000FFE743F20000C4F2020000680090039854
:1006400004380190049801994A1C0192405C8DF88D
:100650000B009DF803008DF80A009DF80B009DF833
:100660000A10884204D0FFE701208DF81B0042E009
:10067000049801994A1C0192405C8DF80B00BDF86A
:1006800002008DF80A009DF80B009DF80A108842C0
:1006900004D0FFE701208DF81B002CE0049801999D
:1006A0004A1C0192405C8DF80B000098000A8DF8FE
:1006B0000A009DF80B009DF80A10884204D0FFE75D
:1006C00001208DF81B0016E004980199405C8DF81C
:1006D0000B0000988DF80A009DF80B009DF80A1099
:1006E000884204D0FFE701208DF81B0003E00020C2
:1006F0008DF81B00FFE79DF81B0007B07047000056
:1007000083B00190ADF80210BDF802000C2804D0AF
:10071000FFE704208DF80B002FE0BDF8020003383E
:10072000ADF800000198BDF800104A1CADF800209B
:10073000405CFF2804D0FFE703208DF80B001CE08D
:100740000198BDF800104A1CADF80020405CFF285D
:1007500004D0FFE703208DF80B000EE00198BDF8F0
:100760000010405CFF2804D0FFE703208DF80B0049
:1007700003E000208DF80B00FFE79DF80B0003B0AD
:100780007047000080B586B005908DF81310039275
:1007900002939DF8130001380146009104283CD8CB
:1007A0000099DFE801F0031D37383900039800781D
:1007B000012807D1FFE70598039909F0A1FC8DF8FE
:1007C00007000CE002980078012807D1FFE70598A0
:1007D000029900F02DF98DF80700FFE7FFE71CE014
:1007E00003980078022807D1FFE70598039909F0DC
:1007F00087FC8DF807000CE002980078022807D1EA
:10080000FFE70598029900F013F98DF80700FFE75C
:10081000FFE702E001E000E0FFE79DF8070006B017
:1008200080BD000080B582B08DF807009DF80700FC
:10083000012811D1FFE740F23410C2F2000000217C
:10084000416081704161411C40F6C010C2F200005D
:10085000012206F0F5F916E09DF80700022811D1F3
:10086000FFE740F26010C2F2000000214160817099
:100870004161411C40F60420C2F20000012206F052
:10088000DFF9FFE7FFE702B080BD000086B0DDF8CA
:1008900018C00590049103920293002001900090EB
:1008A0000499019808440190029900980844009026
:1008B000FFE7069870B1FFE7059801994A1C01927D
:1008C000405C0399009A531C0093885406980138A1
:1008D0000690EEE706B0704780B540F2AC60C2F219
:1008E000000001F02DFC80BD80B540F6CC00C2F2C6
:1008F000000001F025FC80BD80B540F68800C2F202
:10090000000001F01DFC80BD80B540F2BC70C2F259
:10091000000001F015FC80BD80B540F27870C2F295
:10092000000001F00DFC80BD80B540F60000C2F271
:10093000000001F005FC80BD80B540F64400C2F225
:10094000000001F0FDFB80BD80B540F2F060C2F216
:10095000000001F0F5FB80BD80B540F23470C2F2BA
:10096000000001F0EDFB80BD84B003900291019284
:1009700000930398C16B026C01209040486000987E
:1009800003990968486003984068102809D1FFE777
:100990000198039909688860029803990968C860FA
:1009A00008E002980399096888600198039909682A
:1009B000C860FFE704B070477047000080B50820AA
:1009C00002F02AF980BD000080B540F69E71C2F2A7
:1009D00000010020087042F62801C4F201010860FD
:1009E00042F62401C4F2010140F68520086040F27D
:1009F0007460C2F2000002686FF0010111600168CA
:100A0000486840F040004860FFE740F69E70C2F240
:100A10000000007840B9FFE743F20001C4F2000192
:100A20004AF6AA200860F0E703F03AFD80BD000016
:100A300085B0039002910298406880680238009067
:100A4000029948688068009A1144097A884204D063
:100A5000FFE704208DF813002CE000208DF807003C
:100A600000900090FFE70098029949688968013971
:100A700088420ED2FFE7029800990844017A9DF857
:100A8000070048408DF80700FFE70098013000900C
:100A9000E9E79DF807000299009A1144097A884213
:100AA00004D0FFE701208DF8130003E000208DF84B
:100AB0001300FFE79DF8130005B0704780B584B0C0
:100AC000039003980069B0F9240011F019F9014668
:100AD00040F27800C2F200000290006810F066FF59
:100AE0000299086040F27400C2F2000001880131EE
:100AF0000180008805281BDBFFE740F27800C2F286
:100B00000000019000680021C4F2A00110F0E6FF8F
:100B100010F0C0FC11F0D8F80199039A1269D08442
:100B200040F27402C2F20002002010800860FFE769
:100B300004B080BD85B00020ADF81200ADF8100003
:100B4000ADF80E00ADF80C0002900190009042F656
:100B50001800C4F200000168ADF8101042F61C0144
:100B6000C4F200010968ADF80C100068ADF80E0081
:100B7000BDF81000BDF80E1088420CD0FFE7BDF89C
:100B80000E1042F61C00C4F20000006880B240EA79
:100B90000140029007E0BDF81010BDF80C0040EADB
:100BA00001400290FFE702984BF2C531C9F2A21151
:100BB000A0FB0110C00A0090009818280BD3FFE793
:100BC00000984AF6AB21CAF6AA21A0FB0110000941
:100BD000ADF81200FFE7BDF8120005B07047000045
:100BE00080B584B0039001208DF80B0003989DF828
:100BF0000B1008448068019001A80421FFF792FCC3
:100C0000019804B080BD000080B582B001900198C9
:100C100040F27001C2F20001002204F077FB18B12B
:100C2000FFE7FFF7D1FEFFE740F27000C2F20000DD
:100C300001784FF46162514300914178C1EB011298
:100C4000009901EB8201009181780098084400909E
:100C5000009802B080BD000080B586B004900020EE
:100C60008DF80F000190FFE7049890F82400012808
:100C700004D1FFE702208DF81700ACE004990120B1
:100C800081F82400FFE7FFE70498FFF731FB8DF8B8
:100C90000F009DF80F00002840F09280FFE70498B5
:100CA000806A40F0020020F488500499886240F283
:100CB0000400C2F2000000680090022003F016FC5D
:100CC00001460098B0FBF1F040000190FFE7019869
:100CD00020B1FFE7019801380190F8E70498FFF789
:100CE000A7FB04980168886840F00800886002F05B
:100CF0008BF90290FFE704980068806800070028DD
:100D000022D5FFE702F080F90299401A0B281AD386
:100D1000FFE70498006880680007002812D5FFE705
:100D20000498806A40F0100020F002000499886264
:100D3000FFE70499002081F82400FFE701208DF8E7
:100D4000170048E0FFE7D6E704980168886840F09C
:100D50000400886002F058F90290FFE704980068E8
:100D600080684007002822D5FFE702F04DF902997C
:100D7000401A0B281AD3FFE70498006880684007E0
:100D8000002812D5FFE70498806A40F0100020F098
:100D9000020004998862FFE70499002081F824008A
:100DA000FFE701208DF8170015E0FFE7D6E704986C
:100DB000806A40F0010020F0020004998862FFE799
:100DC000FFE70499002081F82400FFE79DF80F0059
:100DD0008DF81700FFE79DF8170006B080BD0000F2
:100DE00081B0009001B0704783B0019000910098ED
:100DF000006840F20021C0F28001884212D0FFE773
:100E00000098006840F20021C0F24001884209D0F9
:100E1000FFE70098006840F20021C0F2C00188425C
:100E200001D1FFE7FFE7FFE7019890F824000128D0
:100E300004D1FFE702208DF80B003CE0019901206E
:100E400081F82400FFE7FFE70098007A012807D126
:100E5000FFE701980168486840F04000486006E0FC
:100E600001980168486820F040004860FFE7019859
:100E7000006840684FF6E051CFF63F710840009A95
:100E80001168526811430843019909684860009845
:100E9000C068019909684862009800690199096869
:100EA0008862FFE70199002081F82400FFE7002015
:100EB0008DF80B00FFE79DF80B0003B070470000B2
:100EC00085B00390029100208DF807000090FFE7A5
:100ED000039890F82400012804D1FFE702208DF840
:100EE0001300C3E00399012081F82400FFE7FFE726
:100EF00002984068062812D8FFE703980068406B04
:100F0000029A1168526802EB8202053A1F2393404D
:100F100098439140084303990968486329E002987F
:100F200040680C2812D8FFE703980068006B029A0B
:100F30001168526802EB8202233A1F2393409843C0
:100F40009140084303990968086311E00398006819
:100F5000C06A029A1168526802EB8202413A1F236A
:100F6000934098439140084303990968C862FFE79A
:100F7000FFE7029800680A2812D3FFE70398006889
:100F8000C06802990A68896802EB42021E3A072388
:100F9000934098439140084303990968C86010E062
:100FA00003980068006902990A68896802EB4202A6
:100FB00007239340984391400843039909680861C7
:100FC000FFE702980068102805D0FFE70298006844
:100FD000112840D1FFE70398006842F20041C4F2B3
:100FE000010188422DD1FFE7039800688068000264
:100FF000002825D4FFE703980168886840F40000C2
:10100000886002980068102819D1FFE740F20400B8
:10101000C2F2000000684DF68361C4F21B31A0FBF0
:101020000110800C00EB800040000090FFE700986A
:1010300020B1FFE7009801380090F8E7FFE7FFE7ED
:1010400008E00399886A40F02000886201208DF84A
:101050000700FFE7FFE7FFE70399002081F824007E
:10106000FFE79DF807008DF81300FFE79DF81300D8
:1010700005B0704781B000900098006842F20041CE
:10108000C4F20101884208D1FFE740F2F801C2F240
:101090000001012081F820000AE00098006842F673
:1010A0000001C4F20101884201D1FFE7FFE7FFE739
:1010B00001B0704781B0009001B0704780B584B036
:1010C000029000208DF80700029820B9FFE7012068
:1010D0008DF80F008DE00299886A40F00200886266
:1010E0000298FFF705F98DF807009DF80700002822
:1010F00074D1FFE7029801686FF01F000860029842
:10110000016848680022CFF63F721040486002989C
:101110000168886840F2F062CFF601721040886082
:1011200002980168C86800F07F40C86002980168B2
:10113000086900F04040086102980168486940F67B
:10114000FF72904348610298016888696FF30B0051
:10115000886102980168C8696FF30B00C861029842
:101160000168086A6FF30B00086202980168486A18
:101170006FF30B00486202980168886A6FF30B00F6
:10118000886202980168C86A00F07F40C8620298CD
:101190000168C86A00F07F40C86202980168086B65
:1011A00000F04040086302980168486B00F040403E
:1011B000486302980168886B6FF315008863029892
:1011C0000168886B6FF315008863029800F056FA87
:1011D00002990020C86202998862FFE7FFE702993E
:1011E000002081F82400FFE79DF807008DF80F002C
:1011F000FFE79DF80F0004B080BD000081B00090B3
:1012000001B0704781B0009000980068C06C01B0D8
:101210007047000080B582B0019001980068406876
:101220008006002842D5FFE7019800680068800723
:1012300000283AD5FFE70198806AC006002806D446
:10124000FFE70199886A40F400708862FFE701981F
:101250000068806800F46020B0F5602F1CD1FFE7C3
:101260000198007BC0B9FFE701980168486820F049
:10127000200048600199886A20F480708862019893
:10128000806AC004002806D4FFE70199886A40F00C
:1012900001008862FFE7FFE70198FFF7EBFE019886
:1012A00001686FF012000860FFE7FFE7019800682F
:1012B00040680006002852D5FFE7019800680068E2
:1012C000400700284AD5FFE70198806AC006002839
:1012D00006D4FFE70199886A40F400508862FFE76E
:1012E00001980068806800F4E040B0F5E04F14D049
:1012F000FFE70198006840684005002825D4FFE713
:1013000001980068806800F46020B0F5602F1CD15F
:10131000FFE70198007BC0B9FFE7019801684868C2
:1013200020F0800048600199886A20F4805088622B
:101330000198806AC005002806D4FFE70199886AF1
:1013400040F001008862FFE7FFE70198FFF748FDE2
:10135000019801686FF00C000860FFE7FFE7019853
:10136000006840684006002815D5FFE7019800682E
:101370000068C00770B1FFE70199886A40F48030C7
:101380008862019800F034F9019801686FF001005B
:101390000860FFE7FFE702B080BD000080B58CB0B9
:1013A0000A9000208DF827000890079006900A9870
:1013B00020B9FFE701208DF82F0014E10A9880681A
:1013C00030B1FFE70A98007D08B1FFE7FFE7FFE7CC
:1013D0000A98806A50B9FFE70A990020C8620A9902
:1013E00081F824000A9800F085F9FFE70A98FEF7D3
:1013F0007FFF8DF827000A98806AC006002800F158
:10140000E480FFE79DF82700002840F0DE80FFE73A
:101410000A98806A40F0020020F488500A99886295
:101420000A9908684968059143F60041C4F2010130
:10143000884211D1FFE70A98C069B0F5402F04D166
:10144000FFE74FF40020049003E00A98C06904907D
:10145000FFE70498039003E00A98C0690390FFE750
:101460000598039908430A99097B40EA41010798C6
:10147000084307900A9881680120B1F5807F0290A7
:1014800008D0FFE70A9880680138B0FA80F0400978
:101490000290FFE702990898CA0740F48071002A79
:1014A00018BF084608900A98007D01281ED1FFE762
:1014B0000A98007B70B9FFE70A9881694EF2000034
:1014C000CFF6FF7000EB41300899084340F400600C
:1014D00008900AE00A99886A40F0200088620A9918
:1014E000C86A40F00100C862FFE7FFE70A98006899
:1014F000406820F46940089908430A9909684860DF
:101500000A98006880684FF2FD71CFF6E1710840DB
:10151000079908430A99096888600A988168012038
:10152000B1F5807F019008D0FFE70A988068013804
:10153000B0FA80F040090190FFE7019800F0010047
:10154000002818BF4FF48070B0F5807F09D1FFE705
:101550000A9801690020CFF6F07000EB0150069068
:10156000FFE70A980068C06A20F4700006990843F3
:101570000A990968C8620A980068806840F6FE61A6
:10158000CFF61F710840079988420CD1FFE70A99EE
:101590000020C8620A98806A40F0010020F0020032
:1015A0000A99886210E00A98806A40F0100020F0E2
:1015B00002000A9988620A99C86A40F00100C8626C
:1015C00001208DF82700FFE708E00A99886A40F0BB
:1015D0001000886201208DF82700FFE79DF82700A2
:1015E0008DF82F00FFE79DF82F000CB080BD0000A4
:1015F00080B582B001900198006842F60001C4F203
:101600000101884238D1FFE740F27460C2F2000065
:10161000FFF7F8FD40F61521884210D8FFE740F6A5
:101620009D71C2F200010120087040F27460C2F2A4
:1016300000000168486820F0400048601BE040F26C
:101640007460C2F20000FFF7DDFD40F6852188429C
:1016500010D3FFE740F69E71C2F20001012008702E
:1016600040F27460C2F200000168486820F0400057
:101670004860FFE7FFE7FFE702B080BD80B582B0BA
:1016800001900198006842F20041C4F201018842D1
:1016900014D1FFE741F21801C4F20201086820F4F6
:1016A0000070086041F20000C4F20100062101F060
:1016B00085F90198006A00F0C3FC19E00198006800
:1016C00042F60001C4F20101884210D1FFE741F265
:1016D0001801C4F20201086820F48060086041F239
:1016E0000000C4F20100012101F068F9FFE7FFE703
:1016F00002B080BD80B58EB00D9000200C900B9094
:101700000A9009900D98006842F20041C4F201016C
:1017100088425DD1FFE7FFE741F21800C4F2020002
:10172000016841F400710160006800F400700890E5
:101730000898FFE7FFE741F21800C4F202000168D1
:1017400041F010010160006800F010000790079858
:10175000FFE70620099003200A9041F20000C4F23E
:10176000010009A901F074FA40F2AC60C2F2000075
:1017700004900821C4F202010160002141608160EF
:101780008021C1604FF4007101614FF4006141613B
:10179000202181614FF48051C16101F013F818B12B
:1017A000FFE7FFF711F9FFE7FFE70D9840F2AC61A3
:1017B000C2F2000101620D984862FFE71220039017
:1017C0000121002202F04AFE039802F03DFE3DE0B6
:1017D0000D98006842F60001C4F20101884234D13C
:1017E000FFE7FFE741F21800C4F20200016841F48C
:1017F00080610160006800F4806006900698FFE751
:10180000FFE741F21800C4F20200016841F0100144
:101810000160006800F0100005900598FFE70120C6
:101820000190099003200A9041F20000C4F20100E7
:1018300009A901F00DFA019912200290002202F08C
:101840000DFE029802F000FEFFE7FFE70EB080BD3C
:1018500080B584B0029000208DF80700FFE7029861
:1018600090F82400012804D1FFE702208DF80F0032
:10187000C5E00299012081F82400FFE7FFE7029804
:10188000FEF7D6FD8DF807009DF80700002840F010
:10189000AA80FFE70298806A40F4807040F201213C
:1018A0008843029988620298006842F60001C4F2F7
:1018B0000101884209D1FFE742F20440C4F201006D
:1018C000006810F4702F03D018E00020B0B9FFE7D3
:1018D0000299886A20F48010886202980068406843
:1018E0004005002809D5FFE70298806A40F480503F
:1018F00020F4005002998862FFE72CE00299886A80
:1019000040F4801088620298006842F20041C4F2FC
:101910000101884209D0FFE70298006842F6000101
:10192000C4F20101884209D1FFE742F20440C4F247
:10193000010000684005002803D40BE0012048B9ED
:10194000FFE70298806A40F4805020F4005002992A
:101950008862FFE7FFE70298806AC004002806D586
:10196000FFE70299C86A20F00600C86203E0029906
:101970000020C862FFE7FFE70299002081F82400F9
:10198000FFE7029801686FF00200086002980068A3
:10199000806800F46020B0F5602F1CD1FFE702984A
:1019A000006842F60001C4F20101884209D1FFE754
:1019B00042F20440C4F20100006810F4702F03D01A
:1019C00009E0002038B9FFE702980168886840F410
:1019D000A000886006E002980168886840F48010E2
:1019E0008860FFE706E0FFE70299002081F8240005
:1019F000FFE7FFE79DF807008DF80F00FFE79DF870
:101A00000F0004B080BD000080B586B00490039143
:101A1000029200208DF807000498006842F200410D
:101A2000C4F20101884209D0FFE70498006842F639
:101A30000001C4F20101884209D1FFE742F20440EB
:101A4000C4F20100006800F47020009002E0002061
:101A50000090FFE70098002840F0DC80FFE7FFE7F8
:101A6000049890F82400012804D1FFE702208DF8A3
:101A70001700D8E00499012081F82400FFE7FFE770
:101A80000498FEF7D5FC8DF807009DF807000028A4
:101A900040F0B880FFE70498806A40F4807040F618
:101AA00001618843049988620498006842F6000145
:101AB000C4F20101884209D1FFE742F20440C4F2B6
:101AC0000100006810F4702F03D018E00020B0B9B6
:101AD000FFE70499886A20F48010886204980068FF
:101AE00040684005002809D5FFE70498806A40F463
:101AF000805020F4005004998862FFE72CE004999C
:101B0000886A40F4801088620498006842F20041BC
:101B1000C4F20101884209D0FFE70498006842F648
:101B20000001C4F20101884209D1FFE742F20440FA
:101B3000C4F2010000684005002803D40BE0012036
:101B400048B9FFE70498806A40F4805020F40050C0
:101B500004998862FFE7FFE70498806AC0040028C0
:101B600006D5FFE70499C86A20F00600C86203E0C2
:101B700004990020C862FFE7FFE70499002081F87C
:101B80002400FFE70498016A40F27530C0F60000B7
:101B900088620498016A40F21940C0F60000C862E9
:101BA0000498016A40F2ED30C0F600000863049822
:101BB00001686FF00200086004980168886840F4CA
:101BC0008070886004980168006A4C31039A029B17
:101BD00000F072FE04980068806800F46020B0F5A0
:101BE000602F07D1FFE704980168886840F4A000DF
:101BF000886006E004980168886840F48010886076
:101C0000FFE706E0FFE70499002081F82400FFE7E2
:101C1000FFE703E001208DF80700FFE79DF80700CC
:101C20008DF81700FFE79DF8170006B080BD000093
:101C300080B582B00090009820B9FFE701208DF8B0
:101C4000070011E00098407938B9FFE700990020BB
:101C50000871009800F00CF8FFE700990120487126
:101C600000208DF80700FFE79DF8070002B080BD57
:101C700082B001900198006843F20001C4F20201B1
:101C8000884210D1FFE7FFE741F21400C4F20200DE
:101C9000016841F040010160006800F040000090E0
:101CA0000098FFE7FFE702B07047000083B00190A3
:101CB00000208DF80300019890F8210002280DD033
:101CC000FFE7019904208863FFE70199002081F86C
:101CD0002000FFE701208DF80B0021E0019801684A
:101CE000086820F00E00086001980168086820F07C
:101CF000010008600198C16B026C012090404860AF
:101D0000FFE70199012081F82100FFE701990020F8
:101D100081F82000FFE79DF803008DF80B00FFE736
:101D20009DF80B0003B0704780B596B01590002069
:101D30008DF85300159890F82100022807D0FFE78E
:101D400015990420886301208DF8530074E11598DB
:101D50000168086820F00E0008601598016808689E
:101D600020F001000860159800688121C4F202018A
:101D70008842C0F0A880FFE7159800680821C4F2E7
:101D80000201884203D1FFE70120139094E01598E7
:101D900000681C21C4F20201884203D1FFE7102031
:101DA000129086E0159800683021C4F20201884242
:101DB00004D1FFE74FF48070119077E01598006828
:101DC0004421C4F20201884204D1FFE74FF480505D
:101DD000109068E0159800685821C4F2020188420A
:101DE00004D1FFE74FF480300F9059E01598006858
:101DF0006C21C4F20201884204D1FFE74FF4801045
:101E00000E904AE0159800688021C4F202018842D1
:101E100004D1FFE74FF080700D903BE0159800680B
:101E200040F20841C4F20201884203D1FFE70120D9
:101E30000C902CE01598006840F21C41C4F202019D
:101E4000884203D1FFE710200B901DE01598006831
:101E500040F23041C4F20201884204D1FFE74FF45E
:101E600080700A900DE01598016840F24442C4F277
:101E700002024FF48030914208BF4FF480500A9024
:101E8000FFE70A980B90FFE70B980C90FFE70C9880
:101E90000D90FFE70D980E90FFE70E980F90FFE76B
:101EA0000F981090FFE710981190FFE7119812908B
:101EB000FFE712981390FFE7139840F20441C4F231
:101EC00002010860A5E0159800680821C4F202012B
:101ED000884203D1FFE70120099094E0159800683B
:101EE0001C21C4F20201884203D1FFE710200890B0
:101EF00086E0159800683021C4F20201884204D1BE
:101F0000FFE74FF48070079077E015980068442150
:101F1000C4F20201884204D1FFE74FF480500690DA
:101F200068E0159800685821C4F20201884204D183
:101F3000FFE74FF48030059059E0159800686C2158
:101F4000C4F20201884204D1FFE74FF480100490EC
:101F50004AE0159800688021C4F20201884204D149
:101F6000FFE74FF0807003903BE01598006840F267
:101F70000841C4F20201884203D1FFE70120029028
:101F80002CE01598006840F21C41C4F2020188421E
:101F900003D1FFE7102001901DE01598006840F282
:101FA0003041C4F20201884204D1FFE74FF480704F
:101FB00000900DE01598016840F24442C4F202021C
:101FC0004FF48030914208BF4FF480500090FFE7FB
:101FD00000980190FFE701980290FFE702980390B4
:101FE000FFE703980490FFE704980590FFE7059842
:101FF0000690FFE706980790FFE707980890FFE72D
:1020000008980990FFE709980421C4F202010860CA
:10201000FFE71599012081F82100FFE715990020BD
:1020200081F82000FFE71598406B20B1FFE7159875
:10203000416B8847FFE7FFE79DF8530016B080BD6E
:1020400082B00090009820B9FFE701208DF80700CA
:102050006AE000980168086820F0010008600098B4
:1020600001680020086000990968486000990968C3
:10207000886000990968C8600098006840F20741CC
:10208000C4F20201884218D8FFE7009908684FF6A9
:10209000F872CBF6FD7210444CF6CD42CCF6CC4231
:1020A000A0FB02026FF0030000EA920008640099AE
:1020B0000020C4F20200C86318E0009908684FF6D7
:1020C000F832CBF6FD7210444CF6CD42CCF6CC4241
:1020D000A0FB02026FF0030000EA9200086400997E
:1020E00040F20040C4F20200C863FFE70098C16BF1
:1020F000026C01209040486000990020886200999D
:10210000C862009908630099486300998863009940
:1021100081F82100FFE70099002081F82000FFE707
:1021200000208DF80700FFE79DF8070002B0704718
:1021300081B00090009890F8210001B07047000035
:1021400080B5ACB02B902B98C06B00682A902B9870
:102150000068006829902A982B99096CC8404007AC
:10216000002840F17581FFE79DF8A4004007002892
:1021700040F16E81FFE72B98006800688006002818
:1021800007D4FFE72B980168086820F00400086076
:10219000FFE72B9800688121C4F202018842C0F059
:1021A000A880FFE72B9800680821C4F2020188424A
:1021B00003D1FFE70420289094E02B9800681C21AD
:1021C000C4F20201884203D1FFE74020279086E055
:1021D0002B9800683021C4F20201884204D1FFE745
:1021E0004FF48060269077E02B9800684421C4F279
:1021F0000201884204D1FFE74FF48040259068E057
:102200002B9800685821C4F20201884204D1FFE7EC
:102210004FF48020249059E02B9800686C21C4F280
:102220000201884204D1FFE74FF4800023904AE086
:102230002B9800688021C4F20201884204D1FFE794
:102240004FF0806022903BE02B98006840F20841FC
:10225000C4F20201884203D1FFE7042021902CE060
:102260002B98006840F21C41C4F20201884203D15D
:10227000FFE7402020901DE02B98006840F230419D
:10228000C4F20201884204D1FFE74FF480601F903E
:102290000DE02B98016840F24442C4F202024FF470
:1022A0008020914208BF4FF480401F90FFE71F98A5
:1022B0002090FFE720982190FFE721982290FFE7E8
:1022C00022982390FFE723982490FFE724982590F5
:1022D000FFE725982690FFE726982790FFE72798A5
:1022E0002890FFE7289840F20441C4F202010860F8
:1022F000A5E02B9800680821C4F20201884203D1AE
:10230000FFE704201E9094E02B9800681C21C4F283
:102310000201884203D1FFE740201D9086E02B9800
:1023200000683021C4F20201884204D1FFE74FF473
:1023300080601C9077E02B9800684421C4F2020171
:10234000884204D1FFE74FF480401B9068E02B984F
:1023500000685821C4F20201884204D1FFE74FF41B
:1023600080201A9059E02B9800686C21C4F2020179
:10237000884204D1FFE74FF4800019904AE02B987F
:1023800000688021C4F20201884204D1FFE74FF0C7
:10239000806018903BE02B98006840F20841C4F23E
:1023A0000201884203D1FFE7042017902CE02B980C
:1023B000006840F21C41C4F20201884203D1FFE7E9
:1023C000402016901DE02B98006840F23041C4F286
:1023D0000201884204D1FFE74FF4806015900DE0C0
:1023E0002B98016840F24442C4F202024FF480206C
:1023F000914208BF4FF480401590FFE71598169062
:10240000FFE716981790FFE717981890FFE71898BE
:102410001990FFE719981A90FFE71A981B90FFE7A9
:102420001B981C90FFE71C981D90FFE71D981E90BD
:10243000FFE71E980421C4F202010860FFE72B9811
:10244000C06A20B1FFE72B98C16A8847FFE7B7E170
:102450002A982B99096CC8408007002840F17F8199
:10246000FFE79DF8A4008007002840F17881FFE78E
:102470002B9800680068800600280BD4FFE72B9893
:102480000168086820F00A0008602B99012081F893
:102490002100FFE72B9800688121C4F202018842E5
:1024A000C0F0A880FFE72B9800680821C4F2020161
:1024B000884203D1FFE70220149094E02B98006833
:1024C0001C21C4F20201884203D1FFE720201390AF
:1024D00086E02B9800683021C4F20201884204D1C2
:1024E000FFE74FF40070129077E02B9800684421CA
:1024F000C4F20201884204D1FFE74FF4005011906A
:1025000068E02B9800685821C4F20201884204D187
:10251000FFE74FF40030109059E02B9800686C21D1
:10252000C4F20201884204D1FFE74FF400100F907B
:102530004AE02B9800688021C4F20201884204D14D
:10254000FFE74FF000700E903BE02B98006840F2E0
:102550000841C4F20201884203D1FFE702200D9036
:102560002CE02B98006840F21C41C4F20201884222
:1025700003D1FFE720200C901DE02B98006840F26B
:102580003041C4F20201884204D1FFE74FF40070E9
:102590000B900DE02B98016840F24442C4F2020215
:1025A0004FF40030914208BF4FF400500B90FFE70A
:1025B0000B980C90FFE70C980D90FFE70D980E908C
:1025C000FFE70E980F90FFE70F981090FFE7109825
:1025D0001190FFE711981290FFE712981390FFE710
:1025E00013981490FFE7149840F20441C4F20201DA
:1025F0000860A5E02B9800680821C4F20201884217
:1026000003D1FFE702200A9094E02B9800681C2178
:10261000C4F20201884203D1FFE72020099086E03E
:102620002B9800683021C4F20201884204D1FFE7F0
:102630004FF40070089077E02B9800684421C4F2B2
:102640000201884204D1FFE74FF40050079068E090
:102650002B9800685821C4F20201884204D1FFE798
:102660004FF40030069059E02B9800686C21C4F2BA
:102670000201884204D1FFE74FF4001005904AE0C0
:102680002B9800688021C4F20201884204D1FFE740
:102690004FF0007004903BE02B98006840F2084136
:1026A000C4F20201884203D1FFE7022003902CE02C
:1026B0002B98006840F21C41C4F20201884203D109
:1026C000FFE7202002901DE02B98006840F2304187
:1026D000C4F20201884204D1FFE74FF40070019078
:1026E0000DE02B98016840F24442C4F202024FF41C
:1026F0000030914208BF4FF400500190FFE701986D
:102700000290FFE702980390FFE703980490FFE729
:1027100004980590FFE705980690FFE70698079054
:10272000FFE707980890FFE708980990FFE70998E6
:102730000A90FFE70A980421C4F202010860FFE74B
:10274000FFE72B99002081F82000FFE72B98806A93
:1027500020B1FFE72B98816A8847FFE72FE02A988E
:102760002B99096CC8400007002827D5FFE79DF882
:10277000A4000007002821D5FFE72B98016808680E
:1027800020F00E0008602B98C26B016C012000FA4B
:1027900001F151602B9988632B9981F82100FFE7A3
:1027A0002B99002081F82000FFE72B98006B20B1C7
:1027B000FFE72B98016B8847FFE7FFE7FFE7FFE79D
:1027C0002CB080BD83B0019000200090019820B90A
:1027D000FFE701208DF80B006AE00198006840F2E5
:1027E0000741C4F20201884218D8FFE7019908683E
:1027F0004FF6F872CBF6FD7210444CF6CD42CCF693
:10280000CC42A0FB02026FF0030000EA92000864D1
:1028100001990020C4F20200C86318E00199086819
:102820004FF6F832CBF6FD7210444CF6CD42CCF6A2
:10283000CC42A0FB02026FF0030000EA92000864A1
:10284000019940F20040C4F20200C863FFE7019919
:10285000022081F82100019800680068009000982B
:1028600043F6F0718843009001994868D1F808C098
:10287000CB680A6940EA0C00184310434A691043C8
:102880008A691043C9690143009808430090009881
:10289000019909680860019900208863019A012163
:1028A00082F82110019981F820008DF80B00FFE7D4
:1028B0009DF80B0003B0704780B586B0049003917B
:1028C0000292019300208DF80300FFE7049890F82E
:1028D0002000012804D1FFE702208DF817004CE00A
:1028E0000499012081F82000FFE7FFE7049890F8A1
:1028F0002100012832D1FFE70499022081F821004C
:1029000004990020886304980168086820F0010099
:10291000086004980399029A019BFEF725F8049831
:10292000C06A38B1FFE704980168086840F00E00FB
:1029300008600CE004980168086820F00400086052
:1029400004980168086840F00A000860FFE70498EE
:102950000168086840F00100086009E0FFE7049999
:10296000002081F82000FFE702208DF80300FFE738
:102970009DF803008DF81700FFE79DF8170006B0DB
:1029800080BD000080B582B001900020009000F072
:102990003BFB0090FFE700F037FB0099401A0199DC
:1029A000884208D2FFE743F20001C4F200014AF670
:1029B000AA200860EFE702B080BD00008FB00E9043
:1029C0000D9100200C90FFE70D980C99C84000284D
:1029D00000F0DD80FFE70D980C9A0121914008403E
:1029E0000B900B98002800F0CE80FFE70C9820F0A9
:1029F00003000821C4F2010140580A900C9800F02D
:102A0000030081000F2000FA01F10A9808400A90A3
:102A10000A9807900E9840F60001C4F2010188421E
:102A200003D1FFE70020069042E00E9840F60041F7
:102A3000C4F20101884203D1FFE70120059034E090
:102A40000E9841F20001C4F20101884203D1FFE770
:102A50000220049026E00E9841F20041C4F20101E8
:102A6000884203D1FFE70320039018E00E9841F657
:102A70000001C4F20101884203D1FFE70420029063
:102A80000AE00E9941F60042C4F20102062091428A
:102A900008BF05200290FFE702980390FFE7039824
:102AA0000490FFE704980590FFE705980690FFE77C
:102AB000079806990C9A02F003029200914088420E
:102AC00032D1FFE70C9800F0030081000F2088400E
:102AD0000A900A9B0C9820F003010822C4F201021C
:102AE0008858984388500B9A40F20041C4F2010183
:102AF0000868904308600B9A40F20441C4F2010157
:102B00000868904308600B9A40F20841C4F2010142
:102B10000868904308600B9A40F20C41C4F201012E
:102B2000086890430860FFE70B98FF2803D8FFE789
:102B30000E98019003E00E9804300190FFE7019891
:102B400009900B98FF2804D8FFE70C9880000090AC
:102B500006E00C996FF01F0000EB81000090FFE78A
:102B60000098089009980068089A0F2191408843BE
:102B7000042191400843099908600B9A0E99C8688E
:102B80009043C860FFE70C9801300C901CE70FB031
:102B90007047000080B582B0ADF80600BDF80600B1
:102BA000082837D1FFE741F20000C4F201000821F4
:102BB00000F0FAF9012824D1FFE700F025FA40F2ED
:102BC0007C01C2F200010968C831884218D3FFE7CE
:102BD00000F01AFA40F27C01C2F20001086040F2F3
:102BE0002C20C2F20000426891690A3191610269A9
:102BF000118A013111824168486901304861FFE75B
:102C0000FFE740F21441C4F20101086840F00800F7
:102C10000860FFE702B080BD80B582B0ADF8060065
:102C200040F21440C4F201000068BDF806100842EA
:102C30000CD0FFE7BDF8060040F21441C4F20101D8
:102C40000860BDF80600FFF7A5FFFFE702B080BDF2
:102C500092B01190109100200F900B90FFE7109808
:102C600000680F99C840002800F09B81FFE70F998A
:102C7000012088400E90109800680E9908400D9031
:102C80000D980E99884240F08881FFE710984068BF
:102C90000790002851D0FFE7079801283AD0FFE7B6
:102CA000079802283FD0FFE7079803285FD0FFE787
:102CB0000798112832D0FFE70798122838D0FFE78D
:102CC00007980021C1F21101884236D0FFE707982A
:102CD0000021C1F2120188422FD0FFE7079800219E
:102CE000C1F22101884228D0FFE707980021C1F2F4
:102CF0002201884221D0FFE707980021C1F231016B
:102D000088421AD0FFE707980021C1F232018842B9
:102D100013D02FE01098C0680B902CE01098C0687A
:102D200004300B9027E01098C06808300B9022E028
:102D30001098C0680C300B901DE01098806818B98E
:102D4000FFE704200B9011E010988068012806D15D
:102D5000FFE708200B900E981199086105E0082004
:102D60000B900E9811994861FFE7FFE703E0002000
:102D70000B9000E0FFE70D98FF2803D8FFE71198BC
:102D8000069003E0119804300690FFE706980A9039
:102D90000D98FF2804D8FFE70F988000059006E003
:102DA0000F996FF01F0000EB81000590FFE7059879
:102DB00009900A980068099A0F21914088430B995D
:102DC000914008430A9908601098C079C00600280D
:102DD00040F1E280FFE7FFE741F21800C4F2020091
:102DE000016841F001010160006800F001000890F5
:102DF0000898FFE70F9820F003000821C4F20101B2
:102E000040580C900F9800F0030081000F2000FA4A
:102E100001F10C9888430C90119840F60001C4F21F
:102E20000101884203D1FFE70020049042E011989D
:102E300040F60041C4F20101884203D1FFE70120BE
:102E4000039034E0119841F20001C4F2010188427C
:102E500003D1FFE70220029026E0119841F20041E1
:102E6000C4F20101884203D1FFE70320019018E07A
:102E7000119841F60001C4F20101884203D1FFE735
:102E8000042000900AE0119941F60042C4F20102C8
:102E90000620914208BF05200090FFE700980190AE
:102EA000FFE701980290FFE702980390FFE703987D
:102EB0000490FFE704980F9901F00301890000FADC
:102EC00001F10C9808430C900C980F9921F0030124
:102ED0000822C4F20102885010988079C00748B1D6
:102EE000FFE70D9A40F20041C4F201010868104367
:102EF000086008E00D9A40F20041C4F20101086840
:102F000090430860FFE7109880798007002809D572
:102F1000FFE70D9A40F20441C4F201010868104332
:102F2000086008E00D9A40F20441C4F2010108680B
:102F300090430860FFE710988079C006002809D503
:102F4000FFE70D9A40F20841C4F2010108681043FE
:102F5000086008E00D9A40F20841C4F201010868D7
:102F600090430860FFE7109880798006002809D513
:102F7000FFE70D9A40F20C41C4F2010108681043CA
:102F8000086008E00D9A40F20C41C4F201010868A3
:102F900090430860FFE7FFE7FFE70F9801300F90CD
:102FA0005DE612B07047000082B00190ADF80210EB
:102FB00001988068BDF80210084204D0FFE70120A4
:102FC0008DF8010003E000208DF80100FFE79DF877
:102FD000010002B07047000082B00190ADF802100D
:102FE0008DF801209DF8010028B1FFE7BDF802002F
:102FF0000199086105E0BDF802000004019908612B
:10300000FFE702B07047000040F6E470C2F2000033
:103010000068704780B582B00090009820B9FFE743
:1030200001208DF807003EE0009890F83D0040B97F
:10303000FFE70099002081F83C00009803F06EFB48
:10304000FFE70099242081F83D0000980168C868D6
:1030500020F40050C86000980CF006FE009801684B
:10306000086920F49040086100980168486920F0E0
:103070002200486100980168486940F008004861F2
:1030800000980168C86840F40050C86000990020AA
:103090000864009A202182F83D10009A82F83E10C0
:1030A0008DF80700FFE79DF8070002B080BD000023
:1030B00081B0009001B0704782B001908DF803108C
:1030C000ADF8002002B0704780B58AB00990099829
:1030D00000684069049009980068406803900020E7
:1030E0000290099890F83E008DF807009DF81100B5
:1030F000C007A8B1FFE79DF80D00C00780B1FFE74A
:10310000029840F001000290099801686FF4807005
:10311000486109980168086840F400400860FFE7CA
:103120009DF8110000F002010020B0EB510F0FD00C
:10313000FFE79DF80D00C00750B1FFE7029840F08F
:1031400002000290099801686FF400704861FFE77F
:103150009DF8110000F004010020B0EB910F50D059
:10316000FFE79DF80D00C00700284AD0FFE79DF853
:1031700007008DF823000998408D0790099890F872
:103180003D008DF81B000998006B05909DF8230009
:1031900020281AD1FFE70798B8B9FFE79DF81B0070
:1031A00021280ED0FFE79DF81B00292809D0FFE752
:1031B0009DF81B00282808D1FFE70598212804D195
:1031C000FFE7099805F01AFB1AE0099801686FF407
:1031D00080604861029840F0040002909DF807006A
:1031E000102805D0FFE79DF80700402807D1FFE72A
:1031F00009980168086840F400700860FFE7FFE77D
:10320000FFE79DF8110000F008010020B0EBD10F9E
:103210000FD0FFE79DF80D00C00750B1FFE70298FF
:1032200040F008000290099801686FF4006048615E
:10323000FFE7029848B1FFE7029A0999086C10432A
:103240000864099804F08EF9FFE70AB080BD000019
:1032500080B588B007900020059007980068406806
:1032600004900798C06A0390079890F83E008DF884
:103270000B00079890F83D008DF80A009DF80B00B0
:10328000102806D0FFE79DF80B00402840F0008191
:10329000FFE7079800688069059007980068406913
:1032A00006900698C007A0B9FFE703990120B1F581
:1032B0002A0F019008D0FFE7039800F1AC40B0FA64
:1032C00080F040090190FFE70198C00708B1FFE7CF
:1032D000A1E10698C00780B1FFE79DF8110000F05A
:1032E00002010020B0EB510F07D0FFE7079804F070
:1032F00073F8079804F0F4FEC9E09DF8180000F098
:1033000008010020B0EBD10F0DD0FFE79DF81100B0
:1033100000F002010020B0EB510F04D0FFE7079846
:1033200004F00EFDB2E09DF8180000F0020100204C
:10333000B0EB510F0DD0FFE79DF8110000F0020136
:103340000020B0EB510F04D0FFE7079804F01CFDFC
:103350009BE09DF8140000F004010020B0EB910FF9
:1033600050D0FFE707980068406800F40060B0F5AF
:10337000006F46D0FFE79DF818100020B0EBD11F7A
:1033800016D0FFE79DF8110000F004010020B0EB1B
:10339000910F0DD0FFE79DF8180000F00401002008
:1033A000B0EB910F04D1FFE7079804F029FC27E068
:1033B0009DF8180000F004010020B0EB910F1DD023
:1033C000FFE79DF8110000F002010020B0EB510F63
:1033D00014D0FFE79DF80A00212804D1FFE70798E1
:1033E00004F09EFB09E09DF80B00402804D1FFE7A4
:1033F000079804F0EDFEFFE7FFE700E0FFE7FFE7D7
:10340000FFE741E007980068406800F40060B0F50D
:10341000006F38D0FFE79DF8180000F04001002051
:10342000B0EB911F16D0FFE79DF8110000F00401EA
:103430000020B0EB910F0DD0FFE79DF8180000F0D1
:1034400004010020B0EB910F04D1FFE7079804F0CE
:10345000C9FA17E09DF8180000F004010020B0EB55
:10346000910F0DD0FFE79DF8110000F00201002040
:10347000B0EB510F04D0FFE7079804F0E3F900E048
:10348000FFE7FFE7FFE7FFE7FFE7FFE7FFE7C2E050
:103490000798006C28B1FFE707980068406906901C
:1034A00008E00798006880690590079800684069FF
:1034B0000690FFE79DF8180000F002010020B0EB35
:1034C000510F17D0FFE79DF8110000F00201002016
:1034D000B0EB510F0ED0FFE70798006C28B1FFE763
:1034E0000798006880690590FFE70798059905F03F
:1034F0002DF98FE09DF8180000F010010020B0EBCE
:10350000111F0DD0FFE79DF8110000F0020100200F
:10351000B0EB510F04D0FFE7079805F0DFF978E032
:103520009DF80A00212805D0FFE79DF80A00292808
:1035300036D1FFE79DF818100020B0EBD11F16D050
:10354000FFE79DF8110000F004010020B0EB910F9F
:103550000DD0FFE79DF8180000F004010020B0EB4B
:10356000910F04D1FFE7079805F0BAF817E09DF82E
:10357000180000F004010020B0EB910F0DD0FFE720
:103580009DF8110000F002010020B0EB510F04D0B3
:10359000FFE7079805F08EF800E0FFE7FFE737E068
:1035A0009DF8180000F040010020B0EB911F16D0EC
:1035B000FFE79DF8110000F004010020B0EB910F2F
:1035C0000DD0FFE79DF8180000F004010020B0EBDB
:1035D000910F04D1FFE7079805F034F817E09DF844
:1035E000180000F004010020B0EB910F0DD0FFE7B0
:1035F0009DF8110000F002010020B0EB510F04D043
:10360000FFE7079805F006F800E0FFE7FFE7FFE7B0
:10361000FFE7FFE7FFE708B080BD000081B0009042
:1036200001B0704780B58EB00C900C9820B9FFE7C0
:1036300001208DF8370043E10C9890F83D0040B927
:10364000FFE70C99002081F83C000C9800F002FE86
:10365000FFE70C99242081F83D000C980168086868
:1036600020F0010008600C980168086840F40040F0
:1036700008600C980168086820F40040086001F0B8
:1036800039FA0A900C98406848F2A061C0F2010132
:1036900088420BD8FFE70A9948F28042C0F21E0226
:1036A0000020914238BF012009900AE00A9940F6B3
:1036B0000012C0F23D020020914238BF0120099063
:1036C000FFE70998012804D1FFE701208DF83700B2
:1036D000F6E00A984DF68361C4F21B31A0FB01109D
:1036E000800C0B900C980068406820F03F000B990C
:1036F00008430C99096848600C980068006A20F03B
:103700003F0008900C98406848F2A061C0F20101A7
:10371000884204D8FFE70B98013007900EE00B9821
:103720004FF49671484344F6D351C1F26201A0FBB5
:103730000101012000EB91100790FFE7089807991D
:1037400008430C99096808620C980068C0694CF637
:10375000FF71884306900C98406848F2A061C0F25F
:10376000010188421FD8FFE70A9801380C9949687F
:103770004900B0FBF1F001306FF31F30032803D88C
:10378000FFE7042005900BE00A9801380C9949687E
:103790004900B0FBF1F001306FF31F300590FFE7F7
:1037A000059804904CE00C98806868B9FFE70A9887
:1037B00001380C99496801EB4101B0FBF1F001308F
:1037C0006FF31F3003900DE00A9801380C99496897
:1037D00019225143B0FBF1F00130042161F31F3095
:1037E0000390FFE70398000518B9FFE70120029056
:1037F00023E00C98806868B9FFE70A9801380C99B3
:10380000496801EB4101B0FBF1F001306FF31F306B
:1038100001900DE00A9801380C994968192251432A
:10382000B0FBF1F00130042161F31F300190FFE79C
:10383000019840F400400290FFE702980490FFE7EF
:103840000698049908430C990968C8610C980068A7
:10385000006820F0C0000C9B1968DA691B6A1A43E3
:10386000104308600C980068806848F2FF31884374
:103870000C9A1168D36812691A43104388600C9837
:103880000068C06820F0FF000C9B19685A699B69AA
:103890001A431043C8600C980168086840F00100A2
:1038A00008600C99002008640C9A202182F83D10D1
:1038B0000C9908630C9981F83E008DF83700FFE7FA
:1038C0009DF837000EB080BD80B58CB00A90ADF881
:1038D000261008920793FFF797FB069001200590AA
:1038E0000A9890F83D00202840F02B81FFE70A98C5
:1038F00006996A4611600221C0F2100101221923C3
:1039000005F05EF920B1FFE702208DF82F001CE1E1
:10391000FFE70A9890F83C00012804D1FFE7022055
:103920008DF82F0011E10A99012081F83C00FFE792
:10393000FFE70A9800680068C00738B9FFE70A98EF
:103940000168086840F001000860FFE70A98016814
:10395000086820F4006008600A99242081F83D007E
:103960000A99002008640A990020CFF6FF70C86207
:10397000FFE70A980168086840F4807008600A98B8
:10398000079B06996A4611604FF00111002205F06D
:1039900017F980B1FFE70A9800680068C0050028A1
:1039A00005D5FFE70A994FF400700864FFE703208C
:1039B0008DF82F00C9E0BDF8260000F0FE000A993E
:1039C00009680861FFF720FB06900A9800684069C3
:1039D000C0F340008DF813000A9800684069C0F3F6
:1039E00080208DF81200FFE70A9890F83D10002023
:1039F000A02902900DD0FFE79DF81310002002903F
:103A000039B9FFE79DF81200B0FA80F04009029042
:103A1000FFE70298C007F8B1FFE7FFF7F5FA06994C
:103A2000401A0799884203D8FFE7079828B9FFE7AB
:103A30000A99A02081F83D00FFE70A9800684069D4
:103A4000C0F340008DF813000A9800684069C0F385
:103A500080208DF81200C7E70A99202081F83D00E8
:103A60000A980068406900F002010120B0EB510F94
:103A700032D1FFE70A980168086840F400700860D6
:103A8000FFE7002003900A980068406903900A98B5
:103A90000068806903900398FFE70A9806996A46D0
:103AA00011600221C0F210010122192305F088F8EB
:103AB00020B1FFE701208DF82F0046E00A99202071
:103AC00081F83D00FFE70A99002081F83C00FFE7FC
:103AD00000208DF82F0038E00A980168086840F44B
:103AE000007008600A9801686FF4806048610A9865
:103AF00006996A4611600221C0F2100101221923C1
:103B000005F05EF820B1FFE701208DF82F001CE0E2
:103B1000FFE7059801300590FFE70598089988426E
:103B2000FFF427AFFFE70A99202081F83D00FFE767
:103B30000A99002081F83C00FFE701208DF82F0052
:103B400003E002208DF82F00FFE79DF82F000CB056
:103B500080BD000081B0009001B0704781B000903E
:103B600001B0704781B0009001B0704781B0009003
:103B700001B0704781B0009001B0704710B590B0AF
:103B8000844614981398DDF848E0CDF828C0ADF8C5
:103B90002610ADF82420ADF82230ADF8200000202A
:103BA0000790FFF731FA06900A9890F83D00202818
:103BB00040F03F82FFE70A9806996A4611600221A9
:103BC000C0F210010122192304F0FAFF20B1FFE72F
:103BD00002208DF82F0030E2FFE70A9890F83C00B1
:103BE000012804D1FFE702208DF82F0025E20A9971
:103BF000012081F83C00FFE7FFE70A9800680068B1
:103C0000C00738B9FFE70A980168086840F001006A
:103C10000860FFE70A980168086820F400600860FF
:103C20000A99222081F83D000A99402081F83E003F
:103C30000A990020086412980A994862BDF8200089
:103C40000A9948850A98408D0A9908850A990020A2
:103C5000CFF6FF70C8620A98BDF82610BDF8242080
:103C6000BDF82230DDF850C0069CEE46CEF8044088
:103C7000CEF800C004F03EFB20B1FFE701208DF834
:103C80002F00DAE10A98008DA0B9FFE7FFE70020D6
:103C900005900A980068406905900A980068806954
:103CA00005900598FFE70A980168086840F40070DD
:103CB00008605DE00A98008D01281FD1FFE70A988F
:103CC0000168086820F480600860EFF3108072B625
:103CD0000F90FFE7002004900A9800684069049064
:103CE0000A980068806904900498FFE70A980168C0
:103CF000086840F40070086062B638E00A98008DE9
:103D000002281FD1FFE70A980168086840F40060A4
:103D10000860EFF3108072B60E90FFE7002003906A
:103D20000A980068406903900A98006880690390C7
:103D30000398FFE70A980168086820F4806008602B
:103D400062B613E00A980168086840F48060086071
:103D5000FFE7002002900A980068406902900A98E4
:103D60000068806902900298FFE7FFE7FFE7FFE73E
:103D7000FFE70A98008D002800F04981FFE70A98C4
:103D8000008D032800F20781FFE70A98008D0128C3
:103D90001ED1FFE70A981499069A04F0F9FF20B1A2
:103DA000FFE701208DF82F0047E10A9800680069BD
:103DB0000A99496A08700A99486A013048620A9962
:103DC000088D013808850A99488D01384885E1E059
:103DD0000A98008D022841D1FFE70A98149B0699A2
:103DE0006A4611600421C0F20101002204F0E8FEDD
:103DF00020B1FFE701208DF82F001EE1EFF31080C6
:103E000072B60D900A980168086840F40070086066
:103E10000A98006800690A99496A08700A99486A0C
:103E2000013048620A99088D013808850A99488D41
:103E30000138488562B60A98006800690A99496A9B
:103E400008700A99486A013048620A99088D013859
:103E500008850A99488D013848859AE00A98149B8C
:103E600006996A4611600421C0F20101002204F0A3
:103E7000A7FE20B1FFE701208DF82F00DDE00A98B2
:103E80000168086820F480600860EFF3108072B663
:103E90000C900A98006800690A99496A08700A99A2
:103EA000486A013048620A99088D013808850A99E4
:103EB000488D0138488540F20400C2F200000068D5
:103EC00048F21F51C5F2EB11A0FB0110C00844F6E7
:103ED000D351C1F26201A0FB0110800923214843A4
:103EE0000790FFE70798013807900798D0B9FFE7D8
:103EF0000A99002008630A9A202182F83D100A9945
:103F000081F83E000A99086C40F02000086462B60F
:103F1000FFE70A99002081F83C00FFE701208DF8B7
:103F20002F008AE0FFE70A980068406900F004016A
:103F30000020B0EB910FD5D0FFE70A980168086820
:103F400040F4007008600A98006800690A99496A9C
:103F500008700A99486A013048620A99088D013848
:103F600008850A99488D0138488562B60A98006824
:103F700000690A99496A08700A99486A01304862DA
:103F80000A99088D013808850A99488D01384885B5
:103F9000FFE7FFE73AE00A981499069A04F0F8FE62
:103FA00020B1FFE701208DF82F0046E00A98006855
:103FB00000690A99496A08700A99486A013048629A
:103FC0000A99088D013808850A99488D0138488575
:103FD0000A980068406900F004010120B0EB910FDD
:103FE00013D1FFE70A98006800690A99496A0870C6
:103FF0000A99486A013048620A99088D0138088593
:104000000A99488D01384885FFE7FFE7B1E60A992C
:10401000202081F83D000A99002081F83E00FFE74A
:104020000A99002081F83C00FFE700208DF82F005E
:1040300003E002208DF82F00FFE79DF82F0010B05D
:1040400010BD000010B588B084460C980B98DDF8C0
:1040500028E0CDF818C0ADF81610ADF81420ADF872
:104060001230ADF81000FEF7CFFF0390069890F8DD
:104070003D00202840F0E680FFE7069803996A4655
:1040800011600221C0F210010122192304F098FDF1
:1040900020B1FFE702208DF81F00D7E0FFE7069868
:1040A00090F83C00012804D1FFE702208DF81F00A2
:1040B000CCE00699012081F83C00FFE7FFE7069875
:1040C00000680068C00738B9FFE70698016808680B
:1040D00040F001000860FFE706980168086820F4D6
:1040E000006008600699212081F83D000699402073
:1040F00081F83E000699002008640A9806994862F3
:10410000BDF81000069948850698408D06990885E7
:1041100006990020CFF6FF70C8620698BDF8161009
:10412000BDF81420BDF81230DDF830C0039CEE4617
:10413000CEF80440CEF800C004F0CEF920B1FFE77D
:1041400001208DF81F0081E0FFE70698008D002810
:1041500049D0FFE706980C99039A04F0B9FE80B1A4
:10416000FFE70698006C042807D1FFE7069801686E
:10417000086840F400700860FFE701208DF81F0018
:1041800064E006980168406A007808610699486A08
:10419000013048620699088D013808850699488DD6
:1041A0000138488506980068406900F00401012044
:1041B000B0EB910F16D1FFE70698008D90B1FFE7A5
:1041C00006980168406A007808610699486A0130DB
:1041D00048620699088D013808850699488D01388E
:1041E0004885FFE7B1E706980C99039A04F09CFC18
:1041F00080B1FFE70698006C042807D1FFE7069816
:104200000168086840F400700860FFE701208DF83D
:104210001F001BE006980168086840F40070086001
:104220000699202081F83D000699002081F83E0083
:10423000FFE70699002081F83C00FFE700208DF899
:104240001F0003E002208DF81F00FFE79DF81F000C
:1042500008B010BD80B58AB0099000200890079082
:10426000069005900998006845F20041C4F20001EB
:1042700088423FD1FFE7FFE741F21800C4F2020095
:10428000016841F008010160006800F00800049036
:104290000498FFE7C02005901220069003200890A4
:1042A00040F60040C4F2010005A9FEF7D1FCFFE78B
:1042B00041F21C00C4F20200016841F400110160E7
:1042C000006800F4001003900398FFE71F2000909F
:1042D0000B210022019200F0C1F8009800F0B4F820
:1042E000019A202002900C2100F0B8F8029800F00A
:1042F000ABF8FFE70AB080BD81B0009001B0704715
:1043000081B0009001B0704740F20800C2F2000096
:10431000027840F6E471C2F20001086810440860B7
:104320007047000080B542F20001C4F20201086843
:1043300040F010000860032000F0AAF80E2000F002
:1043400005F800F03BF8002080BD000080B582B089
:10435000009040F20400C2F20000006840F2080140
:10436000C2F200010A784FF47A71B1FBF2F1B0FBAE
:10437000F1F001F033FB20B1FFE701208DF80700D9
:1043800018E000980F280DD8FFE700994FF0FF3094
:10439000002200F063F8009840F20C01C2F2000124
:1043A000086003E001208DF8070003E000208DF88D
:1043B0000700FFE79DF8070002B080BD80B584B01C
:1043C000FFE741F21800C4F20200016841F0010168
:1043D0000160006800F0010003900398FFE7FFE729
:1043E00041F21C00C4F20200016841F080510160FA
:1043F000006800F0805002900298FFE701200090D2
:104400000221002200F02AF8009800F01DF8FFE7D2
:104410000421C4F2010108680190019820F0E060D5
:104420000190019840F00070019001980860FFE74A
:1044300004B080BD80B582B08DF807009DF90700FB
:104440000CF0F6FC02B080BD80B582B08DF807009C
:104450009DF907000CF008FD02B080BD80B586B064
:104460008DF8170004910392002002900CF014FDC7
:1044700002909DF91700019002980499039A06F0A2
:10448000BBFB014601980CF00FFD06B080BD00009B
:1044900080B582B0019001980CF028FD02B080BD7B
:1044A0000CF042FD2021C4F20E210120086070476B
:1044B00040F69E71C2F200010120087070470000B2
:1044C00080B540F21440C4F201000068C003002827
:1044D0000AD5FFE7FFF7ECFF40F21441C4F20101F7
:1044E0004FF480300860FFE780BD000080B58CB0DD
:1044F0000B9040F60E70C1F210000A9040F60A30A0
:10450000C0F60C50099040F20670C0F608100890F2
:1045100040F20230C0F20450079040F20120ADF8A2
:104520001A000020059004900390029001900B98CF
:104530000138014600910F2800F2C1800099DFE8A0
:1045400001F069AEBE61BEBEBE65BEBEBEBEBEBE31
:10455000BE0841F20400C4F202000068029041F279
:104560000000C4F202000068C001002849D5FFE73E
:104570000298C0F3834107A8405C03909DF80A00AD
:10458000C007F0B1FFE741F20400C4F20200006886
:1045900000F400310DF11A0040EA51400078059016
:1045A0009DF80A00C00758B1FFE7059941F60030B1
:1045B000C0F2B700B0FBF1F0039948430490FFE765
:1045C00007E0039840F60011C0F23D014843049013
:1045D000FFE741F20400C4F2020000684002002834
:1045E00003D5FFE7049801900AE0049840004AF6DA
:1045F000AB21CAF6AA21A0FB011040080190FFE7F9
:10460000FFE75DE000F09AFA019059E000F096FAB9
:10461000019055E041F22000C4F2020000680290CF
:10462000029800F44070B0F5807F0AD1FFE79DF852
:1046300008008007002804D5FFE74FF400400190F0
:104640002CE0029800F44070B0F5007F0DD1FFE738
:1046500041F22400C4F2020000688007002804D55B
:10466000FFE749F64040019017E0029800F44070DF
:10467000B0F5407F0FD1FFE741F20000C4F2020025
:1046800000688003002806D5FFE746F63660C0F2D2
:104690000100019000E0FFE7FFE7FFE710E000F016
:1046A0003BFA41F20401C4F20201096801F44042FC
:1046B000022101EB5231B0FBF1F0019000E0FFE785
:1046C00001980CB080BD000080B586B00490002039
:1046D0000390029004980078C007002800F0AC8096
:1046E000FFE700208DF8070041F21C00C4F2020031
:1046F0000068C000002813D4FFE7FFE741F21C0068
:10470000C4F20200016841F080510160006800F0CD
:10471000805000900098FFE701208DF80700FFE728
:1047200047F20000C4F200000068C005002822D44F
:10473000FFE747F20001C4F20001086840F480700E
:104740000860FEF761FC0390FFE747F20000C4F247
:1047500000000068C00500280CD4FFE7FEF754FCF9
:104760000399401A652804D3FFE703208DF817004A
:104770008AE0EAE7FFE741F22000C4F202000068A5
:1047800000F4407002900298E0B3FFE702980499A9
:10479000496801F44071884234D0FFE741F22001BA
:1047A000C4F20201086820F44070029040F24042D6
:1047B000C4F24222012010600020106002980860BC
:1047C0009DF80800C007E0B1FFE7FEF71DFC03906D
:1047D000FFE741F22000C4F20200006880070028D1
:1047E0000ED4FFE7FEF710FC0399401A41F289311D
:1047F000884204D3FFE703208DF8170044E0E8E780
:10480000FFE7FFE741F22001C4F20201086820F44B
:104810004070049A5268104308609DF80700012810
:1048200009D1FFE741F21C01C4F20201086820F03F
:1048300080500860FFE7FFE70498007880070028B1
:104840000CD5FFE741F20401C4F20201086820F42C
:104850004040049A926810430860FFE7049800788B
:10486000C00600280CD5FFE741F20401C4F20201A2
:10487000086820F48000049A526910430860FFE73A
:1048800000208DF81700FFE79DF8170006B080BDE7
:1048900080B584B002900191029820B9FFE7012011
:1048A0008DF80F001BE1019842F20001C4F20201F1
:1048B000096801F00701884216D9FFE742F20000BB
:1048C000C4F20200016821F00701019A114301605E
:1048D000006800F007000199884204D0FFE701203A
:1048E0008DF80F00FBE0FFE70298007880070028B2
:1048F0002AD5FFE7029800784007002809D5FFE78E
:1049000041F20401C4F20201086840F4E06008606A
:10491000FFE7029800780007002809D5FFE741F279
:104920000401C4F20201086840F460500860FFE727
:1049300041F20401C4F20201086820F0F000029A7A
:10494000926810430860FFE702980078C0070028CB
:1049500060D0FFE70298406801280ED1FFE741F2DE
:104960000000C4F2020000688003002804D4FFE7BE
:1049700001208DF80F00B2E021E002984068022883
:104980000ED1FFE741F20000C4F20200006880018E
:10499000002804D4FFE701208DF80F009FE00DE010
:1049A00041F20000C4F2020000688007002804D42D
:1049B000FFE701208DF80F0091E0FFE7FFE741F2EC
:1049C0000401C4F20201086820F00300029A526850
:1049D00010430860FEF718FB0090FFE741F2040067
:1049E000C4F20200006800F00C0002994968B0EBC4
:1049F000810F0ED0FFE7FEF707FB0099401A41F246
:104A00008931884204D3FFE703208DF80F0066E068
:104A1000E4E7FFE7019842F20001C4F202010968ED
:104A200001F00701884216D2FFE742F20000C4F20B
:104A30000200016821F00701019A1143016000683A
:104A400000F007000199884204D0FFE701208DF8AB
:104A50000F0044E0FFE702980078400700280CD5DB
:104A6000FFE741F20401C4F20201086820F4E060AB
:104A7000029AD26810430860FFE7029800780007A6
:104A800000280DD5FFE741F20401C4F202010868D5
:104A900020F46050029A126940EAC2000860FFE701
:104AA00000F04CF841F20401C4F202010968C9B2F5
:104AB0000A0942F20A11C0F60101895CC84040F2BD
:104AC0000401C2F20001086040F20C00C2F20000D2
:104AD0000068FFF73BFC00208DF80F00FFE79DF812
:104AE0000F0004B080BD000040F20400C2F20000DC
:104AF0000068704780B5FFF7F7FF41F20401C4F288
:104B000002010968C1F3022242F21A11C0F6010142
:104B1000895CC84080BD000080B5FFF7E5FF41F229
:104B20000401C4F202010968C1F3C22242F21A115F
:104B3000C0F60101895CC84080BD00008BB040F622
:104B40000E70C1F210000A9040F60A30C0F60C5008
:104B5000099040F20670C0F60810089040F202304A
:104B6000C0F20450079040F20120ADF81A00002076
:104B70000590049003900290019041F20400C4F269
:104B8000020000680590059800F00C0001460091B5
:104B9000E0B3FFE70098042804D0FFE70098082856
:104BA00006D034E041F60030C0F2B700019034E0A6
:104BB0000598C0F3834107A8405C02909DF8160059
:104BC000C007C0B1FFE741F20400C4F20200006870
:104BD00000F400310DF11A0040EA514000780490D1
:104BE000029841F60031C0F2B70148430499B0FB86
:104BF000F1F0039007E0029840F60011C0F23D0189
:104C000048430390FFE70398019006E0FFE741F275
:104C10000020C0F27A000190FFE701980BB07047C6
:104C200080B586B00490049820B9FFE701208DF884
:104C300017002EE304980078C007002800F0AE802B
:104C4000FFE741F20400C4F20200006800F00C002B
:104C5000042813D0FFE741F20400C4F20200006808
:104C600000F00C0008281BD1FFE741F20400C4F259
:104C700002000068C003002812D5FFE741F20000DF
:104C8000C4F2020000688003002808D5FFE70498FA
:104C9000406820B9FFE701208DF81700F9E27CE0B9
:104CA000FFE704984068B0F5803F09D1FFE741F283
:104CB0000001C4F20201086840F48030086032E06C
:104CC0000498406868B9FFE741F20001C4F20201AC
:104CD000086820F480300860086820F480200860AC
:104CE00020E004984068B0F5A02F0DD1FFE741F215
:104CF0000001C4F20201086840F4802008600868DE
:104D000040F4803008600CE041F20001C4F202017E
:104D1000086820F480300860086820F4802008606B
:104D2000FFE7FFE7FFE7FFE704984068D0B1FFE740
:104D3000FEF76AF90390FFE741F20000C4F20200B7
:104D40000068800300280CD4FFE7FEF75DF90399A3
:104D5000401A652804D3FFE703208DF8170098E276
:104D6000EAE719E0FEF750F90390FFE741F200008F
:104D7000C4F202000068800300280CD5FFE7FEF7AC
:104D800043F90399401A652804D3FFE703208DF8FF
:104D900017007EE2EAE7FFE7FFE7FFE70498007805
:104DA0008007002840F18D80FFE741F20400C4F243
:104DB0000200006810F00C0F13D0FFE741F204006E
:104DC000C4F20200006800F00C00082829D1FFE7B7
:104DD00041F20400C4F202000068C003002820D49D
:104DE000FFE741F20000C4F20200006880070028DB
:104DF00009D5FFE704980069012804D0FFE70120E6
:104E00008DF8170045E241F20001C4F20201086882
:104E100020F0F800049A526940EAC2000860FFE7F7
:104E20004EE00498006958B3FFE70021C4F2422124
:104E300001200860FEF7E8F80390FFE741F2000068
:104E4000C4F202000068800700280CD4FFE7FEF7D8
:104E5000DBF80399401A032804D3FFE703208DF8F9
:104E6000170016E2EAE741F20001C4F20201086805
:104E700020F0F800049A526940EAC20008601EE07F
:104E80000021C4F2422100200860FEF7BDF8039023
:104E9000FFE741F20000C4F202000068800700282A
:104EA0000CD5FFE7FEF7B0F80399401A032804D3A6
:104EB000FFE703208DF81700EBE1EAE7FFE7FFE7E4
:104EC000FFE7049800780007002848D5FFE704981A
:104ED000806918B3FFE740F28041C4F2422101200B
:104EE0000860FEF791F80390FFE741F22400C4F256
:104EF00002000068800700280CD4FFE7FEF784F862
:104F00000399401A032804D3FFE703208DF8170004
:104F1000BFE1EAE7012009F0A3FB1FE040F2804176
:104F2000C4F2422100200860FEF76EF80390FFE70C
:104F300041F22400C4F202000068800700280CD56A
:104F4000FFE7FEF761F80399401A032804D3FFE74F
:104F500003208DF817009CE1EAE7FFE7FFE70498DC
:104F600000784007002840F1D880FFE700208DF846
:104F7000070041F21C00C4F202000068C0000028D3
:104F800013D4FFE7FFE741F21C00C4F202000168FE
:104F900041F080510160006800F08050009000985E
:104FA000FFE701208DF80700FFE747F20000C4F299
:104FB00000000068C005002822D4FFE747F2000186
:104FC000C4F20001086840F480700860FEF71CF825
:104FD0000390FFE747F20000C4F200000068C0053C
:104FE00000280CD4FFE7FEF70FF80399401A652854
:104FF00004D3FFE703208DF817004AE1EAE7FFE753
:10500000FFE70498C068012809D1FFE741F22001B9
:10501000C4F20201086840F00100086031E0049821
:10502000C06868B9FFE741F22001C4F202010868D4
:1050300020F001000860086820F0040008601FE00C
:105040000498C06805280DD1FFE741F22001C4F2A1
:105050000201086840F004000860086840F00100A0
:1050600008600CE041F22001C4F20201086820F05F
:1050700001000860086820F004000860FFE7FFE70F
:10508000FFE7FFE70498C068E0B1FFE7FDF7BCFF6A
:105090000390FFE741F22000C4F20200006880079D
:1050A00000280ED4FFE7FDF7AFFF0399401A41F245
:1050B0008931884204D3FFE703208DF81700E8E028
:1050C000E8E71BE0FDF7A0FF0390FFE741F22000B7
:1050D000C4F202000068800700280ED5FFE7FDF744
:1050E00093FF0399401A41F28931884204D3FFE7C4
:1050F00003208DF81700CCE0E8E7FFE79DF80700F4
:10510000012809D1FFE741F21C01C4F2020108683D
:1051100020F080500860FFE7FFE70498C06900288E
:1051200000F0B380FFE741F20400C4F2020000681F
:1051300000F00C00082800F08280FFE70498C069A6
:1051400002285CD1FFE76021C4F242210020086000
:10515000FDF75AFF0390FFE741F20000C4F202009E
:105160000068800100280CD5FFE7FDF74DFF03998B
:10517000401A032804D3FFE703208DF8170088E0C6
:10518000EAE70498006AB0F5803F0CD1FFE741F2EE
:105190000401C4F20201086820F40030049A926805
:1051A00010430860FFE741F20401C4F202010868FD
:1051B00020F47410049B1A6A5B6A1A431043086057
:1051C0006021C4F2422101200860FDF71DFF039019
:1051D000FFE741F20000C4F20200006880010028ED
:1051E0000CD4FFE7FDF710FF0399401A032804D3FE
:1051F000FFE703208DF817004BE0EAE71EE060218F
:10520000C4F2422100200860FDF7FEFE0390FFE794
:1052100041F20000C4F202000068800100280CD5B1
:10522000FFE7FDF7F1FE0399401A032804D3FFE7D7
:1052300003208DF817002CE0EAE7FFE724E004984C
:10524000C069012804D1FFE701208DF8170020E094
:1052500041F20400C4F2020000680290029800F4D7
:1052600080300499096A884208D1FFE7029800F467
:1052700070100499496A884204D0FFE701208DF834
:10528000170006E0FFE7FFE7FFE700208DF81700B3
:10529000FFE79DF8170006B080BD000085B00390C1
:1052A000029101920093039820B9FFE701208DF845
:1052B000130027E0FFE70398007C012804D1FFE7F3
:1052C00002208DF813001DE0039901200874FFE708
:1052D000FFE703990220487446F62C41C4F200010E
:1052E000086820F07F00009A1043086003990120AD
:1052F0004874FFE7039900200874FFE700208DF849
:105300001300FFE79DF8130005B0704780B588B023
:105310000690059104920020039002900190009065
:10532000069818B1FFE7059820B9FFE701208DF82E
:105330001F00C0E00698006840684007002803D5B9
:10534000FFE7012018B906E0012020B9FFE701209E
:105350008DF81F00AFE0069809F026FB0390039933
:105360004BF2C530C9F2A210A1FB0021C90A00917D
:10537000039BA3FB0021C90A4FF4616201FB1233B6
:1053800048F68901C8F68801A3FB01C35B09DDF873
:1053900014C08CF80130039BA3FB00C0C00A00FBC3
:1053A0001230A0FB011251090901A1EB5211A0EB2F
:1053B000810005998870009818285ED3FFE700984F
:1053C0004AF6AB21CAF6AA21A0FB012000090190F0
:1053D0000098A0FB0121090901EB4101A0EBC100EC
:1053E00005990870069809F0C5FA029002980130F4
:1053F00050B1FFE702980399884205D9FFE7039966
:105400000298401A029003E04FF0FF300290FFE74D
:10541000019840F2A32141430398A0EBC1100390EF
:105420000698039909F090FB20B1FFE701208DF861
:105430001F0040E00298013078B1FFE7039902981D
:10544000084402900698029909F056FB20B1FFE744
:1054500001208DF81F002EE00AE00698029909F05D
:105460004BFB20B1FFE701208DF81F0023E0FFE791
:105470000698019909F030F903E000980599087041
:10548000FFE7049898B1FFE70598007809F006F95E
:10549000059908700598407809F000F90599487059
:1054A0000598807809F0FAF805998870FFE70020E0
:1054B0008DF81F00FFE79DF81F0008B080BD0000B9
:1054C00080B584B0029000200190029820B9FFE7D7
:1054D00001208DF80F008CE00298407C38B9FFE77E
:1054E000029900200874029800F088F8FFE70299FA
:1054F00002204874029800F0A7F838B1FFE702993B
:105500000420487401208DF80F0072E0029809F021
:105510009DF938B1FFE702990420487401208DF805
:105520000F0066E002980168486820F007004860B4
:105530000298806848B1FFE746F63041C4F20001A6
:10554000086820F001000860FFE746F62C41C4F22D
:105550000001086820F46070029A926810430860A5
:1055600002984068013020B1FFE70298406801903E
:1055700012E00120FEF7BAFF0190019838B9FFE769
:1055800002990420487401208DF80F0031E0019841
:1055900001380190FFE7FFE702980068806820F07B
:1055A0000F00BDF806100843029909688860029848
:1055B0000068C068019961F30F0002990968C8602A
:1055C000029809F06FF938B1FFE702990420487496
:1055D00001208DF80F000CE002990020C873029A98
:1055E00001215173029A9173029A51748DF80F0040
:1055F000FFE79DF80F0004B080BD000080B582B0C9
:1056000001900198006842F60001C4F2000188424E
:1056100018D1FFE7FEF746FFFFE741F21C00C4F296
:105620000200016841F000610160006800F0006064
:1056300000900098FFE740F23C41C4F24221012073
:105640000860FFE702B080BD80B584B00290002002
:105650000190029820B9FFE701208DF80F0021E0AA
:1056600002980168486820F008004860FDF7CCFC0B
:105670000190FFE7029800684068000700280DD4F9
:10568000FFE7FDF7C1FC0199401AB0F57A7F04D914
:10569000FFE703208DF80F0004E0EBE700208DF812
:1056A0000F00FFE79DF80F0004B080BD80B582B009
:1056B00040F22020C2F200004168013141604068A0
:1056C000B0F57A7F09D3FFE740F22021C2F2000152
:1056D0000120487000204860FFE740F61C40C2F2FD
:1056E00000000079002864D0FFE740F28600C2F293
:1056F00000000188013101800088B0F57A7F13DB5A
:10570000FFE740F22C20C2F200000269D1680131AB
:10571000D160416808690130086140F28601C2F237
:10572000000100200880FFE740F28400C2F2000080
:10573000008860B9FFE740F22C20C2F20000006947
:10574000008A40F28801C2F200010880FFE740F2BF
:105750008400C2F20000018801310180008848F60F
:10576000B801884224DBFFE740F22C20C2F200009F
:105770000069008A40F28801C2F20001098888426B
:1057800008D1FFE740F22C20C2F20000016901209D
:10579000087506E040F28401C2F200010020088092
:1057A000FFE740F28401C2F2000100200880FFE719
:1057B00006E040F28601C2F2000100200880FFE707
:1057C00040F28A00C2F200000188013101800088A5
:1057D000B0F57A7F2BDBFFE740F28A01C2F20001CD
:1057E0000020088040F22C20C2F200004168C86806
:1057F0000130C86040F21420C2F20000B0F900008D
:10580000012813DBFFE740F21420C2F200000188F8
:1058100001390180B0F9000038B9FFE740F280019A
:10582000C2F2000100200870FFE7FFE7FFE740F247
:105830008000C2F20000007810BBFFE740F21420A5
:10584000C2F20000B0F90000C8B9FFE740F2122030
:10585000C2F20000B0F90000C92808DBFFE740F2FF
:105860001221C2F2000108880138088006E040F2E7
:105870008001C2F2000101200870FFE7FFE7FFE7A7
:1058800040F23410C2F20000416A01314162406AC4
:1058900064280AD3FFE740F23411C2F2000101206C
:1058A00081F8280000204862FFE740F26010C2F251
:1058B0000000416A01314162406AC8280AD3FFE70B
:1058C00040F26011C2F20001012081F8280000209E
:1058D0004862FFE740F28200C2F200000188013115
:1058E00001800088B0F5FA7F0DDBFFE740F2102160
:1058F000C2F200010120087040F28201C2F20001F0
:1059000000200880FFE740F23410C2F20000406936
:10591000C0B1FFE740F23410C2F20000416901312A
:105920004161406905280CD3FFE740F23411C2F20F
:105930000001012088704868886000204860486144
:10594000FFE7FFE740F26010C2F200004069A8B133
:10595000FFE740F26010C2F200004169013141618D
:105960004069052809D3FFE740F26011C2F2000147
:105970000020887048604861FFE7FFE740F6E0706C
:10598000C2F20000007840B1FFE740F20001C2F22D
:105990000001087801380870FFE740F20000C2F209
:1059A00000000078B8B9FFE740F60040C4F20100FB
:1059B0004FF4807100220192FDF70EFB019840F632
:1059C000E071C2F20001087040F20001C2F2000171
:1059D0000A200870FFE702B080BD000080B582B0E9
:1059E0000190019809F0E6FB02B080BD80B5FFF799
:1059F0005DFE80BD85B003900291FFE7039890F8AB
:105A00003C00012804D1FFE702208DF813006DE06F
:105A10000399012081F83C00FFE7FFE7039902208A
:105A200081F83D0003980068406801900398006881
:105A300080680090019820F0700001900298016841
:105A400001980843019001980399096848600398F8
:105A5000006842F60041C4F2010188422AD0FFE703
:105A60000398006843F20041C4F20101884221D04A
:105A7000FFE703980068B0F1804F1BD0FFE7039861
:105A8000006840F20041C4F20001884212D0FFE7F2
:105A90000398006840F60001C4F20001884209D072
:105AA000FFE70398006840F60041C4F20001884215
:105AB0000ED1FFE7009820F0800000900298416826
:105AC0000098084300900098039909688860FFE7F0
:105AD0000399012081F83D00FFE70399002081F838
